:020000040800F2
:1000000008A4002479030008F16A0008E9640008E4
:10001000256A00083508000881A7000800000000D4
:10002000000000000000000000000000DF72000877
:10003000050A0008000000008F6D000889730008A1
:100040009303000893030008930300089303000838
:100050009303000893030008930300089303000828
:100060009303000893030008930300089303000818
:100070009303000893030008930300089303000808
:1000800093030008930300089303000893030008F8
:1000900093030008930300089303000893030008E8
:1000A00093030008930300089303000893030008D8
:1000B00093030008930300089D770008930300084A
:1000C00093030008930300089303000893030008B8
:1000D00093030008930300089303000893030008A8
:1000E0009303000893030008000000009303000836
:1000F0009303000893030008930300089303000888
:100100009303000893030008930300089303000877
:100110009303000893030008930300089303000867
:100120009303000893030008930300089303000857
:100130009303000893030008930300089303000847
:1001400000000000000000000000000000000000AF
:100150009303000893030008930300089303000827
:100160009303000893030008930300089303000817
:1001700093030008930300089303000800000000A5
:1001800093030008930300089303000893030008F7
:1001900093030008930300089303000893030008E7
:1001A00093030008930300089303000893030008D7
:1001B00093030008930300089303000893030008C7
:1001C00093030008930300089303000893030008B7
:1001D00093030008F56A00089303000893030008DE
:1001E0009303000893030008930300089303000897
:1001F0009303000893030008930300089303000887
:100200009303000893030008930300089303000876
:100210009303000893030008930300089303000866
:1002200093030008930300089303000800000000F4
:1002300093030008930300080000000093030008E4
:100240009303000893030008930300089303000836
:100250009303000893030008930300089303000826
:100260009303000893030008930300089303000816
:1002700093030008930300089303000800000000A4
:100280009303000893030008930300080000000094
:10029000000000009303000800F002F800F05CF892
:1002A0000AA090E8000C82448344AAF10107DA45D1
:1002B00001D100F051F8AFF2090EBAE80F0013F0C7
:1002C000010F18BFFB1A43F001031847F0B70000F5
:1002D00010B800000A444FF0000C10F8013B13F076
:1002E000070408BF10F8014B1D1108BF10F8015B8F
:1002F000641E05D010F8016B641E01F8016BF9D182
:1003000013F0080F1EBF10F8014BAD1C0C1B09D1D8
:100310006D1E58BF01F801CBFAD505E014F8016B4A
:1003200001F8016B6D1EF9D59142D6D370470000DC
:100330000023002400250026103A28BF78C1FBD8EE
:10034000520728BF30C148BF0B6070471FB50BF084
:100350006BFA1FBD10B510BD00F0F7F81146FFF79E
:10036000F5FF0AF033FD00F015F903B4FFF7F2FFD3
:1003700003BC00F019F9000009488047094800470C
:10038000FEE7FEE7FEE7FEE7FEE7FEE7FEE7FEE745
:10039000FEE7FEE704480549054A064B70470000A2
:1003A0006974000899020008089A002408A400242F
:1003B000089C0024089C0024032A40F2308010F09E
:1003C000030C00F0158011F8013BBCF1020F6244F0
:1003D00098BF11F801CB00F8013B38BF11F8013B81
:1003E000A2F1040298BF00F801CB38BF00F8013B2E
:1003F00011F0030300F02580083AC0F0088051F89E
:10040000043B083A51F804CBA0E80810F5E7121DA8
:100410005CBF51F8043B40F8043BAFF30080D207C7
:1004200024BF11F8013B11F801CB48BF11F8012B93
:1004300024BF00F8013B00F801CB48BF00F8012BB6
:10044000704710B5203AC0F00B80B1E81850203A40
:10045000A0E81850B1E81850A0E81850BFF4F5AF64
:100460005FEA027C24BFB1E81850A0E8185044BFEE
:1004700018C918C0BDE810405FEA827C24BF51F85B
:10048000043B40F8043B08BF7047D20728BF31F84F
:10049000023B48BF11F8012B28BF20F8023B48BFA0
:1004A00000F8012B70474FF000020429C0F01280C1
:1004B00010F0030C00F01B80CCF1040CBCF1020F17
:1004C00018BF00F8012BA8BF20F8022BA1EB0C01EC
:1004D00000F00DB85FEAC17C24BF00F8012B00F8E2
:1004E000012B48BF00F8012B70474FF0000200B508
:1004F000134694469646203922BFA0E80C50A0E847
:100500000C50B1F12001BFF4F7AF090728BFA0E8F4
:100510000C5048BF0CC05DF804EB890028BF40F8C0
:10052000042B08BF704748BF20F8022B11F0804F02
:1005300018BF00F8012B70477047704770470000E4
:1005400000487047A899002470477546FFF7F8FFE8
:10055000AE4605006946534620F00700854618B0B0
:1005600020B5FFF717FFBDE820404FF000064FF021
:1005700000074FF000084FF0000B21F00701AC46D8
:10058000ACE8C009ACE8C009ACE8C009ACE8C009F7
:100590008D46704710B50446AFF300802046BDE895
:1005A0001040FFF7E2BE000001491820ABBEFEE795
:1005B0002600020010B5002405E0012120460AF0C3
:1005C000B3FD601C84B2402CF7DB4FF4E1700AF0FD
:1005D000D9FB10BD70B504464F492068884203D04E
:1005E0004E492068884208D14D48006800F44030E8
:1005F00008B1012009E0002007E04A48006800F443
:10060000403008B1012000E00020B8B104F088FDBE
:1006100005466068B0F5803F06D0B0F5003F04D0D5
:10062000B0F5403F08D105E000BF6068000CB5FBA5
:10063000F0F502E0AD0800E000BF2BE04FF4002031
:10064000002102F0BBFF05466068C0F31101F9B953
:1006500080140C281CD2DFE800F01B060708090AEA
:100660000B111315171900BF00BF00BF00BF00BF5B
:100670006068800C4000B5FBF0F50AE02D0908E049
:100680006D0906E0AD0904E0ED0902E02D0A00E085
:1006900000BF00BF01F0EAFA41F20301884210D81E
:1006A0002148854206D92068806840F4807021681E
:1006B00088602FE02068806820F48070216888605E
:1006C00028E06D081948854206D82068806820F423
:1006D0004070216888601DE01548854208D8206870
:1006E000806820F4407040F480702168886011E0D8
:1006F0001048854208D82068806820F4407040F493
:1007000000702168886005E02068806840F44070CF
:100710002168886070BD0000002002400021024076
:100720000823024008630258002D3101105E5F006B
:1007300020BCBE0040787D0170B50446206805F0FD
:100740005AFF002851D1206880682949084048B1E3
:10075000606D40F010006065A06D40F00100A06584
:10076000012070BD206805F02FFF01F085FA0546D5
:10077000204A2168914203D01F4A2168914201D149
:100780001E4900E01E49084605F02BFF06461A499F
:100790002068884201D1174800E02068216888421B
:1007A00000D00EBB1AE0206805F025FF10B92068C4
:1007B00005F00AFF01F060FA401B02280ED92068FC
:1007C000006800F0010048B9606D40F010006065FD
:1007D000A06D40F00100A0650120C2E7206800681C
:1007E00000F001000028DED000BF0020B9E70000C3
:1007F0003F00008000200240002102400023024010
:100800000063025810B501221021094801F028FAAE
:1008100001222021064801F023FA01224021044848
:1008200001F01EFA01220421014801F019FA10BD5D
:100830000008025800BFFEE70346042B15D007DC72
:100840007BB1012B0ED0022B0DD0032B12D10BE06C
:10085000202B0BD0212B0AD0222B09D0232B09D1FE
:1008600007E008E007E006E005E004E003E002E05E
:1008700001E000E000BF00BF00207047002070478B
:1008800010B500220449054807F0A5F904490348BA
:1008900007F09AF9002010BD948E0024E88500240A
:1008A000AC8A002470B506460D463146134807F061
:1008B0008BF9124807F064F92868402806D2012015
:1008C0000F49087000200F49087002E001200D490F
:1008D0000870002407E0305D0B49096821440B4A89
:1008E0005054601CC4B22868A042F4D80649286855
:1008F0000968084404490860002070BDE8850024A8
:100900001800002417000024080000249403002489
:100910002DE9F04104460D4600260A48D0F8B87289
:10092000D7F8140210B10120BDE8F0812A46214613
:10093000044807F050F9034807F0D1F9064630465D
:10094000F2E70000E885002410B5002208210248E3
:1009500001F086F910BD00000000025810B5012218
:100960000821024801F07CF910BD00000000025887
:1009700030B5C1F3C013224C04EB801404F83230BC
:10098000C1F380131E4C04EB8014012505EBC20556
:100990006355C1F340131A4C04EB8014022505EB98
:1009A000C2056355C1F30013154C04EB80140325F5
:1009B00005EBC2056355C1F3C003114C04EB801471
:1009C000042505EBC2056355C1F380030C4C04EB11
:1009D0008014052505EBC2056355C1F34003084C9F
:1009E00004EB8014062505EBC205635501F00103F5
:1009F000034C04EB8014072505EBC205635530BD9D
:100A0000BA750024704772B600BFFEE710B500202B
:100A10006149087041E000206049087034E0604896
:100A200000F0B6FE4FF6FF715D4800F0FFFD5C4838
:100A300000F040FC5B4908800846008800EE100A80
:100A4000B8EE400ADFED580A60EE200A9FED571A13
:100A500080EE810ADFED560A20EE200ADFED550A0E
:100A600080EE201ABCEEC10A10EE100A4B4909783C
:100A700001EB8101504A1144474A12788854474893
:100A80000078401C45490870444800780428C6DBBB
:100A900041480078401C404908703F4800780528CC
:100AA000B9DB00203D49087061E00120434908702E
:100AB00054E000204249087043E03848007800EBD9
:100AC00080003D4908443E490978415C334800783C
:100AD00000EB8000384A024439480078401C105C22
:100AE000814229DD2D48007800EB8000324908441E
:100AF00033490978405C334908702848007800EB96
:100B000080002D4901442E480078401C085C234990
:100B1000097801EB8101284A1144294A1278885446
:100B2000284801781D48007800EB8000224A0244E2
:100B300023480078401C115421480078401C20496B
:100B400008701E480078C0F104001D4909788842E9
:100B5000B3DA1A480078401C184908701748007822
:100B60000428A6DD0D480078401C0C4908700B488D
:100B70000078042899DB10488078134908700E48E3
:100B8000C079124908700C48007B114908700A4866
:100B9000407C1049087010BD6100002460000024F2
:100BA0005C0200246400002433335340000080457D
:100BB0009A99D0429A998940BA850024620000240B
:100BC0006300002466000024230000242400002485
:100BD000250000242600002470B50A480468001D82
:100BE0000568001D0668344454B1082206492046B1
:100BF00005F07CFC042204491031284605F076FCFF
:100C000070BD000000E8F11F620100242DE9F043EF
:100C100099B004460E464FF00008306800B100BF9E
:100C200000BF94F85000012803D1022019B0BDE89C
:100C3000F083012084F8500000BF0020159016902A
:100C400046492068884202D14548009001E00020D2
:100C50000090009850B9606D40F02000606500BFC2
:100C6000002084F8500000BF0120DFE7009805F065
:100C7000D6FC0746206805F0D2FC002861D1002F81
:100C80005FD136492068884203D0354920688842C0
:100C900001D1344800E034480546306858B3A868AC
:100CA00020F4404071680843A8602C4920688842BD
:100CB00003D02B492068884201D12A4800E02A4805
:100CC0002849884209D1254805F09AFC81462448E4
:100CD00005F096FC49EA000002E0244805F090FC8B
:100CE00070BBB16830680843A96840F61F72914331
:100CF0000843A8602BE0A86820F44040A86017498A
:100D00002068884203D016492068884201D11548DE
:100D100000E015481349884209D1104805F070FCDD
:100D200081460F4805F06CFC49EA000002E00F48DC
:100D300005F066FC20B9A86840F61F718843A860DA
:100D400005E0606D40F0200060654FF0010800BFD5
:100D5000002084F8500000BF404667E700200240B2
:100D60000021024000230240006302580060025844
:100D70002DE9F84F04460D464FF0000A0020009080
:100D800094F83800012800D100E000BFF849E86875
:100D9000884200D00EE0F7492068884200D100BFA9
:100DA000F5492068884200D100BFF4492068884294
:100DB00000D100BF00BF94F85000012802D10220EA
:100DC000BDE8F88F012084F8500000BF206805F0CE
:100DD00021FC00287ED12068C1692868C0F3130077
:100DE00018B92868C0F3846004E0286890FAA0F07D
:100DF000B0FA80F000F01F0201209040014320680B
:100E0000C1612168D5E9002001F1300CC0F3012B4C
:100E10000CEB8B03D3F800C000F01F0E4FF01F0B3C
:100E20000BFA0EFB2CEA0B0C00F01F0BC2F3846EC6
:100E30000EFA0BFE4CEA0E0CC3F800C000BF20688F
:100E400005F0E8FB8146206805F0D0FB8046B9F14B
:100E5000000F6FD1B8F1000FFBD1AA682968206894
:100E600005F0F4FBC648006800F07040B0F1805F08
:100E700007D168692168C968C1F3820149008840C7
:100E800014E02068C06800F0100038B96869216873
:100E9000C968C1F382014900884007E06869216898
:100EA000C96801F01001890849008840074628698F
:100EB000042840D020682A68296900F1600C0CEBF6
:100EC0008103D3F800C00CF0004C02F0F84B4BEA61
:100ED000070B00E0CCE14CEA0B0CC3F800C000BFEC
:100EE00020686A7E2969012A01D1D20700E0002228
:100EF000134600F1600C0CEB8102D2F800C02CF01C
:100F0000004C4CEA030CC2F800C000BF20682B7EE6
:100F10002969012B01D1DB0200E000231A46036995
:100F200023F4F04301F01F0C02FA0CFC43EA0C031B
:100F3000036100BF37E02068006E00F0F8402978B8
:100F4000B0EB816F05D12068006E20F00040216871
:100F500008662068406E00F0F8402978B0EB816F99
:100F600005D12068406E20F0004021684866206866
:100F7000806E00F0F8402978B0EB816F05D12068D1
:100F8000806E20F00040216888662068C06E00F006
:100F9000F8402978B0EB816F05D12068C06E20F051
:100FA00000402168C866206805F025FB002872D142
:100FB0002068EA682968D0F8C030C1F3130C23EA2E
:100FC0000C0302F0180BDFF8BCC12CFA0BFC0CEA86
:100FD000010C43EA0C03C0F8C03000BF6449E86864
:100FE00088427DD12B68C3F313031BB92B68C3F36D
:100FF000846304E02B6893FAA3F3B3FA83F35B1CD6
:1010000003F01F03092B3ED82B68C3F313031BB94E
:101010002B68C3F3846304E02B6893FAA3F3B3FA59
:1010200083F35B1C03F01F034FF0010C0CFA03FC6D
:101030002B68C3F313031BB92B68C3F3846304E069
:101040002B6893FAA3F3B3FA83F35B1C03F01F033B
:101050004CEA836C2B68C3F313031BB92B68C3F3EF
:10106000846304E02B6893FAA3F3B3FA83F35B1C65
:1010700003F01F0303EB43034FF0000B4BEA035352
:101080004CEA030341E02B68C3F3130323B92B6835
:10109000C3F3846305E0A9E02B6893FAA3F3B3FAE2
:1010A00083F35B1C03F01F034FF0010C0CFA03FCED
:1010B0002B68C3F313031BB92B68C3F3846304E0E9
:1010C0002B6893FAA3F3B3FA83F35B1C03F01F03BB
:1010D0004CEA836C2B68C3F313032BB92B6800E035
:1010E00018E0C3F3846304E02B6893FAA3F3B3FA24
:1010F00083F35B1C03F01F030A3B03EB43034FF036
:10110000007B4BEA03534CEA03031946AA682068A4
:1011100005F09CFA286800F00040002866D0154AC7
:101120002168914203D0144A2168914201D11649A5
:1011300000E016490846816801F0E07600BF0D49DD
:101140002068884203D00C492068884201D10E48AB
:1011500000E00E480C4988421AD1064805F04BFAC7
:101160008346054805F047FA4BEA000013E000000B
:101170000000FF47002002400021024000600258AA
:101180000010005CFFFF0F000023024000630258C4
:101190003E4805F030FAE8BB3D492868884226D130
:1011A00006F4000018BB39492068884266D1394BE3
:1011B00022689A4203D0384B22689A4201D1374ABA
:1011C00000E0374A104646F4000105F053FA35486E
:1011D00000683549B0FBF1F0401C4000009002E08F
:1011E0000098401E009000980028F9D146E02F4951
:1011F0002868884219D106F08070B0B92349206868
:1012000088423BD1234B22689A4205D0224B226868
:101210009A4200E025E001D1204A00E0204A104631
:1012200046F0807105F026FA28E0214928688842B6
:1012300024D106F4800008BB1449206888421DD1DF
:10124000144B22689A4203D0134B22689A4201D170
:10125000124A00E0124A104646F4800105F00AFAEC
:101260000CE0606D40F0200060654FF0010A05E081
:10127000606D40F0200060654FF0010A00BF002063
:1012800084F8500000BF50469AE500000060025804
:10129000000084CB002002400021024000230240D5
:1012A00000630258C8010024400D0300000052C72B
:1012B0000000B8CF01460868006C70472DE9F84F70
:1012C00004464FF000090020009014B90120BDE849
:1012D000F88FE06818B1207F012800D100BF606D51
:1012E00030B9204600F030F90020A06584F85000A5
:1012F00020688168C1F3407131B120688168874AF4
:101300001140816000BF00BF206805F07EF9A8B9D8
:1013100020688168824A114041F08051816000BF9D
:10132000804800688049B0FBF1F0401C009002E06A
:101330000098401E009000980028F9D1206805F020
:1013400064F948B9606D40F010006065A06D40F030
:101350000100A0654FF00109206805F05BF9064621
:10136000606D00F0100000287ED1002EFCD1606D71
:1013700020F4807040F002006065206805F03BF9C1
:1013800078BB6A492068884203D06949206888424E
:1013900001D1684800E068486649884209D163483D
:1013A00005F029F98246624805F025F94AEA00006D
:1013B00002E0624805F01FF998B95C4B22689A4236
:1013C00003D05B4B22689A4201D15A4A00E05A4A44
:1013D00010466168826822F47C120A43826000BF72
:1013E00000BF00F043FC41F2030188420ED9A0681F
:1013F00010280BD1607D216B41EA4030A168084381
:1014000040F00C01207F41EA004508E0607D216B3F
:1014100041EA4030A1680843217F40EA0145207F2E
:10142000012803D1208C401E45EA4045606A28B15E
:10143000A08C00F47870A16A084305432068C06856
:101440003F49084028432168C860206805F0E2F859
:101450008046206805F0CAF80746B8F1000F3BD176
:10146000D7BB207DE16A00E050E041EA803520688A
:10147000C06844F20301884328432168C86094F897
:101480003800012817D1606A08B1A06A00B900BF0E
:10149000A08F401E012141EA0041206C0843616C8D
:1014A0000843A16C084321680969264A1140084392
:1014B0002168086105E02068006920F001002168CA
:1014C00008612068006920F07040616B0843216862
:1014D00008612046FFF77EF8E068012809D12068FE
:1014E000006B20F00F00A169491E084321680863C2
:1014F00005E02068006B20F00F0021680863606D34
:1015000020F0020040F00100606505E0606D40F0F1
:10151000100060654FF001094846D8E6C0FFFF5F44
:10152000C0FFFF7FC8010024400D030000200240DF
:10153000002102400023024000630258006002586C
:1015400003C0F0FF1EF800FC10B5B8B0044614212B
:1015500032A8FEF7CAFFC02102A8FEF7C6FF2F4936
:101560002068884257D14FF400210020CDE90210B5
:1015700002200490A02105910821069102210791E3
:1015800008918021099100210A910B9100202B9054
:1015900002A802F06BFC08B1FFF735FA00BF204843
:1015A000006840F020001E4908600846006800F00E
:1015B0002000019000BF00BF00BF1948083000683C
:1015C00040F004001649083108600846006800F041
:1015D0000400019000BF00BF00BF0846006840F053
:1015E000010008600846006800F00100019000BF9B
:1015F00000BF0320329033900020349032A9094874
:1016000000F030FA0320329033900020349032A959
:10161000054800F027FA38B010BD00000020024055
:10162000D844025800080258000002582DE9F0473B
:1016300004460F46524A2168914203D0514A21681C
:10164000914201D1504900E05049084604F0C9FFD9
:1016500005462069082801D1082628E01DB1052D7E
:1016600001D0092D0DD12068C06800F0010030B113
:10167000606D40F0200060650120BDE8F087042621
:1016800015E03F4A2168914203D03E4A21689142C9
:1016900001D13D4900E03D49084604F09DFF28B1D5
:1016A000606D40F0200060650120E6E7042600F050
:1016B000E3FA804617E0781CA8B100F0DDFAA0EB51
:1016C0000800B84200D877B920680068304050B9A7
:1016D000606D40F00400606500BF002084F8500099
:1016E00000BF0320C9E72068006830400028E2D02E
:1016F000606D40F400706065206804F095FF98B15B
:10170000607D88B92068006800F0080008280BD1C7
:10171000606D20F480706065606D00F4805018B9D1
:10172000606D40F00100606516492068884201D173
:10173000134800E020682168884204D01DB1052DBF
:1017400001D0092D03D12068D0F80C9009E00D4993
:101750002068884201D10A4800E020688246DAF811
:101760000C90082E03D108202168086005E009F4D8
:10177000804010B90C202168086000207DE700003F
:101780000020024000210240002302400063025872
:101790002DE9F0410446474A2168914203D0464A68
:1017A0002168914201D1454900E04549084604F0CD
:1017B00018FF0546206804F02DFF002877D100BFF0
:1017C00094F85000012802D10220BDE8F0810120E8
:1017D00084F8500000BF2046FEF7AEFF0646002EFC
:1017E00060D1606D40F60161884340F480706065AF
:1017F00031492068884201D12E4800E020682168E4
:10180000884200D01DB9606D20F480106065606D65
:1018100000F48050B0F5805F04D1A06D20F0060088
:10182000A06501E00020A0651C202168086000BFC1
:10183000002084F8500000BF1F492068884201D171
:101840001C4800E020682168884204D01DB1052DA5
:1018500001D0092D0ED12068C06800F0007028B1B9
:10186000606D20F4005040F480506065206804F002
:10187000E5FE1DE0606D40F4801060650E49206853
:10188000884201D10B4800E020680746F86800F064
:10189000007068B1606D20F4005040F480506065C5
:1018A00006E004E000BF002084F8500000E00226BB
:1018B00030468AE700200240002102400023024017
:1018C0000063025870B5044600F0D6F90646254676
:1018D000681C10B104480078054400BF00F0CCF942
:1018E000801BA842FAD370BDC4010024F0B50C4699
:1018F0000021504B98E001268E4006EA0402002A9F
:101900007ED04D4E8F0856F827508E07370F0F2682
:10191000BE403540494EB04201D100262DE0484E30
:10192000B04201D1012628E0464EB04201D1022644
:1019300023E0454EB04201D103261EE0434EB042A3
:1019400001D1042619E0424EB04201D1052614E02F
:10195000404EB04201D106260FE03F4EB04201D1C9
:1019600007260AE03D4EB04201D1082605E03C4E74
:10197000B04201D1092600E00A268F073F0FBE4082
:10198000AE421FD11E6896431E605E6896435E603D
:101990004FF0B046766896434FF0B0477E603E46C3
:1019A000366896433E608E07370F0F2606FA07F516
:1019B000214E8F0856F82760AE431F4F4FEA910C17
:1019C00047F82C6006684FEA410C032707FA0CF72A
:1019D0003E430660CF0800F1200656F827604F0707
:1019E0004FEAD76C0F2707FA0CF7BE434FEAD10C2A
:1019F00000F1200747F82C60C6684FEA410C00E070
:101A000011E0032707FA0CF7BE43C66047680126BA
:101A10008E40B743476086684FEA410C032707FAB8
:101A20000CF7BE438660491C24FA01F6002E7FF4B1
:101A300062AFF0BD80000058080400580000025852
:101A40000004025800080258000C02580010025806
:101A50000014025800180258001C025800200258B6
:101A600000240258F8B502460B4600216F4DD7E01E
:101A700001278F401E6806EA0704002C72D01E79E9
:101A800006F00306012E04D01E7906F00306022E8E
:101A900013D190684F000326BE40B0434F00DE686C
:101AA000BE4030439060506801268E40B0431E799E
:101AB000C6F300168E40304350601E7906F00306D0
:101AC000032E09D0D0684F000326BE40B0434F001C
:101AD0009E68BE403043D0601E7906F00306022E99
:101AE00013D1CF0802F1200656F827004E07F70E53
:101AF0000F26BE40B0434F07FF0E1E69BE40304365
:101B0000CF0802F1200646F8270010684F00032690
:101B1000BE40B0431E7906F003064F00BE4030437E
:101B200010605E6806F44036002E78D000BF404E4C
:101B3000366846F002063E4F3E603E46366806F086
:101B40000206009600BF00BF3A4E8F0856F82700E5
:101B50008E07370F0F26BE40B043374EB24202D138
:101B600000262EE05BE0354EB24201D1012628E08E
:101B7000334EB24201D1022623E0324EB24201D1AD
:101B800003261EE0304EB24201D1042619E02F4E4A
:101B9000B24201D1052614E02D4EB24201D10626F3
:101BA0000FE02C4EB24201D107260AE02A4EB24283
:101BB00001D1082605E0294EB24201D1092600E0F4
:101BC0000A268F073F0FBE4030431A4E8F0846F853
:101BD00027004FF0B0463068A0435E6806F48016D8
:101BE00006B120434FF0B04630607068A0435E6895
:101BF00006F4001606B120434FF0B04670606868E6
:101C0000A0435E6806F4003606B120436860286889
:101C1000A0435E6806F4803606B120432860491C64
:101C20001E68CE40002E7FF423AFF8BD8000005820
:101C3000F4440258080400580000025800040258F6
:101C400000080258000C02580010025800140258F4
:101C500000180258001C02580020025800240258A4
:101C60000AB1816101E00B0483617047014800689B
:101C7000000C70470010005C0148006870470000CD
:101C8000BC0100240348006803490978084401495D
:101C900008607047BC010024C401002410B5032073
:101CA00000F042F903F074FA10490968C1F3032106
:101CB0000F4A515C01F01F0120FA01F40B48006843
:101CC00000F00F001146085C00F01F0024FA00F03D
:101CD00008490860084804600F2000F00FF808B1B8
:101CE000012010BD00F09AF80020FAE718440258CD
:101CF000ACBA0008CC010024C801002470B5044629
:101D00001148007808B9012070BD0F4800784FF4E1
:101D10007A71B1FBF0F00D490968B1FBF0F5284686
:101D200004F01DFA08B10120EEE7102C07D20022C2
:101D30002146501E00F0BAF80548046001E0012079
:101D4000E2E70020E0E70000C4010024C80100240D
:101D5000C00100244178154A11600178F9B1121DC3
:101D600041681160017B0907C27A41EA0261827A07
:101D700041EAC241427B41EA8241827B41EA4241DF
:101D8000C27B41EA0241427A41EA0221027A41EAF7
:101D9000420102781143054A0832116005E0002132
:101DA000024A121D1160121D1160704798ED00E08B
:101DB00000BF00BF00BFBFF35F8F00BF00BF00BF09
:101DC0000548006820F4803003490860002002497B
:101DD000703108607047000024ED00E040F0010120
:101DE0000D4A11600C497039096841F480310A4A82
:101DF000703A116000BF00BF00BFBFF34F8F00BF3C
:101E000000BF00BF00BF00BF00BFBFF36F8F00BFA8
:101E100000BF00BF7047000094ED00E008B500BFB0
:101E20000648006840F0020004490860084600685F
:101E300000F00200009000BF00BF08BDF44402584B
:101E400010B501460846002817DB00F01F030122E9
:101E50009A400B4B440943F8242000BF00BF00BF49
:101E6000BFF34F8F00BF00BF00BF00BF00BF00BF68
:101E7000BFF36F8F00BF00BF00BF00BF10BD0000E9
:101E800080E100E00146084600280DDB00BF00BFEE
:101E900000F01F0301229A4043099B0003F1E02355
:101EA000C3F8002100BF00BF00BF70472DE9F05FFD
:101EB00080460D46164608F033FF074639462A4647
:101EC000334601F00700C0F1070ABAF1040F02D946
:101ED0004FF0040A01E0C0F1070AD14600F1040AFC
:101EE000BAF1070F02D24FF0000A01E0A0F1030A95
:101EF000D4464FF0010A0AFA09FAAAF1010A0AEADD
:101F0000020A0AFA0CFA4FF0010B0BFA0CFBABF1C8
:101F1000010B0BEA030B4AEA0B042146404608F08A
:101F200007FFBDE8F09F000000BF00F00702064B6E
:101F300019684FF6FF031940044B0B4343EA022193
:101F4000014B196000BF70470CED00E00000FA057E
:101F500000BF00BF00BF00BF00BFBFF34F8F00BF77
:101F600000BF00BF0948006800F4E060084908436A
:101F7000001D0649086000BF00BF00BFBFF34F8FC0
:101F800000BF00BF00BF00BF00BFFDE70CED00E0D9
:101F90000000FA0501460A680120C1F8000500208A
:101FA00081F8F404906940F000609061506D024B3C
:101FB0001843506500207047030000107047024628
:101FC0001068416200207047F0B503461546186856
:101FD000446A21B944EA05401E68B06219E01868F5
:101FE000806A04EB1044002208E0186800F5827053
:101FF00050F8220004EB1044501CC2B2481E90421C
:10200000F3D844EA0547186800F582704E1E40F880
:1020100026700020F0BD10B50446D4F8080506F07F
:1020200074FA10BD70B504460D4605EBC50304F106
:102030003C0101EB8301CA682946D4F8080506F083
:1020400082F970BD70B504460D4605EBC50304F575
:102050001F7101EB8301CA682946D4F8080506F010
:10206000F2F970BD10B504460CB9012010BD032073
:1020700084F8BD04206807F04BFE08B10120F5E7A5
:10208000204600F0CFFD002084F8BD0400BFEDE73E
:1020900010B50446D4F8080506F03AFA10BD2DE94B
:1020A000F04104460D4605F08000802808D105F077
:1020B0000F0000EBC00104F13C0000EB810607E0DB
:1020C00005F00F0000EBC00104F51F7000EB810666
:1020D0003146206807F0FAFB07463846BDE8F08134
:1020E00070B504460E4606F0800080280AD106F03E
:1020F0000F0000EBC00104F13C0000EB8105012062
:10210000687009E006F00F0000EBC00104F51F70D5
:1021100000EB81050020687006F00F00287000BFFA
:1021200094F8BC04012801D1022070BD012084F87C
:10213000BC0400BF2946206806F064FF00BF0020F1
:1021400084F8BC0400BF00BFEFE770B504460E463C
:1021500006F00F006168884201D9012070BD06F0C9
:10216000800080280AD106F00F0000EBC00104F1C6
:102170003C0000EB81050120687009E006F00F00CB
:1021800000EBC00104F51F7000EB810500206870B2
:102190000020A87006F00F00287000BF94F8BC045F
:1021A000012801D10220D9E7012084F8BC0400BF36
:1021B0002946206807F01CF900BF002084F8BC0401
:1021C00000BF00BFCAE7024601F00F0000EBC003EA
:1021D00002F51F7000EB8300406970472DE9F0475E
:1021E00005460E4690461F464FF0000906F0800057
:1021F00080280AD106F00F0000EBC00105F13C0079
:1022000000EB81040120607009E006F00F0000EB94
:10221000C00105F51F7000EB81040020607006F01E
:102220000F002070C4F808802771607808B120780A
:102230006083022F01D10020607100BF95F8BC04BB
:10224000012802D10220BDE8F087012085F8BC04F6
:1022500000BF2146286806F0E1FD00BF002085F898
:10226000BC0400BF4846EEE72DE9F04105460E46A6
:102270001746984606F00F0000EBC00105F51F70E9
:1022800000EB8104E760C4F810800020606160709A
:1022900006F00F002070E868012800D1E7612A7B72
:1022A0002146286807F038F90020BDE8F08170B5B4
:1022B00004460D4605F00F006168884201D90120EF
:1022C00070BD05F0800080280AD105F00F0000EBFA
:1022D000C00104F13C0000EB81060120707007E0B2
:1022E00005EBC50104F51F7000EB8106002070703E
:1022F0000120B07005F00F00307000BF94F8BC04EE
:10230000012801D10220DBE7012084F8BC0400BFD2
:102310003146206807F0B3F805F00F0028B9217B9B
:1023200004F2C442206807F02BF800BF002084F8B4
:10233000BC0400BF00BFC3E72DE9F04105460E46CF
:102340001746984606F00F0000EBC00105F13C006F
:1023500000EB8104E760C4F8108000206061012078
:10236000607006F00F002070E868012800D1E76176
:102370002A7B2146286807F0CFF80020BDE8F081CD
:102380002DE9FE4F0446D4F800B05E46206807F001
:1023900084FB002874D1206807F0BEFB08B9BDE8B3
:1023A000FE8F40F608008059C0F30D20C4F8FC04ED
:1023B000206807F0B1FB00F00200022805D1206878
:1023C000406900F0020021684861206807F0A4FB22
:1023D00000F01000102845D12068806920F010001E
:1023E00021688861DBF8209009F00F0000EBC00144
:1023F00004F51F7000EB810AC9F3434002281AD18B
:1024000047F6F07009EA000030B3C9F30A125846E3
:10241000DAF80C1007F085FBC9F30A11DAF80C00A2
:102420000844CAF80C00C9F30A11DAF81400084489
:10243000CAF8140010E0C9F3434006280CD1082262
:1024400004F2C441584607F06CFBC9F30A11DAF8EC
:1024500014000844CAF814002068806940F0100095
:1024600021688861206807F057FB00F40020B0F570
:10247000002F7BD10025206807F01EFB029072E040
:1024800003E3029800F00100002868D0E9B2206858
:1024900007F035FB804608F0010048B1012106F540
:1024A000306000EB451081602946204604F072FB45
:1024B00008F00800082809D1082106F5306000EB73
:1024C000451081602946204604F032FB08F01000D8
:1024D000102805D1102106F5306000EB4510816011
:1024E00008F00200022824D1DBF8140000F080007C
:1024F000802807D140F60400805940F4806140F6FE
:102500000400815105EBC50104F51F7000EB810A41
:102510009AF80300012806D100208AF80300E9B2E6
:10252000204600F0BDFA022106F5306000EB4510B0
:10253000816008F02000202805D1202106F53060B8
:1025400000EB4510816008F40050B0F5005F06D143
:102550004FF4005106F5306000EB451081606D1CB2
:10256000029840080290029800288AD1206807F05B
:10257000D3FA00F48020B0F5802F7DD1206807F0D9
:1025800091FA029000259AE0029800F001000028DC
:1025900073D0E9B2206807F099FA804608F001008C
:1025A000F0B305F00F0101208840019040F634009F
:1025B0008159019821EA000040F634018851012137
:1025C00006F5106000EB45108160E068012824D119
:1025D00005EBC50104F13C0000EB810005EBC502F1
:1025E000C16804F13C0000EB82008068014405EB07
:1025F000C50204F13C0000EB8200C1606DB905EB3F
:10260000C50104F13C0000EB8100006928B904F227
:10261000C4420121206806F0B3FEE9B2204600E082
:1026200001E0FFF7FFFC08F00800082805D10821A9
:1026300006F5106000EB4510816008F010001028CE
:1026400005D1102106F5106000EB4510816008F0FF
:102650004000402805D1402106F5106000EB4510F0
:10266000816008F0020002281DD12946584607F073
:10267000D5F905EBC50101E025E01CE004F13C00C3
:1026800000EB810A9AF80300012806D100208AF89D
:102690000300E9B2204600F0FAF9022106F51060C5
:1026A00000EB4510816008F08000802803D12946A6
:1026B000204604F011FB6D1C02984008029002981D
:1026C00000287FF461AF206807F026FA00F0004090
:1026D000B0F1004F1CD140F60400805920F00101F8
:1026E00040F60400815194F8F404012807D1002039
:1026F00084F8F40400212046FFF760FC02E0204645
:1027000000F02CFB2068406900F00040216848611F
:10271000206807F001FA00F40060B0F5006F0ED1F8
:1027200040F60800805900F0010010B1204600F08A
:1027300097FB2068406900F40060216848612068C8
:1027400007F0EAF900F00060B0F1006F19D12068DD
:10275000406900F000602168486194F8F40468B9A9
:10276000012084F8F4042068406DC0F38300C4F8AD
:10277000F80401212046FFF721FC02E0204600F08A
:102780006FFB206807F0C8F900F48050B0F5805F57
:102790007ED140F60400805920F0010140F604008B
:1027A00081511021206807F039F9002732E04FF6F7
:1027B0007F3106F5106000EB4710816006F5106070
:1027C00000EB4710006820F4001106F5106000EBE4
:1027D000471001604FF67F3106F5306000EB47107F
:1027E000816006F5306000EB4710006820F40011AE
:1027F00006F5306000EB4710016006F5306000EB35
:102800004710006840F0006106F5306000EB4710AB
:1028100001607F1C6068B842C9D840F61C0080592E
:1028200040F0011140F61C008151206B70B1D6F8C8
:10283000840840F00B01C6F8841840F64400805923
:1028400040F00B0140F6440081510FE040F61400C7
:10285000805942F22B01084340F614018851081FA9
:10286000805940F00B014FF401608151D6F8000807
:1028700020F4FE60C6F80008217B04F2C442206800
:1028800006F07EFD2068406900F48050216800E079
:1028900000E04861206807F03FF900F40050B0F50F
:1028A000005F17D1206806F021FB206807F0E2F8EE
:1028B000206102F035FC0090227C2068009907F02E
:1028C000B3F9204600F032FA2068406900F4005065
:1028D00021684861206807F01FF900F00800082807
:1028E00008D1204600F041FA2068406900F0080055
:1028F00021684861206807F00FF900F08000802807
:1029000018D1DBF8180020F08000CBF81800012562
:102910000DE005EBC50104F51F7000EB8100C078E8
:10292000012803D1E9B22046FFF7B9FB6D1C6068AE
:10293000A842EED8206807F0EFF800F48010B0F558
:10294000801F2DD1012522E006F5106000EB451017
:10295000D0F8009005EBC50104F13C0000EB8100CC
:102960000079012812D109F00040B0F1004F0DD1DB
:10297000012105EBC50204F13C0000EB8200C170AF
:10298000E8B240F080012046FFF789FB6D1C6068CB
:10299000A842D9D82068406900F4801021684861B5
:1029A000206807F0B9F800F40010B0F5001F44D11A
:1029B000012538E006F5306000EB4510D0F80090B6
:1029C00005EBC50104F51F7000EB810000790128BB
:1029D00028D109F00040B0F1004F23D109F4803034
:1029E00094F8FC1401F0010188421BD1012105EB90
:1029F000C50204F51F7000EB8200C170DBF81800FF
:102A000040F08000CBF81800DBF8140000F08000E4
:102A100040B940F60400805940F4007140F60400CB
:102A2000815103E06D1C6068A842C3D800BF2068D4
:102A3000406900F4001021684861206807F06CF8D4
:102A400000F08040B0F1804F08D12046FFF7E3FA54
:102A50002068406900F0804021684861206807F0E4
:102A60005BF800F0040004280FD12068D0F804902F
:102A700009F00400042802D12046FFF709FB206872
:102A8000406840EA09002168486000BF87E470B5EB
:102A900004460D462946D4F8080505F0A1FD70BD91
:102AA00070B504460D462946D4F8080505F09BFD8F
:102AB00070BD70B58AB0044614B901200AB070BD6B
:102AC000266894F8BD0428B9002084F8BC04204688
:102AD00000F0C4F8032084F8BD04F06B00F48070AB
:102AE00008B90021E160206806F042FC282204F1C8
:102AF00010016846FDF7A5FC94E80F0006F00AFAFD
:102B000020B1022084F8BD040120D7E7002120680D
:102B100007F037F8002531E0012105EBC50204F18B
:102B20003C0000EB8200417005EBC50104F13C0064
:102B300000F8215005EBC50100EB81004583002121
:102B400005EBC50204F13C0000EB8200017105EBCE
:102B5000C50204F13C0000EB8200816005EBC50278
:102B600004F13C0000EB8200C16005EBC50204F1FA
:102B70003C0000EB82000161681CC5B26068A8429D
:102B8000CAD800252AE0002105EBC50204F51F7014
:102B900000EB8200417005EBC50104F51F7000F8E1
:102BA0002150002105EBC50200EB8200017105EB0D
:102BB000C50204F51F7000EB8200816005EBC502C1
:102BC00004F51F7000EB8200C16005EBC50204F53F
:102BD0001F7000EB82000161681CC5B26068A842EA
:102BE000D1D8282204F110016846FDF72AFC94E8A8
:102BF0000F0006F0D1FA20B1022084F8BD040120B4
:102C00005CE7002084F83800012084F8BD04606A85
:102C1000012802D12046FFF7BDF9206806F0AAFA84
:102C200000204BE710B504460949206888420DD1C1
:102C30000848006820F00060064908604FF4C05161
:102C40000548FEF753FE6520FFF7FAF810BD0000B7
:102C500000000840D84402580000025810B5B8B02F
:102C60000446142132A8FDF740FCC02102A8FDF75C
:102C70003CFC2B49206888424FD14FF48021002032
:102C8000CDE9021008200C90F0210D9102210E9147
:102C900005210F91022110910021119113918004BF
:102CA000249002A801F0E2F808B1FDF7ACFE00F0B4
:102CB00021F900BF1B48006840F001001949086075
:102CC0000846006800F00100019000BF00BF4FF40B
:102CD000C0503290022033900020349035900A206A
:102CE000369032A91048FEF7BDFE00BF0D480838E7
:102CF000006840F000600B49083908600846006829
:102D000000F00060019000BF00BF00221146652066
:102D1000FFF7CCF86520FFF7B5F838B010BD00001C
:102D200000000840E04402580000025870B5044614
:102D30000125206908B9002506E02069022801D193
:102D4000012501E0FDF75FFE2946D4F8080505F0EE
:102D5000C7FCD4F8080505F079FC70BD10B5044631
:102D6000D4F8080505F0A0FC10BD10B50446D4F851
:102D7000080505F0A4FC10BD70B504460D4600BF63
:102D800094F8BC04012801D1022070BD012084F810
:102D9000BC0400BF84F838502946206806F025FF9F
:102DA00000BF002084F8BC0400BF00BFEDE710B5F1
:102DB000044604F2C441D4F8080505F0A8FC10BD8F
:102DC00070B50446256800BF94F8BC04012801D101
:102DD000022070BD012084F8BC0400BFE86B00F441
:102DE000807030B9A06A012803D1A86B40F480300C
:102DF000A863206806F0E0FD206806F0A9F900BF8E
:102E0000002084F8BC0400BF00BFE2E770B50446B0
:102E1000256800BF94F8BC04012801D1022070BDD0
:102E2000012084F8BC0400BF206806F0A1FA2068E5
:102E300006F0A0F91021206806F0F0FDE86B00F420
:102E4000807030B9A06A012803D1A86B20F48030CB
:102E5000A86300BF002084F8BC0400BF00BFDEE709
:102E600010B50446D4F8080505F0B9FC2068D0F880
:102E7000000E40F001002168C1F8000E206A28B160
:102E80000348006840F006000149086010BD0000DA
:102E900010ED00E070B5044615480068C0F38000EE
:102EA00048B91348006800F00700A04201D0012093
:102EB00070BD0020FCE70E48006820F007002043AA
:102EC0000B490860FEF7D8FE054607E0FEF7D4FE82
:102ED000401BB0F57A7F01D90120E9E704480838A2
:102EE0000068C0F340300028F0D00020E0E7000088
:102EF0000C4802580348006840F08070014908609F
:102F0000704700000C48025810B502F009F9054955
:102F10000968C1F30211044A515C01F01F01C84065
:102F200010BD000020440258ACBA000870B501463C
:102F3000844D2D6805F00303824D2D68C5F30510FF
:102F4000804D2D1D2D6805F001047E4D0C352D683A
:102F5000C5F3CC0515FB04F501EE105AB8EE411A85
:102F6000F0EE410A00286FD023B1012B4ED0022B86
:102F70006BD16BE0734D283D2D68C5F340153DB313
:102F8000704D283D2D68C5F3C1066F4D25FA06F238
:102F900001EE102AF8EE411A01EE100AB8EE411ABD
:102FA00081EE812A9FED691AC0EE811A654D0835C0
:102FB0002D68C5F3080501EE105AB8EE411A31EE3E
:102FC000811AF7EE001A31EE211A22EE010A1CE0F6
:102FD00001EE100AB8EE411ADFED5D1A81EE812A8A
:102FE0009FED5A1AC0EE811A564D08352D68C5F36B
:102FF000080501EE105AB8EE411A31EE811AF7EECB
:10300000001A31EE211A22EE010A5BE001EE100AED
:10301000B8EE411ADFED4F1A81EE812A9FED4B1A6F
:10302000C0EE811A474D08352D68C5F3080501EE3D
:10303000105AB8EE411A31EE811AF7EE001A31EE4D
:10304000211A22EE010A3DE077E01DE001EE100AB0
:10305000B8EE411A9FED402AC2EE011A9FED3B1ACD
:1030600080EE812A374D08352D68C5F3080501EE3D
:10307000105AB8EE411A32EE011AB7EE002A31EEBC
:10308000021A21EE810A1DE001EE100AB8EE411A83
:10309000DFED2F1A81EE812A9FED2C1AC0EE811AE6
:1030A000284D08352D68C5F3080501EE105AB8EE15
:1030B000411A31EE811AF7EE001A31EE211A22EE92
:1030C000010A00BF00BF1F4D08352D68C5F3462516
:1030D00001EE105AB8EE411AF7EE001A31EE211A3D
:1030E000C0EE011ABCEEE11A81ED001A154D08354B
:1030F0002D68C5F3064501EE105AB8EE411AF7EEF9
:10310000001A31EE211AC0EE011ABCEEE11A81ED6F
:10311000011A0C4D08352D68C5F3066501EE105AED
:10312000B8EE411AF7EE001A31EE211AC0EE011A7C
:10313000BCEEE11A81ED021A03E000250D604D603E
:103140008D6070BD284402580090D00300000046F6
:103150000024744C0024744A0024F44A70B50146DB
:10316000844D2D6805F00303824D2D68C5F30530AD
:10317000804D2D1D2D68C5F300147E4D14352D682E
:10318000C5F3CC0515FB04F501EE105AB8EE411A53
:10319000F0EE410A00286FD023B1012B4ED0022B54
:1031A0006BD16BE0734D283D2D68C5F340153DB3E1
:1031B000704D283D2D68C5F3C1066F4D25FA06F206
:1031C00001EE102AF8EE411A01EE100AB8EE411A8B
:1031D00081EE812A9FED691AC0EE811A654D103586
:1031E0002D68C5F3080501EE105AB8EE411A31EE0C
:1031F000811AF7EE001A31EE211A22EE010A1CE0C4
:1032000001EE100AB8EE411ADFED5D1A81EE812A57
:103210009FED5A1AC0EE811A564D10352D68C5F330
:10322000080501EE105AB8EE411A31EE811AF7EE98
:10323000001A31EE211A22EE010A5BE001EE100ABB
:10324000B8EE411ADFED4F1A81EE812A9FED4B1A3D
:10325000C0EE811A474D10352D68C5F3080501EE03
:10326000105AB8EE411A31EE811AF7EE001A31EE1B
:10327000211A22EE010A3DE077E01DE001EE100A7E
:10328000B8EE411A9FED402AC2EE011A9FED3B1A9B
:1032900080EE812A374D10352D68C5F3080501EE03
:1032A000105AB8EE411A32EE011AB7EE002A31EE8A
:1032B000021A21EE810A1DE001EE100AB8EE411A51
:1032C000DFED301A81EE812A9FED2C1AC0EE811AB3
:1032D000284D10352D68C5F3080501EE105AB8EEDB
:1032E000411A31EE811AF7EE001A31EE211A22EE60
:1032F000010A00BF00BF1F4D10352D68C5F34625DC
:1033000001EE105AB8EE411AF7EE001A31EE211A0A
:10331000C0EE011ABCEEE11A81ED001A154D103510
:103320002D68C5F3064501EE105AB8EE411AF7EEC6
:10333000001A31EE211AC0EE011ABCEEE11A81ED3D
:10334000011A0C4D10352D68C5F3066501EE105AB3
:10335000B8EE411AF7EE001A31EE211AC0EE011A4A
:10336000BCEEE11A81ED021A03E000250D604D600C
:103370008D6070BD284402580090D00300000046C4
:103380000024744C0024744A0024F44A70B50146A9
:10339000844D2D6805F00303824D2D68C5F305505B
:1033A000804D2D1D2D68C5F300247E4D1C352D68E4
:1033B000C5F3CC0515FB04F501EE105AB8EE411A21
:1033C000F0EE410A00286FD023B1012B4ED0022B22
:1033D0006BD16BE0734D283D2D68C5F340153DB3AF
:1033E000704D283D2D68C5F3C1066F4D25FA06F2D4
:1033F00001EE102AF8EE411A01EE100AB8EE411A59
:1034000081EE812A9FED691AC0EE811A654D18354B
:103410002D68C5F3080501EE105AB8EE411A31EED9
:10342000811AF7EE001A31EE211A22EE010A1CE091
:1034300001EE100AB8EE411ADFED5D1A81EE812A25
:103440009FED5A1AC0EE811A564D18352D68C5F3F6
:10345000080501EE105AB8EE411A31EE811AF7EE66
:10346000001A31EE211A22EE010A5BE001EE100A89
:10347000B8EE411ADFED4F1A81EE812A9FED4B1A0B
:10348000C0EE811A474D18352D68C5F3080501EEC9
:10349000105AB8EE411A31EE811AF7EE001A31EEE9
:1034A000211A22EE010A3DE077E01DE001EE100A4C
:1034B000B8EE411A9FED402AC2EE011A9FED3B1A69
:1034C00080EE812A374D18352D68C5F3080501EEC9
:1034D000105AB8EE411A32EE011AB7EE002A31EE58
:1034E000021A21EE810A1DE001EE100AB8EE411A1F
:1034F000DFED301A81EE812A9FED2C1AC0EE811A81
:10350000284D18352D68C5F3080501EE105AB8EEA0
:10351000411A31EE811AF7EE001A31EE211A22EE2D
:10352000010A00BF00BF1F4D18352D68C5F34625A1
:1035300001EE105AB8EE411AF7EE001A31EE211AD8
:10354000C0EE011ABCEEE11A81ED001A154D1835D6
:103550002D68C5F3064501EE105AB8EE411AF7EE94
:10356000001A31EE211AC0EE011ABCEEE11A81ED0B
:10357000011A0C4D18352D68C5F3066501EE105A79
:10358000B8EE411AF7EE001A31EE211AC0EE011A18
:10359000BCEEE11A81ED021A03E000250D604D60DA
:1035A0008D6070BD284402580090D0030000004692
:1035B0000024744C0024744A0024F44A2DE9F0439A
:1035C00089B006460F464FF4807186EA0100384301
:1035D00070D1F748006800F00709B9F1050F65D20E
:1035E000DFE809F0031221623000F148503800682A
:1035F00000F00070B0F1007F04D106A8FFF796FC40
:10360000079C00E0002453E0E9485038006800F0CF
:103610000060B0F1006F04D103A8FFF79FFD039C89
:1036200000E0002444E0E2485038006800F0005018
:10363000B0F1005F04D16846FFF7A8FE009C00E0EF
:10364000002435E0DA48001F006800F04055D848F3
:103650005038006800F00400042809D145B9D44866
:1036600050380068C0F3C101D24820FA01F41AE0D2
:10367000CF485038006800F48070B0F5807F04D1E6
:10368000B5F1805F01D1CC4C0DE0C94850380068DD
:1036900000F40030B0F5003F04D1B5F1005F01D176
:1036A000C64C00E0002403E0C54C01E0002400BF4C
:1036B000D4E3FFE74FF4007186EA010038437AD182
:1036C000BB48006800F4E079B9F1800F2CD006DC2B
:1036D000B9F1000F0AD0B9F1400F69D115E0B9F185
:1036E000C00F63D0B9F5807F62D12CE0B04850386C
:1036F000006800F00070B0F1007F04D106A8FFF769
:1037000015FC079C00E0002454E0A94850380068EC
:1037100000F00060B0F1006F04D103A8FFF71EFDB8
:10372000039C00E0002445E0A1485038006800F008
:103730000050B0F1005F04D16846FFF727FE009CFF
:1037400000E0002436E09A48001F006800F0405571
:1037500097485038006800F00400042809D145B9A2
:10376000934850380068C0F3C101924820FA01F430
:103770001BE08F485038006800F48070B0F5807FFF
:1037800004D1B5F1805F01D18B4C0EE088485038F0
:10379000006800F40030B0F5003F05D1B5F1005FDE
:1037A00002D1864C01E006E0002403E0844C01E0F5
:1037B000002400BF52E34FF4806186EA01003843E1
:1037C0007BD17B480830006800F46009B9F5800FB0
:1037D0002CD006DCB9F1000F0AD0B9F5001F69D171
:1037E00015E0B9F5C00F63D0B9F5000F62D12CE038
:1037F0006F485038006800F00070B0F1007F04D1CD
:1038000006A8FFF793FB079C00E0002454E06848FB
:103810005038006800F00060B0F1006F04D103A8D8
:10382000FFF79CFC039C00E0002445E06048503812
:10383000006800F00050B0F1005F04D16846FFF767
:10384000A5FD009C00E0002436E05948001F0068F8
:1038500000F0405556485038006800F00400042835
:1038600009D145B9524850380068C0F3C1015148E8
:1038700020FA01F41BE04E485038006800F48070D4
:10388000B0F5807F04D1B5F1805F01D14A4C0EE0E4
:1038900047485038006800F40030B0F5003F05D1CB
:1038A000B5F1005F02D1454C01E006E0002403E0E1
:1038B000434C01E0002400BFD0E24FF4006186EAEF
:1038C0000100384373D13A480830006800F0E069DD
:1038D000B9F1007F2CD006DCB9F1000F0AD0B9F1A4
:1038E000807F75D115E0B9F1407F6FD0B9F1806F5D
:1038F0006ED12CE02E485038006800F00070B0F116
:10390000007F04D106A8FFF711FB079C00E000240C
:1039100060E027485038006800F00060B0F1006FA8
:1039200004D103A8FFF71AFC039C00E0002451E037
:103930001F485038006800F00050B0F1005F04D11B
:103940006846FFF723FD009C00E0002442E0184891
:10395000001F006800F0405515485038006800F01E
:103960000400042809D145B9114850380068C0F353
:10397000C101104820FA01F427E00D4850380068D2
:1039800000F48070B0F5807F04D1B5F1805F01D183
:10399000094C1AE006485038006800F40030B0F5D1
:1039A000003F11D1B5F1005F0ED1044C0DE012E0E3
:1039B000504402580090D00300093D0000127A00E4
:1039C0000080BB0004E001E0002403E0F74C01E0CC
:1039D000002400BF42E24FF4805186EA01003843E0
:1039E0007AD1F348006800F4E048B8F5005F2CD0C5
:1039F00006DCB8F1000F0AD0B8F5805F69D115E098
:103A0000B8F5405F63D0B8F5804F62D12CE0E8484C
:103A10005038006800F00070B0F1007F04D106A8B3
:103A2000FFF784FA079C00E0002454E0E048503897
:103A3000006800F00060B0F1006F04D103A8FFF748
:103A40008DFB039C00E0002445E0D9485038006815
:103A500000F00050B0F1005F04D16846FFF796FC1B
:103A6000009C00E0002436E0D148001F006800F010
:103A70004055CF485038006800F00400042809D1B0
:103A800045B9CB4850380068C0F3C101C94820FA95
:103A900001F41BE0C6485038006800F48070B0F5AF
:103AA000807F04D1B5F1805F01D1C34C0EE0C048E6
:103AB0005038006800F40030B0F5003F05D1B5F192
:103AC000005F02D1BD4C01E006E0002403E0B74CEA
:103AD00001E0002400BFC1E14FF4005186EA01007B
:103AE000384367D1B248006800F4E028B8F5403F99
:103AF00033D009DCB8F1000F0DD0B8F5803F0ED0FF
:103B0000B8F5003F53D119E0B8F5802F37D0B8F59C
:103B1000A02F4CD13FE001F029FB044649E0A44826
:103B20005038006800F00060B0F1006F04D103A8C5
:103B3000FFF714FB049C00E000243AE09C48503856
:103B4000006800F00050B0F1005F04D16846FFF754
:103B50001DFC019C00E000242BE0954850380068D3
:103B600000F00400042808D1914850380068C0F3E0
:103B7000C101904820FA01F400E0002419E08C48CB
:103B80005038006800F48070B0F5807F01D18A4C15
:103B900000E000240DE086485038006800F4003052
:103BA000B0F5003F01D1854C00E0002401E0002485
:103BB00000BF53E14FF4002186EA0100384361D190
:103BC0007B480830006800F44038B8F1000F06D098
:103BD000B8F5803F12D0B8F5003F50D11DE07448D1
:103BE0005038006800F00060B0F1006F04D103A805
:103BF000FFF7B4FA039C00E0002442E06C48503820
:103C0000006800F00050B0F1005F04D16846FFF793
:103C1000BDFB029C00E0002433E06548001F006803
:103C200000F0405562485038006800F00400042855
:103C300009D145B95E4850380068C0F3C1015D48FC
:103C400020FA01F41AE05A485038006800F48070F5
:103C5000B0F5807F04D1B5F1805F01D1564C0DE005
:103C600053485038006800F40030B0F5003F04D1EC
:103C7000B5F1005F01D1514C00E0002401E00024C7
:103C800000BFEBE04FF4803186EA010038432CD1CD
:103C90004748001F006800F48038B8F1000F03D0D7
:103CA000B8F5803F1ED10EE041485038006800F062
:103CB0000070B0F1007F04D106A8FFF737F9079C28
:103CC00000E0002410E03A485038006800F000603E
:103CD000B0F1006F04D103A8FFF740FA059C00E0A3
:103CE000002401E0002400BFB8E04FF4804186EAE0
:103CF0000100384372D12E480830006800F0E048D7
:103D0000B8F1405F33D009DCB8F1000F0DD0B8F145
:103D1000805F0ED0B8F1005F5DD119E0B8F1804F3F
:103D200037D0B8F1A04F56D14AE0FFF7EDF804467E
:103D300053E01F485038006800F00060B0F1006F99
:103D400004D103A8FFF70AFA049C00E0002444E031
:103D500017485038006800F00050B0F1005F04D1FF
:103D60006846FFF713FB019C00E0002435E0104893
:103D70005038006800F00400042808D10C4850387E
:103D80000068C0F3C1010B4820FA01F400E00024F0
:103D900023E007485038006800F48070B0F5807F59
:103DA00001D1054C00E0002417E017E00080BB00C3
:103DB000504402580090D00300093D0000127A00E0
:103DC0002848006800F40030B0F5003F01D1264CCF
:103DD00000E0002401E0002400BF3FE04FF4004178
:103DE00086EA0100384338D11E485030006800F0A0
:103DF0004058B8F1000F06D0B8F1805F0ED0B8F18E
:103E0000005F27D118E01748006800F40030B0F5D3
:103E1000003F01D1144C00E000241DE0114800686F
:103E200000F00070B0F1007F04D106A8FFF77EF823
:103E3000079C00E000240FE00A48006800F00060E2
:103E4000B0F1006F04D103A8FFF788F9049C00E0EB
:103E5000002401E0002400BF00E00024204609B057
:103E6000BDE8F0830044025800127A002DE9F041C9
:103E700004460025A8464FF00062D4E90010114026
:103E80000020134659404040014331D1A06E48B153
:103E9000B0F5801F0DD0B0F5001F11D0B0F5401F58
:103EA00016D114E0F948006840F40030F749086082
:103EB00010E0022104F1080003F014F8054609E0BF
:103EC000022104F1280003F0BFF8054602E001E0FA
:103ED000012500BF00BF55B9EC482430006820F42C
:103EE0004010A16E0843E9492431086000E0A8466B
:103EF0004FF48073D4E9001019400020594040402D
:103F000001432ED1A06D05281BD2DFE800F0030A83
:103F100011181900DD48006840F40030DB490860E2
:103F200011E0002104F1080002F0DCFF05460AE080
:103F3000002104F1280003F087F8054603E002E0C1
:103F400001E0012500BF00BF55B9D048243000680A
:103F500020F00700A16D0843CC492431086000E03F
:103F6000A8464FF40073D4E90010194000205940CE
:103F70004040014334D1E06D802818D003DC40B1CB
:103F800040281DD10CE0C02818D0B0F5807F17D193
:103F900015E0BE48006840F40030BC49086011E0FC
:103FA000002104F1080002F09DFF05460AE000210F
:103FB00004F1280003F048F8054603E002E001E0C0
:103FC000012500BF00BF55B9B0482430006820F477
:103FD000E070E16D0843AD492431086000E0A84677
:103FE0004FF48063D4E9001019400020594040404C
:103FF000014339D1D4F8A800B0F5800F1AD004DC01
:1040000050B1B0F5001F1ED10DE0B0F5C00F18D0B3
:10401000B0F5000F17D115E09C48006840F400305F
:104020009A49086011E0002104F1080002F05AFFEB
:1040300005460AE0002104F1280003F005F80546D2
:1040400003E002E001E0012500BF00BF5DB98F4839
:104050002C30006820F46000D4F8A81008438B4985
:104060002C31086000E0A8464FF40062D4E900104B
:1040700011400020134659404040014339D1D4F843
:10408000AC00B0F1007F1AD004DC50B1B0F1807FF9
:104090001ED10DE0B0F1407F18D0B0F1806F17D184
:1040A00015E07A48006840F400307849086011E073
:1040B000002104F1080002F015FF05460AE0002186
:1040C00004F1280002F0C0FF054603E002E001E031
:1040D000012500BF00BF5DB96C482C30006820F09E
:1040E000E060D4F8AC10084368492C31086000E067
:1040F000A8464FF00073D4E9000118400021584051
:104100004940084328D1E06CA8B1102804D02028E9
:1041100009D0302810D10DE05C48006840F4003030
:104120005A4908600AE0022104F1080002F0DAFEB0
:10413000054603E002E001E0012500BF00BF55B9DC
:1041400052482030006820F03000E16C08434F49AD
:104150002031086000E0A8464FF48053D4E90010F5
:104160001940002059404040014337D1206EB0F53E
:10417000005F1AD004DC50B1B0F5805F1ED10DE0B5
:10418000B0F5405F18D0B0F5804F17D115E03F482B
:10419000006840F400303D49086011E0002104F15E
:1041A000080002F09FFE05460AE0002104F1280005
:1041B00002F04AFF054603E002E001E0012500BFEE
:1041C00000BF55B931482430006820F4E040216E2A
:1041D00008432E492431086000E0A8464FF40053FC
:1041E000D4E900101940002059404040014335D126
:1041F000606EB0F5403F1ED007DC68B1B0F5803F7F
:104200000BD0B0F5003F19D10EE0B0F5802F13D0E0
:10421000B0F5A02F12D110E012E0012104F1080046
:1042200002F060FE05460BE0012104F1280002F0D7
:104230000BFF054604E003E002E001E0012500BFBA
:1042400000BF55B911482430006820F4E020616EA9
:1042500008430E492431086000E0A8464FF480432B
:10426000D4E900011840002158404940084337D1A3
:10427000D4F8B000B0F1405F20D009DC78B1B0F1E3
:10428000805F0DD0B0F1005F1BD110E02C440258CC
:10429000B0F1804F13D0B0F1A04F12D110E012E076
:1042A000012104F1080002F01DFE05460BE001218A
:1042B00004F1280002F0C8FE054604E003E002E035
:1042C00001E0012500BF00BF4DB9FE48006820F0A5
:1042D000E040D4F8B0100843FA49086000E0A8466E
:1042E0004FF40042D4E90010114000201346594019
:1042F0004040014329D1206FB0B1B0F1805F03D0BD
:10430000B0F1005F11D108E0EE482C38006840F4AD
:104310000030EC492C39086009E0012104F1080063
:1043200002F0E0FD054602E001E0012500BF00BF0C
:1043300055B9E4480838006820F04050216F084320
:10434000E0490839086000E0A8464FF08072D4E9DF
:1043500000101140002013465940404001432AD12B
:10436000A06CB8B1012804D002280BD0032812D1C8
:104370000FE0D4482C38006840F40030D1492C3983
:1043800008600AE0022104F1080002F0ABFD0546D6
:1043900003E002E001E0012500BF00BF55B9C948B4
:1043A0000C38006820F00300A16C0843C5490C39A3
:1043B000086000E0A8464FF48002D4E900011040F4
:1043C000002113465840494008437DD1BE4800684B
:1043D00040F48070BC490860FDF74EFC064606E0DC
:1043E000FDF74AFC801B642801D9032505E0B64887
:1043F000006800F480700028F2D000BF85BBB1488F
:104400001830006800F44070B4F8B41001F4407142
:10441000884213D0AB481830006820F44077A94890
:104420001830006840F48030A6491831086008460A
:10443000006820F48030086008460760D4F8B400B3
:10444000B0F5807F15D1FDF717FC064609E0FDF7B2
:1044500013FC801B41F28831884202D9032507E012
:1044600038E0984818300068C0F340000028EED0CB
:1044700000BF55BB00BFB4F8B40000F44070B0F505
:10448000407F0ED18F484838006820F47C518F4A15
:10449000D4F8B400104041EA10108A494839086045
:1044A00007E088484838006820F47C50854948393E
:1044B0000860844818300068B4F8B410C1F30B01E8
:1044C00008438049183101E005E001E0086002E09E
:1044D000A84600E0A8460122D4E9000110400021CE
:1044E000134658404940084330D1E06F18281AD08D
:1044F00005DC48B1082808D0102817D10CE0202886
:1045000012D0282812D110E012E0012104F1080095
:1045100002F0E8FC05460BE0012104F1280002F05E
:1045200093FD054604E003E002E001E0012500BF41
:1045300000BF55B96348001F006820F03800E16FE4
:1045400008436049091F086000E0A8460222D4E938
:10455000000110400021134658404940084329D12A
:10456000A06F062816D2DFE800F003040B12131424
:1045700012E0012104F1080002F0B4FC05460BE052
:10458000012104F1280002F05FFD054604E003E08C
:1045900002E001E0012500BF00BF55B94948001FF6
:1045A000006820F00700A16F08434649091F086012
:1045B00000E0A8460423D4E9001019400020594027
:1045C0004040014329D1D4F89400062816D2DFE8F0
:1045D00000F003040B12131412E0012104F108008F
:1045E00002F080FC05460BE0012104F1280002F0F6
:1045F0002BFD054604E003E002E001E0012500BFD9
:1046000000BF4DB92F48006820F00700D4F894107F
:1046100008432C49086000E0A8462023D4E90001A3
:104620001840002158404940084337D1D4F8900041
:10463000B0F1405F1ED007DC68B1B0F1805F0BD0F5
:10464000B0F1005F19D10EE0B0F1804F13D0B0F19E
:10465000A04F12D110E012E0002104F1080002F096
:1046600041FC05460BE0022104F1280002F0ECFCBD
:10467000054604E003E002E001E0012500BF00BFC1
:104680005DB91048001F006820F0E040D4F8901099
:1046900008430C49091F086000E0A8464023D4E9FC
:1046A0000010194000205940404001433CD1D4F84B
:1046B0009C00B0F5406F25D00EDCA0B1B0F5806F46
:1046C00012D005E05844025800480258FFFCFF0F82
:1046D000B0F5006F19D10EE0B0F5805F13D0B0F5E2
:1046E000A05F12D110E012E0002104F1080002F0F6
:1046F000F9FB05460BE0022104F1280002F0A4FCBE
:10470000054604E003E002E001E0012500BF00BF30
:104710004DB9FE48006820F4E050D4F89C100843DE
:10472000FA49086000E0A8468023D4E90010194047
:10473000002059404040014335D1D4F8A000B0F5E5
:10474000C04F1ED007DC68B1B0F5005F0BD0B0F5EC
:10475000804F19D10EE0B0F5004F13D0B0F5204FC7
:1047600012D110E012E0002104F1080002F0BAFBBF
:1047700005460BE0022104F1280002F065FC054625
:1047800004E003E002E001E0012500BF00BF4DB9F5
:10479000DE48006820F46040D4F8A0100843DB49EC
:1047A000086000E0A8460823D4E900101940002062
:1047B00059404040014317D1D4F88400B0F5805FE0
:1047C00007D1022104F1280002F03EFC08B14FF0AD
:1047D0000108CE48001F006820F44050D4F884102F
:1047E0000843CA49091F08601023D4E90010194082
:1047F000002059404040014315D1D4F89800B0F54D
:10480000807F07D1022104F1280002F01DFC08B1CD
:104810004FF00108BD48006820F44070D4F89810AB
:104820000843BA4908604FF40022D4E9000110405F
:104830000021134658404940084327D1D4F8A4002A
:1048400030B1B0F5803F0AD0B0F5003F0FD10DE098
:10485000002104F1080002F045FB054609E00221B1
:1048600004F1280002F0F0FB054602E001E001251A
:1048700000BF00BF4DB9A548006820F44030D4F80F
:10488000A4100843A149086000E0A8464FF4802323
:10489000D4E90001184000215840494008432DD177
:1048A000D4F88800B0F5801F06D0B0F5001F0CD0FA
:1048B000B0F5401F11D10FE094482C38006840F447
:1048C000003092492C39086009E0012104F12800E8
:1048D00002F0BAFB054602E001E0012500BF00BF7F
:1048E0005DB98A48001F006820F44010D4F8881091
:1048F00008438649091F086000E0A8464FF480324B
:10490000D4E90001104000211346584049400843B3
:1049100025D1206D18B1B0F5803F10D108E07B485B
:104920002C38006840F4003078492C39086008E0E1
:10493000022104F1080002F0D5FA054601E0012544
:1049400000BF00BF55B971480C38006820F48030B2
:10495000216D08436D490C39086000E0A8464FF00E
:104960000052D4E900101140002013465940404045
:10497000014307D1022104F1280002F065FB08B1D0
:104980004FF001084FF40033D4E900011840002132
:1049900058404940084329D1D4F88000A0B1B0F56F
:1049A000807F06D0B0F5007F0CD0B0F5407F0CD1F1
:1049B00009E056482C38006840F4003053492C393F
:1049C000086004E003E002E001E0012500BF00BF51
:1049D0005DB94E48001F006820F44070D4F8801084
:1049E00008434A49091F086000E0A8464FF48012B6
:1049F000D4E90010114000201346594040400143C3
:104A000009D142480838006820F00040616F08432F
:104A10003E49083908604FF08052D4E90010114037
:104A2000002013465940404001430AD137484838D6
:104A3000006820F48040D4F8B8100843334948395E
:104A400008604FF40012D4E9001011400020134612
:104A500059404040014309D12C480838006820F0F3
:104A60008070E16E08432949083908604FF08042A0
:104A7000D4E9001011400020134659404040014342
:104A800011D100BF21484838006820F400401F4978
:104A90004839086008460068D4F8BC1008431B4930
:104AA0004839086000BF4FF00042D4E900101140BF
:104AB0000020134659404040014309D113480C38A7
:104AC000006820F04050616D084310490C390860BF
:104AD0004FF40002D4E90010114000201346594061
:104AE000404001430AD10948001F006820F44000FB
:104AF000D4F88C1008430549091F086001230021E0
:104B00006068184001224940504001E05844025872
:104B1000014306D104F1080002F0E4F9054605B1AD
:104B2000A8460222002160681040494050400143DD
:104B300007D1012104F1080002F0D4F9054605B1BE
:104B4000A8460423002061681940042240405140D7
:104B5000084307D1022104F1080002F0C3F9054619
:104B600005B1A84608230021606818400822494082
:104B70005040014306D104F1280002F065FA0546D1
:104B800005B1A846102200216068104049405040FD
:104B9000014307D1012104F1280002F055FA05462E
:104BA00005B1A846202200206168114040405140D4
:104BB000084307D1022104F1280002F045FA054616
:104BC00005B1A846B8F1000F02D10020BDE8F08180
:104BD0000120FBE72DE9F04104460D4614B9012000
:104BE000BDE8F081BD48006800F00F00A8420ED279
:104BF000BA48006820F00F002843B849086008460A
:104C0000006800F00F00A84201D00120E8E72078FA
:104C100000F0040004280ED1B1492069096801F0B0
:104C20007001884207D9AE48006820F07000216901
:104C30000843AB490860207800F00800082811D12B
:104C4000A749091D6069096801F07001884209D906
:104C5000A348001D006820F0700061690843A04966
:104C6000091D0860207800F01000102811D19C491F
:104C7000091DA069096801F4E061884209D99848D2
:104C8000001D006820F4E060A16908439449091DF3
:104C90000860207800F02000202811D190490831C8
:104CA000E069096801F07001884209D98C48083030
:104CB000006820F07000E169084389490831086004
:104CC000207800F0020002280ED18549E0680968CA
:104CD00001F00F01884207D98148006820F00F00D9
:104CE000E16808437E490860207800F00100002850
:104CF00050D07B48006820F47060A1680843784970
:104D000008606068022807D1754818380068C0F349
:104D10004040F8B9012063E76068032807D1704874
:104D200018380068C0F34060A0B9012058E76068F7
:104D3000012807D16A4818380068C0F3002048B934
:104D400001204DE7664818380068C0F3800008B9B4
:104D5000012045E762480838006820F007006168D4
:104D600008435F4908390860FCF786FF064608E0FB
:104D7000FCF782FF801B41F28831884201D9032071
:104D80002EE757480838006800F038006168B0EB3B
:104D9000C10FEDD1207800F0020002280ED1504959
:104DA000E068096801F00F01884207D24C480068AA
:104DB00020F00F00E168084349490860474800684F
:104DC00000F00F00A8420ED94448006820F00F0000
:104DD0002843424908600846006800F00F00A842D6
:104DE00001D00120FCE6207800F0040004280ED158
:104DF0003B492069096801F07001884207D23848B0
:104E0000006820F070002169084335490860207867
:104E100000F00800082811D13149091D60690968AE
:104E200001F07001884209D22D48001D006820F071
:104E30007000616908432A49091D0860207800F064
:104E40001000102811D12649091DA069096801F434
:104E5000E061884209D22248001D006820F4E06029
:104E6000A16908431E49091D0860207800F0200050
:104E7000202811D11A490831E069096801F0700150
:104E8000884209D216480830006820F07000E169B5
:104E9000084313490831086000F07AF9104909689D
:104EA000C1F303210F4A515C01F01F0120FA01F701
:104EB0000B48006800F00F001146085C00F01F006E
:104EC00027FA00F0084908600848076008480068A9
:104ED000FCF714FF8046404682E6000000200052A6
:104EE00018440258ACBA0008CC010024C8010024C0
:104EF000C001002410B58048006800F00F000728AA
:104F00000ED27D48006820F00F00C01D7A4908606D
:104F10000846006800F00F00072801D0012010BDEE
:104F2000FCF7AAFE04467548006840F0010073498A
:104F3000086006E0FCF7A0FE001B022801D9032050
:104F4000EDE76E48006800F004000028F2D06B48DE
:104F5000001D006840F080406849091D086000207D
:104F6000664910310860664866490860664908600D
:104F700066480068FCF7C2FE08B10120CFE7FCF7E5
:104F80007BFE044608E0FCF777FE001B41F2883107
:104F9000884201D90320C2E758481030006800F069
:104FA00038000028EFD1FCF767FE0446534800683C
:104FB000574908405149086006E0FCF75DFE001BB8
:104FC000642801D90320AAE74C48006800F40030A7
:104FD0000028F2D1FCF750FE04464848006820F053
:104FE00080704649086006E0FCF746FE001B022878
:104FF00001D9032093E74148006800F000700028C1
:10500000F2D1FCF739FE04463C48006820F080608D
:105010003A49086006E0FCF72FFE001B022801D980
:1050200003207CE73548006800F000600028F2D1DA
:10503000FCF722FE04463148006820F080502F49DA
:10504000086006E0FCF718FE001B022801D90320C7
:1050500065E72A48006800F000500028F2D127498F
:1050600018310860091D0860091D08602948234996
:10507000283108602848091D08602848091D086073
:105080000020091D08602548091D08600020091D31
:1050900008602248091D08600020091D08601748A3
:1050A000006820F480201549086000201349603111
:1050B0000860401E1149683108601048D03000680F
:1050C00040F480300D49D03108600B48006800F092
:1050D0000F0007280ED90848006820F00F00C01DF7
:1050E000054908600846006800F00F00072801D055
:1050F000012014E7002012E700200052004402586B
:105100000090D003C8010024CC010024C001002479
:1051100045EDF6FF000202020000FF0180020101DE
:1051200010B500F035F80D490968C1F303210C4AA8
:10513000515C01F01F0120FA01F40848006800F0FA
:105140000F001146085C00F01F0024FA00F005492A
:105150000860054804600846006810BD18440258FD
:10516000ACBA0008CC010024C801002400B5FFF748
:10517000D7FF05490968C1F30211044A515C01F0E7
:105180001F01C84000BD00001C440258ACBA000812
:10519000F0B5824E366806F0380636B1082E15D0C6
:1051A000102E15D0182E7DD114E07C4E103E36689E
:1051B000C6F3401646B1794E103E3668C6F3C107B5
:1051C000774E26FA07F000E07548E5E07548E3E021
:1051D0007548E1E0714E1836366806F003046F4EEC
:1051E00018363668C6F305116C4E1C36366806F064
:1051F00001056A4E24363668C6F3CC0616FB05F662
:1052000001EE106AB8EE410A002971D024B1012CD8
:1052100050D0022C6DD16DE0604E103E3668C6F362
:1052200040163EB35D4E103E3668C6F3C1075C4E75
:1052300026FA07F301EE103AF8EE411A01EE101AC1
:10524000B8EE411A81EE812A9FED581AC0EE011A7C
:10525000524E20363668C6F3080601EE106AB8EEE4
:10526000411A31EE811AF7EE001A31EE211A62EE80
:10527000010A1EE001EE101AB8EE411ADFED4C1AD9
:1052800081EE812A9FED491AC0EE011A434E203665
:105290003668C6F3080601EE106AB8EE411A31EE20
:1052A000811A00E076E0F7EE001A31EE211A62EE84
:1052B000010A5BE001EE101AB8EE411A9FED3D2A9B
:1052C000C2EE011A9FED391A80EE012A334E2036C4
:1052D0003668C6F3080601EE106AB8EE411A32EEDF
:1052E000011AB7EE002A31EE021A61EE810A3DE0A2
:1052F0004EE01DE001EE101AB8EE411ADFED2E1A55
:1053000081EE812A9FED291AC0EE011A234E203624
:105310003668C6F3080601EE106AB8EE411A31EE9F
:10532000811AF7EE001A31EE211A62EE010A1DE031
:1053300001EE101AB8EE411A9FED1E2AC2EE011AB4
:105340009FED1A1A80EE012A144E20363668C6F3F5
:10535000080601EE106AB8EE411A32EE011AB7EEF5
:10536000002A31EE021A61EE810A00BF00BF0B4E27
:1053700020363668C6F34626721C01EE102AB8EEB7
:10538000411AC0EE811ABCEEE11A11EE100A00E0DB
:10539000002001E0034800BF00BFF0BD10440258E8
:1053A0000090D00300093D0000127A000000004682
:1053B0000024744C0024744A0024F44A2DE9F04778
:1053C000044614B90120BDE8F087207800F0010000
:1053D000002870D0FA48006800F03808F848183003
:1053E000D0F80090B8F1100F06D0B8F1180F0FD117
:1053F00009F0030002280BD1F14810380068C0F30F
:10540000404000286AD06068002867D10120DAE7B0
:1054100000BF6068B0F5803F08D1E94810380068E7
:1054200040F48030E649103908602EE0606868B9C1
:10543000E3481038006820F48030E14910390860F2
:105440000846006820F4802008601EE06068B0F51F
:10545000A02F0DD1DA481038006840F48020D849D8
:10546000103908600846006840F4803008600CE09D
:10547000D3481038006820F48030D14910390860D2
:105480000846006820F48020086000BF606898B17A
:10549000FCF7F2FB054606E0FCF7EEFB401B642838
:1054A00001D903208FE7C64810380068C0F3404098
:1054B0000028F1D012E012E0FCF7DEFB054606E022
:1054C000FCF7DAFB401B642801D903207BE7BC48CA
:1054D00010380068C0F340400028F1D100BF2078A8
:1054E00000F00200022874D1B548006800F03808C6
:1054F000B3481830D0F80090B8F1000F05D0B8F1DB
:10550000180F56D109F00300D0BBAD481038006821
:10551000C0F3800018B1E06808B9012053E7A8483B
:105520001038006820F01900E1680843A4491039D8
:105530000860FCF7A1FB054606E0FCF79DFB401B5D
:10554000022801D903203EE79D4810380068C0F3C7
:1055500080000028F1D000BFFCF788FB41F2030176
:1055600088421AD8206940280BD195480C38006829
:1055700020F47C3040F4003091490C39086017E089
:1055800017E08F480C38006820F47C30216940EA2D
:1055900001308B490C3908600AE089480C380068F2
:1055A00020F0FE40217C40EA016085490C3908600A
:1055B00066E0E06888B382481038006820F019007F
:1055C000E16808437E4910390860FCF755FB054641
:1055D00007E056E0FCF750FB401B022801D90320EE
:1055E000F1E6774810380068C0F380000028F1D059
:1055F00000BFFCF73BFB41F2030188421AD8206947
:1056000040280BD16E480C38006820F47C3040F400
:1056100000306B490C39086017E017E068480C3817
:10562000006820F47C30216940EA013064490C397B
:1056300008600AE062480C38006820F0FE40217CD7
:1056400040EA01605E490C39086019E05C48103896
:10565000006820F001005A4910390860FCF70CFB83
:10566000054606E0FCF708FB401B022801D9032091
:10567000A9E6534810380068C0F380000028F1D133
:1056800000BF207800F0100010287CD14C48006842
:1056900000F038084A481830D0F80090B8F1080FE8
:1056A00006D0B8F1180F3DD109F00300012839D117
:1056B000434810380068C0F3002020B1E06980281A
:1056C00001D001207FE600BFFCF7D0FA41F20301D0
:1056D00088421AD8206A20280AD139480C38006834
:1056E00020F0F84040F0804035490C39086018E05F
:1056F00033480C38006820F0F84094F8201040EA55
:1057000081602F490C3908600BE02D48001F0068AC
:1057100020F07C5094F8201040EA01602849091FCD
:10572000086066E0E06978B325481038006840F00A
:105730008000234910390860FCF79EFA054606E010
:10574000FCF79AFA401B022801D903203BE61C48CB
:1057500010380068C0F300200028F1D000BFFCF72B
:1057600085FA41F2030188421CD8206A20280CD116
:1057700013480C38006820F0F84040F08040104991
:105780000C3908601AE035E01CE00D480C38006860
:1057900020F0F84094F8201040EA816008490C3964
:1057A00008600BE00648001F006820F07C5094F869
:1057B000201040EA01600249091F086019E000005A
:1057C00010440258FA48006820F08000F849086048
:1057D000FCF752FA054606E0FCF74EFA401B022899
:1057E00001D90320EFE5F2480068C0F3002000284B
:1057F000F2D100BF207800F00800082836D1606997
:10580000D0B1EB487430006840F00100E8497431D1
:105810000860FCF731FA054606E0FCF72DFA401B5C
:10582000022801D90320CEE5E14874300068C0F3B6
:1058300040000028F1D019E0DD487430006820F005
:105840000100DB4974310860FCF716FA054606E0F2
:10585000FCF712FA401B022801D90320B3E5D44813
:1058600074300068C0F340000028F1D1207800F0C7
:105870002000202830D1A069B8B1CD48006840F49C
:105880008050CB490860FCF7F7F9054606E0FCF7C5
:10589000F3F9401B022801D9032094E5C4480068AD
:1058A000C0F340300028F2D016E0C148006820F470
:1058B0008050BF490860FCF7DFF9054606E0FCF7B9
:1058C000DBF9401B022801D903207CE5B8480068B9
:1058D000C0F340300028F2D1207800F00400042802
:1058E0007DD1B448006840F48070B2490860FCF78C
:1058F000C3F9054606E0FCF7BFF9401B642801D94F
:10590000032060E5AB48006800F480700028F2D006
:1059100000BFA068012808D1A5487030006840F099
:105920000100A349703108602DE0A06868B9A04863
:105930007030006820F001009D4970310860084611
:10594000006820F0040008601DE0A06805280DD163
:1059500097487030006840F0040095497031086045
:105960000846006840F0010008600CE09048703084
:10597000006820F001008E49703108600846006818
:1059800020F00400086000BFA068A0B1FCF774F923
:10599000054608E0FCF770F9401B41F28831884267
:1059A00001D903200FE5824870300068C0F3400041
:1059B0000028EFD013E0FCF75FF9054608E0FCF79C
:1059C0005BF9401B41F28831884201D90320FAE497
:1059D000774870300068C0F340000028EFD1606A5B
:1059E00000287DD072481030006800F03800182878
:1059F00077D0606A022875D16D48006820F0807009
:105A00006B490860FCF738F9054606E0FCF734F905
:105A1000401B022801D90320D5E465480068C0F383
:105A200040600028F2D100BFD4E90A1041EA00101A
:105A30005F492831096840F2F332914308435C49D9
:105A400028310860208E401EC0F30800616B491E9B
:105A50004FF47E4202EA41210843218F491ED201C0
:105A600002EA014108433C21095D491E120202EA93
:105A7000016108434E493031086000BF081F0068CB
:105A800020F00100091F08604948343000684FF6D3
:105A9000F8718843A16C40EAC1004549343108607F
:105AA00043482C30006820F00C00216C084340492A
:105AB0002C3108600846006820F00200616C084341
:105AC0003B492C3108600846006840F4803008608B
:105AD0000846006840F4003008600846006802E0AC
