:020000040800F2
:1000000008A4002479030008F16A0008E9640008E4
:10001000256A00083508000881A7000800000000D4
:10002000000000000000000000000000DF72000877
:10003000050A0008000000008F6D000889730008A1
:100040009303000893030008930300089303000838
:100050009303000893030008930300089303000828
:100060009303000893030008930300089303000818
:100070009303000893030008930300089303000808
:1000800093030008930300089303000893030008F8
:1000900093030008930300089303000893030008E8
:1000A00093030008930300089303000893030008D8
:1000B00093030008930300089D770008930300084A
:1000C00093030008930300089303000893030008B8
:1000D00093030008930300089303000893030008A8
:1000E0009303000893030008000000009303000836
:1000F0009303000893030008930300089303000888
:100100009303000893030008930300089303000877
:100110009303000893030008930300089303000867
:100120009303000893030008930300089303000857
:100130009303000893030008930300089303000847
:1001400000000000000000000000000000000000AF
:100150009303000893030008930300089303000827
:100160009303000893030008930300089303000817
:1001700093030008930300089303000800000000A5
:1001800093030008930300089303000893030008F7
:1001900093030008930300089303000893030008E7
:1001A00093030008930300089303000893030008D7
:1001B00093030008930300089303000893030008C7
:1001C00093030008930300089303000893030008B7
:1001D00093030008F56A00089303000893030008DE
:1001E0009303000893030008930300089303000897
:1001F0009303000893030008930300089303000887
:100200009303000893030008930300089303000876
:100210009303000893030008930300089303000866
:1002200093030008930300089303000800000000F4
:1002300093030008930300080000000093030008E4
:100240009303000893030008930300089303000836
:100250009303000893030008930300089303000826
:100260009303000893030008930300089303000816
:1002700093030008930300089303000800000000A4
:100280009303000893030008930300080000000094
:10029000000000009303000800F002F800F05CF892
:1002A0000AA090E8000C82448344AAF10107DA45D1
:1002B00001D100F051F8AFF2090EBAE80F0013F0C7
:1002C000010F18BFFB1A43F001031847F0B70000F5
:1002D00010B800000A444FF0000C10F8013B13F076
:1002E000070408BF10F8014B1D1108BF10F8015B8F
:1002F000641E05D010F8016B641E01F8016BF9D182
:1003000013F0080F1EBF10F8014BAD1C0C1B09D1D8
:100310006D1E58BF01F801CBFAD505E014F8016B4A
:1003200001F8016B6D1EF9D59142D6D370470000DC
:100330000023002400250026103A28BF78C1FBD8EE
:10034000520728BF30C148BF0B6070471FB50BF084
:100350006BFA1FBD10B510BD00F0F7F81146FFF79E
:10036000F5FF0AF033FD00F015F903B4FFF7F2FFD3
:1003700003BC00F019F9000009488047094800470C
:10038000FEE7FEE7FEE7FEE7FEE7FEE7FEE7FEE745
:10039000FEE7FEE704480549054A064B70470000A2
:1003A0006974000899020008089A002408A400242F
:1003B000089C0024089C0024032A40F2308010F09E
:1003C000030C00F0158011F8013BBCF1020F6244F0
:1003D00098BF11F801CB00F8013B38BF11F8013B81
:1003E000A2F1040298BF00F801CB38BF00F8013B2E
:1003F00011F0030300F02580083AC0F0088051F89E
:10040000043B083A51F804CBA0E80810F5E7121DA8
:100410005CBF51F8043B40F8043BAFF30080D207C7
:1004200024BF11F8013B11F801CB48BF11F8012B93
:1004300024BF00F8013B00F801CB48BF00F8012BB6
:10044000704710B5203AC0F00B80B1E81850203A40
:10045000A0E81850B1E81850A0E81850BFF4F5AF64
:100460005FEA027C24BFB1E81850A0E8185044BFEE
:1004700018C918C0BDE810405FEA827C24BF51F85B
:10048000043B40F8043B08BF7047D20728BF31F84F
:10049000023B48BF11F8012B28BF20F8023B48BFA0
:1004A00000F8012B70474FF000020429C0F01280C1
:1004B00010F0030C00F01B80CCF1040CBCF1020F17
:1004C00018BF00F8012BA8BF20F8022BA1EB0C01EC
:1004D00000F00DB85FEAC17C24BF00F8012B00F8E2
:1004E000012B48BF00F8012B70474FF0000200B508
:1004F000134694469646203922BFA0E80C50A0E847
:100500000C50B1F12001BFF4F7AF090728BFA0E8F4
:100510000C5048BF0CC05DF804EB890028BF40F8C0
:10052000042B08BF704748BF20F8022B11F0804F02
:1005300018BF00F8012B70477047704770470000E4
:1005400000487047A899002470477546FFF7F8FFE8
:10055000AE4605006946534620F00700854618B0B0
:1005600020B5FFF717FFBDE820404FF000064FF021
:1005700000074FF000084FF0000B21F00701AC46D8
:10058000ACE8C009ACE8C009ACE8C009ACE8C009F7
:100590008D46704710B50446AFF300802046BDE895
:1005A0001040FFF7E2BE000001491820ABBEFEE795
:1005B0002600020010B5002405E0012120460AF0C3
:1005C000B3FD601C84B2402CF7DB4FF4E1700AF0FD
:1005D000D9FB10BD70B504464F492068884203D04E
:1005E0004E492068884208D14D48006800F44030E8
:1005F00008B1012009E0002007E04A48006800F443
:10060000403008B1012000E00020B8B104F088FDBE
:1006100005466068B0F5803F06D0B0F5003F04D0D5
:10062000B0F5403F08D105E000BF6068000CB5FBA5
:10063000F0F502E0AD0800E000BF2BE04FF4002031
:10064000002102F0BBFF05466068C0F31101F9B953
:1006500080140C281CD2DFE800F01B060708090AEA
:100660000B111315171900BF00BF00BF00BF00BF5B
:100670006068800C4000B5FBF0F50AE02D0908E049
:100680006D0906E0AD0904E0ED0902E02D0A00E085
:1006900000BF00BF01F0EAFA41F20301884210D81E
:1006A0002148854206D92068806840F4807021681E
:1006B00088602FE02068806820F48070216888605E
:1006C00028E06D081948854206D82068806820F423
:1006D0004070216888601DE01548854208D8206870
:1006E000806820F4407040F480702168886011E0D8
:1006F0001048854208D82068806820F4407040F493
:1007000000702168886005E02068806840F44070CF
:100710002168886070BD0000002002400021024076
:100720000823024008630258002D3101105E5F006B
:1007300020BCBE0040787D0170B50446206805F0FD
:100740005AFF002851D1206880682949084048B1E3
:10075000606D40F010006065A06D40F00100A06584
:10076000012070BD206805F02FFF01F085FA0546D5
:10077000204A2168914203D01F4A2168914201D149
:100780001E4900E01E49084605F02BFF06461A499F
:100790002068884201D1174800E02068216888421B
:1007A00000D00EBB1AE0206805F025FF10B92068C4
:1007B00005F00AFF01F060FA401B02280ED92068FC
:1007C000006800F0010048B9606D40F010006065FD
:1007D000A06D40F00100A0650120C2E7206800681C
:1007E00000F001000028DED000BF0020B9E70000C3
:1007F0003F00008000200240002102400023024010
:100800000063025810B501221021094801F028FAAE
:1008100001222021064801F023FA01224021044848
:1008200001F01EFA01220421014801F019FA10BD5D
:100830000008025800BFFEE70346042B15D007DC72
:100840007BB1012B0ED0022B0DD0032B12D10BE06C
:10085000202B0BD0212B0AD0222B09D0232B09D1FE
:1008600007E008E007E006E005E004E003E002E05E
:1008700001E000E000BF00BF00207047002070478B
:1008800010B500220449054807F0A5F904490348BA
:1008900007F09AF9002010BD948E0024E88500240A
:1008A000AC8A002470B506460D463146134807F061
:1008B0008BF9124807F064F92868402806D2012015
:1008C0000F49087000200F49087002E001200D490F
:1008D0000870002407E0305D0B49096821440B4A89
:1008E0005054601CC4B22868A042F4D80649286855
:1008F0000968084404490860002070BDE8850024A8
:100900001800002417000024080000249403002489
:100910002DE9F04104460D4600260A48D0F8B87289
:10092000D7F8140210B10120BDE8F0812A46214613
:10093000044807F050F9034807F0D1F9064630465D
:10094000F2E70000E885002410B5002208210248E3
:1009500001F086F910BD00000000025810B5012218
:100960000821024801F07CF910BD00000000025887
:1009700030B5C1F3C013224C04EB801404F83230BC
:10098000C1F380131E4C04EB8014012505EBC20556
:100990006355C1F340131A4C04EB8014022505EB98
:1009A000C2056355C1F30013154C04EB80140325F5
:1009B00005EBC2056355C1F3C003114C04EB801471
:1009C000042505EBC2056355C1F380030C4C04EB11
:1009D0008014052505EBC2056355C1F34003084C9F
:1009E00004EB8014062505EBC205635501F00103F5
:1009F000034C04EB8014072505EBC205635530BD9D
:100A0000BA750024704772B600BFFEE710B500202B
:100A10006149087041E000206049087034E0604896
:100A200000F0B6FE4FF6FF715D4800F0FFFD5C4838
:100A300000F040FC5B4908800846008800EE100A80
:100A4000B8EE400ADFED580A60EE200A9FED571A13
:100A500080EE810ADFED560A20EE200ADFED550A0E
:100A600080EE201ABCEEC10A10EE100A4B4909783C
:100A700001EB8101504A1144474A12788854474893
:100A80000078401C45490870444800780428C6DBBB
:100A900041480078401C404908703F4800780528CC
:100AA000B9DB00203D49087061E00120434908702E
:100AB00054E000204249087043E03848007800EBD9
:100AC00080003D4908443E490978415C334800783C
:100AD00000EB8000384A024439480078401C105C22
:100AE000814229DD2D48007800EB8000324908441E
:100AF00033490978405C334908702848007800EB96
:100B000080002D4901442E480078401C085C234990
:100B1000097801EB8101284A1144294A1278885446
:100B2000284801781D48007800EB8000224A0244E2
:100B300023480078401C115421480078401C20496B
:100B400008701E480078C0F104001D4909788842E9
:100B5000B3DA1A480078401C184908701748007822
:100B60000428A6DD0D480078401C0C4908700B488D
:100B70000078042899DB10488078134908700E48E3
:100B8000C079124908700C48007B114908700A4866
:100B9000407C1049087010BD6100002460000024F2
:100BA0005C0200246400002433335340000080457D
:100BB0009A99D0429A998940BA850024620000240B
:100BC0006300002466000024230000242400002485
:100BD000250000242600002470B50A480468001D82
:100BE0000568001D0668344454B1082206492046B1
:100BF00005F07CFC042204491031284605F076FCFF
:100C000070BD000000E8F11F620100242DE9F043EF
:100C100099B004460E464FF00008306800B100BF9E
:100C200000BF94F85000012803D1022019B0BDE89C
:100C3000F083012084F8500000BF0020159016902A
:100C400046492068884202D14548009001E00020D2
:100C50000090009850B9606D40F02000606500BFC2
:100C6000002084F8500000BF0120DFE7009805F065
:100C7000D6FC0746206805F0D2FC002861D1002F81
:100C80005FD136492068884203D0354920688842C0
:100C900001D1344800E034480546306858B3A868AC
:100CA00020F4404071680843A8602C4920688842BD
:100CB00003D02B492068884201D12A4800E02A4805
:100CC0002849884209D1254805F09AFC81462448E4
:100CD00005F096FC49EA000002E0244805F090FC8B
:100CE00070BBB16830680843A96840F61F72914331
:100CF0000843A8602BE0A86820F44040A86017498A
:100D00002068884203D016492068884201D11548DE
:100D100000E015481349884209D1104805F070FCDD
:100D200081460F4805F06CFC49EA000002E00F48DC
:100D300005F066FC20B9A86840F61F718843A860DA
:100D400005E0606D40F0200060654FF0010800BFD5
:100D5000002084F8500000BF404667E700200240B2
:100D60000021024000230240006302580060025844
:100D70002DE9F84F04460D464FF0000A0020009080
:100D800094F83800012800D100E000BFF849E86875
:100D9000884200D00EE0F7492068884200D100BFA9
:100DA000F5492068884200D100BFF4492068884294
:100DB00000D100BF00BF94F85000012802D10220EA
:100DC000BDE8F88F012084F8500000BF206805F0CE
:100DD00021FC00287ED12068C1692868C0F3130077
:100DE00018B92868C0F3846004E0286890FAA0F07D
:100DF000B0FA80F000F01F0201209040014320680B
:100E0000C1612168D5E9002001F1300CC0F3012B4C
:100E10000CEB8B03D3F800C000F01F0E4FF01F0B3C
:100E20000BFA0EFB2CEA0B0C00F01F0BC2F3846EC6
:100E30000EFA0BFE4CEA0E0CC3F800C000BF20688F
:100E400005F0E8FB8146206805F0D0FB8046B9F14B
:100E5000000F6FD1B8F1000FFBD1AA682968206894
:100E600005F0F4FBC648006800F07040B0F1805F08
:100E700007D168692168C968C1F3820149008840C7
:100E800014E02068C06800F0100038B96869216873
:100E9000C968C1F382014900884007E06869216898
:100EA000C96801F01001890849008840074628698F
:100EB000042840D020682A68296900F1600C0CEBF6
:100EC0008103D3F800C00CF0004C02F0F84B4BEA61
:100ED000070B00E0CCE14CEA0B0CC3F800C000BFEC
:100EE00020686A7E2969012A01D1D20700E0002228
:100EF000134600F1600C0CEB8102D2F800C02CF01C
:100F0000004C4CEA030CC2F800C000BF20682B7EE6
:100F10002969012B01D1DB0200E000231A46036995
:100F200023F4F04301F01F0C02FA0CFC43EA0C031B
:100F3000036100BF37E02068006E00F0F8402978B8
:100F4000B0EB816F05D12068006E20F00040216871
:100F500008662068406E00F0F8402978B0EB816F99
:100F600005D12068406E20F0004021684866206866
:100F7000806E00F0F8402978B0EB816F05D12068D1
:100F8000806E20F00040216888662068C06E00F006
:100F9000F8402978B0EB816F05D12068C06E20F051
:100FA00000402168C866206805F025FB002872D142
:100FB0002068EA682968D0F8C030C1F3130C23EA2E
:100FC0000C0302F0180BDFF8BCC12CFA0BFC0CEA86
:100FD000010C43EA0C03C0F8C03000BF6449E86864
:100FE00088427DD12B68C3F313031BB92B68C3F36D
:100FF000846304E02B6893FAA3F3B3FA83F35B1CD6
:1010000003F01F03092B3ED82B68C3F313031BB94E
:101010002B68C3F3846304E02B6893FAA3F3B3FA59
:1010200083F35B1C03F01F034FF0010C0CFA03FC6D
:101030002B68C3F313031BB92B68C3F3846304E069
:101040002B6893FAA3F3B3FA83F35B1C03F01F033B
:101050004CEA836C2B68C3F313031BB92B68C3F3EF
:10106000846304E02B6893FAA3F3B3FA83F35B1C65
:1010700003F01F0303EB43034FF0000B4BEA035352
:101080004CEA030341E02B68C3F3130323B92B6835
:10109000C3F3846305E0A9E02B6893FAA3F3B3FAE2
:1010A00083F35B1C03F01F034FF0010C0CFA03FCED
:1010B0002B68C3F313031BB92B68C3F3846304E0E9
:1010C0002B6893FAA3F3B3FA83F35B1C03F01F03BB
:1010D0004CEA836C2B68C3F313032BB92B6800E035
:1010E00018E0C3F3846304E02B6893FAA3F3B3FA24
:1010F00083F35B1C03F01F030A3B03EB43034FF036
:10110000007B4BEA03534CEA03031946AA682068A4
:1011100005F09CFA286800F00040002866D0154AC7
:101120002168914203D0144A2168914201D11649A5
:1011300000E016490846816801F0E07600BF0D49DD
:101140002068884203D00C492068884201D10E48AB
:1011500000E00E480C4988421AD1064805F04BFAC7
:101160008346054805F047FA4BEA000013E000000B
:101170000000FF47002002400021024000600258AA
:101180000010005CFFFF0F000023024000630258C4
:101190003E4805F030FAE8BB3D492868884226D130
:1011A00006F4000018BB39492068884266D1394BE3
:1011B00022689A4203D0384B22689A4201D1374ABA
:1011C00000E0374A104646F4000105F053FA35486E
:1011D00000683549B0FBF1F0401C4000009002E08F
:1011E0000098401E009000980028F9D146E02F4951
:1011F0002868884219D106F08070B0B92349206868
:1012000088423BD1234B22689A4205D0224B226868
:101210009A4200E025E001D1204A00E0204A104631
:1012200046F0807105F026FA28E0214928688842B6
:1012300024D106F4800008BB1449206888421DD1DF
:10124000144B22689A4203D0134B22689A4201D170
:10125000124A00E0124A104646F4800105F00AFAEC
:101260000CE0606D40F0200060654FF0010A05E081
:10127000606D40F0200060654FF0010A00BF002063
:1012800084F8500000BF50469AE500000060025804
:10129000000084CB002002400021024000230240D5
:1012A00000630258C8010024400D0300000052C72B
:1012B0000000B8CF01460868006C70472DE9F84F70
:1012C00004464FF000090020009014B90120BDE849
:1012D000F88FE06818B1207F012800D100BF606D51
:1012E00030B9204600F030F90020A06584F85000A5
:1012F00020688168C1F3407131B120688168874AF4
:101300001140816000BF00BF206805F07EF9A8B9D8
:1013100020688168824A114041F08051816000BF9D
:10132000804800688049B0FBF1F0401C009002E06A
:101330000098401E009000980028F9D1206805F020
:1013400064F948B9606D40F010006065A06D40F030
:101350000100A0654FF00109206805F05BF9064621
:10136000606D00F0100000287ED1002EFCD1606D71
:1013700020F4807040F002006065206805F03BF9C1
:1013800078BB6A492068884203D06949206888424E
:1013900001D1684800E068486649884209D163483D
:1013A00005F029F98246624805F025F94AEA00006D
:1013B00002E0624805F01FF998B95C4B22689A4236
:1013C00003D05B4B22689A4201D15A4A00E05A4A44
:1013D00010466168826822F47C120A43826000BF72
:1013E00000BF00F043FC41F2030188420ED9A0681F
:1013F00010280BD1607D216B41EA4030A168084381
:1014000040F00C01207F41EA004508E0607D216B3F
:1014100041EA4030A1680843217F40EA0145207F2E
:10142000012803D1208C401E45EA4045606A28B15E
:10143000A08C00F47870A16A084305432068C06856
:101440003F49084028432168C860206805F0E2F859
:101450008046206805F0CAF80746B8F1000F3BD176
:10146000D7BB207DE16A00E050E041EA803520688A
:10147000C06844F20301884328432168C86094F897
:101480003800012817D1606A08B1A06A00B900BF0E
:10149000A08F401E012141EA0041206C0843616C8D
:1014A0000843A16C084321680969264A1140084392
:1014B0002168086105E02068006920F001002168CA
:1014C00008612068006920F07040616B0843216862
:1014D00008612046FFF77EF8E068012809D12068FE
:1014E000006B20F00F00A169491E084321680863C2
:1014F00005E02068006B20F00F0021680863606D34
:1015000020F0020040F00100606505E0606D40F0F1
:10151000100060654FF001094846D8E6C0FFFF5F44
:10152000C0FFFF7FC8010024400D030000200240DF
:10153000002102400023024000630258006002586C
:1015400003C0F0FF1EF800FC10B5B8B0044614212B
:1015500032A8FEF7CAFFC02102A8FEF7C6FF2F4936
:101560002068884257D14FF400210020CDE90210B5
:1015700002200490A02105910821069102210791E3
:1015800008918021099100210A910B9100202B9054
:1015900002A802F06BFC08B1FFF735FA00BF204843
:1015A000006840F020001E4908600846006800F00E
:1015B0002000019000BF00BF00BF1948083000683C
:1015C00040F004001649083108600846006800F041
:1015D0000400019000BF00BF00BF0846006840F053
:1015E000010008600846006800F00100019000BF9B
:1015F00000BF0320329033900020349032A9094874
:1016000000F030FA0320329033900020349032A959
:10161000054800F027FA38B010BD00000020024055
:10162000D844025800080258000002582DE9F0473B
:1016300004460F46524A2168914203D0514A21681C
:10164000914201D1504900E05049084604F0C9FFD9
:1016500005462069082801D1082628E01DB1052D7E
:1016600001D0092D0DD12068C06800F0010030B113
:10167000606D40F0200060650120BDE8F087042621
:1016800015E03F4A2168914203D03E4A21689142C9
:1016900001D13D4900E03D49084604F09DFF28B1D5
:1016A000606D40F0200060650120E6E7042600F050
:1016B000E3FA804617E0781CA8B100F0DDFAA0EB51
:1016C0000800B84200D877B920680068304050B9A7
:1016D000606D40F00400606500BF002084F8500099
:1016E00000BF0320C9E72068006830400028E2D02E
:1016F000606D40F400706065206804F095FF98B15B
:10170000607D88B92068006800F0080008280BD1C7
:10171000606D20F480706065606D00F4805018B9D1
:10172000606D40F00100606516492068884201D173
:10173000134800E020682168884204D01DB1052DBF
:1017400001D0092D03D12068D0F80C9009E00D4993
:101750002068884201D10A4800E020688246DAF811
:101760000C90082E03D108202168086005E009F4D8
:10177000804010B90C202168086000207DE700003F
:101780000020024000210240002302400063025872
:101790002DE9F0410446474A2168914203D0464A68
:1017A0002168914201D1454900E04549084604F0CD
:1017B00018FF0546206804F02DFF002877D100BFF0
:1017C00094F85000012802D10220BDE8F0810120E8
:1017D00084F8500000BF2046FEF7AEFF0646002EFC
:1017E00060D1606D40F60161884340F480706065AF
:1017F00031492068884201D12E4800E020682168E4
:10180000884200D01DB9606D20F480106065606D65
:1018100000F48050B0F5805F04D1A06D20F0060088
:10182000A06501E00020A0651C202168086000BFC1
:10183000002084F8500000BF1F492068884201D171
:101840001C4800E020682168884204D01DB1052DA5
:1018500001D0092D0ED12068C06800F0007028B1B9
:10186000606D20F4005040F480506065206804F002
:10187000E5FE1DE0606D40F4801060650E49206853
:10188000884201D10B4800E020680746F86800F064
:10189000007068B1606D20F4005040F480506065C5
:1018A00006E004E000BF002084F8500000E00226BB
:1018B00030468AE700200240002102400023024017
:1018C0000063025870B5044600F0D6F90646254676
:1018D000681C10B104480078054400BF00F0CCF942
:1018E000801BA842FAD370BDC4010024F0B50C4699
:1018F0000021504B98E001268E4006EA0402002A9F
:101900007ED04D4E8F0856F827508E07370F0F2682
:10191000BE403540494EB04201D100262DE0484E30
:10192000B04201D1012628E0464EB04201D1022644
:1019300023E0454EB04201D103261EE0434EB042A3
:1019400001D1042619E0424EB04201D1052614E02F
:10195000404EB04201D106260FE03F4EB04201D1C9
:1019600007260AE03D4EB04201D1082605E03C4E74
:10197000B04201D1092600E00A268F073F0FBE4082
:10198000AE421FD11E6896431E605E6896435E603D
:101990004FF0B046766896434FF0B0477E603E46C3
:1019A000366896433E608E07370F0F2606FA07F516
:1019B000214E8F0856F82760AE431F4F4FEA910C17
:1019C00047F82C6006684FEA410C032707FA0CF72A
:1019D0003E430660CF0800F1200656F827604F0707
:1019E0004FEAD76C0F2707FA0CF7BE434FEAD10C2A
:1019F00000F1200747F82C60C6684FEA410C00E070
:101A000011E0032707FA0CF7BE43C66047680126BA
:101A10008E40B743476086684FEA410C032707FAB8
:101A20000CF7BE438660491C24FA01F6002E7FF4B1
:101A300062AFF0BD80000058080400580000025852
:101A40000004025800080258000C02580010025806
:101A50000014025800180258001C025800200258B6
:101A600000240258F8B502460B4600216F4DD7E01E
:101A700001278F401E6806EA0704002C72D01E79E9
:101A800006F00306012E04D01E7906F00306022E8E
:101A900013D190684F000326BE40B0434F00DE686C
:101AA000BE4030439060506801268E40B0431E799E
:101AB000C6F300168E40304350601E7906F00306D0
:101AC000032E09D0D0684F000326BE40B0434F001C
:101AD0009E68BE403043D0601E7906F00306022E99
:101AE00013D1CF0802F1200656F827004E07F70E53
:101AF0000F26BE40B0434F07FF0E1E69BE40304365
:101B0000CF0802F1200646F8270010684F00032690
:101B1000BE40B0431E7906F003064F00BE4030437E
:101B200010605E6806F44036002E78D000BF404E4C
:101B3000366846F002063E4F3E603E46366806F086
:101B40000206009600BF00BF3A4E8F0856F82700E5
:101B50008E07370F0F26BE40B043374EB24202D138
:101B600000262EE05BE0354EB24201D1012628E08E
:101B7000334EB24201D1022623E0324EB24201D1AD
:101B800003261EE0304EB24201D1042619E02F4E4A
:101B9000B24201D1052614E02D4EB24201D10626F3
:101BA0000FE02C4EB24201D107260AE02A4EB24283
:101BB00001D1082605E0294EB24201D1092600E0F4
:101BC0000A268F073F0FBE4030431A4E8F0846F853
:101BD00027004FF0B0463068A0435E6806F48016D8
:101BE00006B120434FF0B04630607068A0435E6895
:101BF00006F4001606B120434FF0B04670606868E6
:101C0000A0435E6806F4003606B120436860286889
:101C1000A0435E6806F4803606B120432860491C64
:101C20001E68CE40002E7FF423AFF8BD8000005820
:101C3000F4440258080400580000025800040258F6
:101C400000080258000C02580010025800140258F4
:101C500000180258001C02580020025800240258A4
:101C60000AB1816101E00B0483617047014800689B
:101C7000000C70470010005C0148006870470000CD
:101C8000BC0100240348006803490978084401495D
:101C900008607047BC010024C401002410B5032073
:101CA00000F042F903F074FA10490968C1F3032106
:101CB0000F4A515C01F01F0120FA01F40B48006843
:101CC00000F00F001146085C00F01F0024FA00F03D
:101CD00008490860084804600F2000F00FF808B1B8
:101CE000012010BD00F09AF80020FAE718440258CD
:101CF000ACBA0008CC010024C801002470B5044629
:101D00001148007808B9012070BD0F4800784FF4E1
:101D10007A71B1FBF0F00D490968B1FBF0F5284686
:101D200004F01DFA08B10120EEE7102C07D20022C2
:101D30002146501E00F0BAF80548046001E0012079
:101D4000E2E70020E0E70000C4010024C80100240D
:101D5000C00100244178154A11600178F9B1121DC3
:101D600041681160017B0907C27A41EA0261827A07
:101D700041EAC241427B41EA8241827B41EA4241DF
:101D8000C27B41EA0241427A41EA0221027A41EAF7
:101D9000420102781143054A0832116005E0002132
:101DA000024A121D1160121D1160704798ED00E08B
:101DB00000BF00BF00BFBFF35F8F00BF00BF00BF09
:101DC0000548006820F4803003490860002002497B
:101DD000703108607047000024ED00E040F0010120
:101DE0000D4A11600C497039096841F480310A4A82
:101DF000703A116000BF00BF00BFBFF34F8F00BF3C
:101E000000BF00BF00BF00BF00BFBFF36F8F00BFA8
:101E100000BF00BF7047000094ED00E008B500BFB0
:101E20000648006840F0020004490860084600685F
:101E300000F00200009000BF00BF08BDF44402584B
:101E400010B501460846002817DB00F01F030122E9
:101E50009A400B4B440943F8242000BF00BF00BF49
:101E6000BFF34F8F00BF00BF00BF00BF00BF00BF68
:101E7000BFF36F8F00BF00BF00BF00BF10BD0000E9
:101E800080E100E00146084600280DDB00BF00BFEE
:101E900000F01F0301229A4043099B0003F1E02355
:101EA000C3F8002100BF00BF00BF70472DE9F05FFD
:101EB00080460D46164608F033FF074639462A4647
:101EC000334601F00700C0F1070ABAF1040F02D946
:101ED0004FF0040A01E0C0F1070AD14600F1040AFC
:101EE000BAF1070F02D24FF0000A01E0A0F1030A95
:101EF000D4464FF0010A0AFA09FAAAF1010A0AEADD
:101F0000020A0AFA0CFA4FF0010B0BFA0CFBABF1C8
:101F1000010B0BEA030B4AEA0B042146404608F08A
:101F200007FFBDE8F09F000000BF00F00702064B6E
:101F300019684FF6FF031940044B0B4343EA022193
:101F4000014B196000BF70470CED00E00000FA057E
:101F500000BF00BF00BF00BF00BFBFF34F8F00BF77
:101F600000BF00BF0948006800F4E060084908436A
:101F7000001D0649086000BF00BF00BFBFF34F8FC0
:101F800000BF00BF00BF00BF00BFFDE70CED00E0D9
:101F90000000FA0501460A680120C1F8000500208A
:101FA00081F8F404906940F000609061506D024B3C
:101FB0001843506500207047030000107047024628
:101FC0001068416200207047F0B503461546186856
:101FD000446A21B944EA05401E68B06219E01868F5
:101FE000806A04EB1044002208E0186800F5827053
:101FF00050F8220004EB1044501CC2B2481E90421C
:10200000F3D844EA0547186800F582704E1E40F880
:1020100026700020F0BD10B50446D4F8080506F07F
:1020200074FA10BD70B504460D4605EBC50304F106
:102030003C0101EB8301CA682946D4F8080506F083
:1020400082F970BD70B504460D4605EBC50304F575
:102050001F7101EB8301CA682946D4F8080506F010
:10206000F2F970BD10B504460CB9012010BD032073
:1020700084F8BD04206807F04BFE08B10120F5E7A5
:10208000204600F0CFFD002084F8BD0400BFEDE73E
:1020900010B50446D4F8080506F03AFA10BD2DE94B
:1020A000F04104460D4605F08000802808D105F077
:1020B0000F0000EBC00104F13C0000EB810607E0DB
:1020C00005F00F0000EBC00104F51F7000EB810666
:1020D0003146206807F0FAFB07463846BDE8F08134
:1020E00070B504460E4606F0800080280AD106F03E
:1020F0000F0000EBC00104F13C0000EB8105012062
:10210000687009E006F00F0000EBC00104F51F70D5
:1021100000EB81050020687006F00F00287000BFFA
:1021200094F8BC04012801D1022070BD012084F87C
:10213000BC0400BF2946206806F064FF00BF0020F1
:1021400084F8BC0400BF00BFEFE770B504460E463C
:1021500006F00F006168884201D9012070BD06F0C9
:10216000800080280AD106F00F0000EBC00104F1C6
:102170003C0000EB81050120687009E006F00F00CB
:1021800000EBC00104F51F7000EB810500206870B2
:102190000020A87006F00F00287000BF94F8BC045F
:1021A000012801D10220D9E7012084F8BC0400BF36
:1021B0002946206807F01CF900BF002084F8BC0401
:1021C00000BF00BFCAE7024601F00F0000EBC003EA
:1021D00002F51F7000EB8300406970472DE9F0475E
:1021E00005460E4690461F464FF0000906F0800057
:1021F00080280AD106F00F0000EBC00105F13C0079
:1022000000EB81040120607009E006F00F0000EB94
:10221000C00105F51F7000EB81040020607006F01E
:102220000F002070C4F808802771607808B120780A
:102230006083022F01D10020607100BF95F8BC04BB
:10224000012802D10220BDE8F087012085F8BC04F6
:1022500000BF2146286806F0E1FD00BF002085F898
:10226000BC0400BF4846EEE72DE9F04105460E46A6
:102270001746984606F00F0000EBC00105F51F70E9
:1022800000EB8104E760C4F810800020606160709A
:1022900006F00F002070E868012800D1E7612A7B72
:1022A0002146286807F038F90020BDE8F08170B5B4
:1022B00004460D4605F00F006168884201D90120EF
:1022C00070BD05F0800080280AD105F00F0000EBFA
:1022D000C00104F13C0000EB81060120707007E0B2
:1022E00005EBC50104F51F7000EB8106002070703E
:1022F0000120B07005F00F00307000BF94F8BC04EE
:10230000012801D10220DBE7012084F8BC0400BFD2
:102310003146206807F0B3F805F00F0028B9217B9B
:1023200004F2C442206807F02BF800BF002084F8B4
:10233000BC0400BF00BFC3E72DE9F04105460E46CF
:102340001746984606F00F0000EBC00105F13C006F
:1023500000EB8104E760C4F8108000206061012078
:10236000607006F00F002070E868012800D1E76176
:102370002A7B2146286807F0CFF80020BDE8F081CD
:102380002DE9FE4F0446D4F800B05E46206807F001
:1023900084FB002874D1206807F0BEFB08B9BDE8B3
:1023A000FE8F40F608008059C0F30D20C4F8FC04ED
:1023B000206807F0B1FB00F00200022805D1206878
:1023C000406900F0020021684861206807F0A4FB22
:1023D00000F01000102845D12068806920F010001E
:1023E00021688861DBF8209009F00F0000EBC00144
:1023F00004F51F7000EB810AC9F3434002281AD18B
:1024000047F6F07009EA000030B3C9F30A125846E3
:10241000DAF80C1007F085FBC9F30A11DAF80C00A2
:102420000844CAF80C00C9F30A11DAF81400084489
:10243000CAF8140010E0C9F3434006280CD1082262
:1024400004F2C441584607F06CFBC9F30A11DAF8EC
:1024500014000844CAF814002068806940F0100095
:1024600021688861206807F057FB00F40020B0F570
:10247000002F7BD10025206807F01EFB029072E040
:1024800003E3029800F00100002868D0E9B2206858
:1024900007F035FB804608F0010048B1012106F540
:1024A000306000EB451081602946204604F072FB45
:1024B00008F00800082809D1082106F5306000EB73
:1024C000451081602946204604F032FB08F01000D8
:1024D000102805D1102106F5306000EB4510816011
:1024E00008F00200022824D1DBF8140000F080007C
:1024F000802807D140F60400805940F4806140F6FE
:102500000400815105EBC50104F51F7000EB810A41
:102510009AF80300012806D100208AF80300E9B2E6
:10252000204600F0BDFA022106F5306000EB4510B0
:10253000816008F02000202805D1202106F53060B8
:1025400000EB4510816008F40050B0F5005F06D143
:102550004FF4005106F5306000EB451081606D1CB2
:10256000029840080290029800288AD1206807F05B
:10257000D3FA00F48020B0F5802F7DD1206807F0D9
:1025800091FA029000259AE0029800F001000028DC
:1025900073D0E9B2206807F099FA804608F001008C
:1025A000F0B305F00F0101208840019040F634009F
:1025B0008159019821EA000040F634018851012137
:1025C00006F5106000EB45108160E068012824D119
:1025D00005EBC50104F13C0000EB810005EBC502F1
:1025E000C16804F13C0000EB82008068014405EB07
:1025F000C50204F13C0000EB8200C1606DB905EB3F
:10260000C50104F13C0000EB8100006928B904F227
:10261000C4420121206806F0B3FEE9B2204600E082
:1026200001E0FFF7FFFC08F00800082805D10821A9
:1026300006F5106000EB4510816008F010001028CE
:1026400005D1102106F5106000EB4510816008F0FF
:102650004000402805D1402106F5106000EB4510F0
:10266000816008F0020002281DD12946584607F073
:10267000D5F905EBC50101E025E01CE004F13C00C3
:1026800000EB810A9AF80300012806D100208AF89D
:102690000300E9B2204600F0FAF9022106F51060C5
:1026A00000EB4510816008F08000802803D12946A6
:1026B000204604F011FB6D1C02984008029002981D
:1026C00000287FF461AF206807F026FA00F0004090
:1026D000B0F1004F1CD140F60400805920F00101F8
:1026E00040F60400815194F8F404012807D1002039
:1026F00084F8F40400212046FFF760FC02E0204645
:1027000000F02CFB2068406900F00040216848611F
:10271000206807F001FA00F40060B0F5006F0ED1F8
:1027200040F60800805900F0010010B1204600F08A
:1027300097FB2068406900F40060216848612068C8
:1027400007F0EAF900F00060B0F1006F19D12068DD
:10275000406900F000602168486194F8F40468B9A9
:10276000012084F8F4042068406DC0F38300C4F8AD
:10277000F80401212046FFF721FC02E0204600F08A
:102780006FFB206807F0C8F900F48050B0F5805F57
:102790007ED140F60400805920F0010140F604008B
:1027A00081511021206807F039F9002732E04FF6F7
:1027B0007F3106F5106000EB4710816006F5106070
:1027C00000EB4710006820F4001106F5106000EBE4
:1027D000471001604FF67F3106F5306000EB47107F
:1027E000816006F5306000EB4710006820F40011AE
:1027F00006F5306000EB4710016006F5306000EB35
:102800004710006840F0006106F5306000EB4710AB
:1028100001607F1C6068B842C9D840F61C0080592E
:1028200040F0011140F61C008151206B70B1D6F8C8
:10283000840840F00B01C6F8841840F64400805923
:1028400040F00B0140F6440081510FE040F61400C7
:10285000805942F22B01084340F614018851081FA9
:10286000805940F00B014FF401608151D6F8000807
:1028700020F4FE60C6F80008217B04F2C442206800
:1028800006F07EFD2068406900F48050216800E079
:1028900000E04861206807F03FF900F40050B0F50F
:1028A000005F17D1206806F021FB206807F0E2F8EE
:1028B000206102F035FC0090227C2068009907F02E
:1028C000B3F9204600F032FA2068406900F4005065
:1028D00021684861206807F01FF900F00800082807
:1028E00008D1204600F041FA2068406900F0080055
:1028F00021684861206807F00FF900F08000802807
:1029000018D1DBF8180020F08000CBF81800012562
:102910000DE005EBC50104F51F7000EB8100C078E8
:10292000012803D1E9B22046FFF7B9FB6D1C6068AE
:10293000A842EED8206807F0EFF800F48010B0F558
:10294000801F2DD1012522E006F5106000EB451017
:10295000D0F8009005EBC50104F13C0000EB8100CC
:102960000079012812D109F00040B0F1004F0DD1DB
:10297000012105EBC50204F13C0000EB8200C170AF
:10298000E8B240F080012046FFF789FB6D1C6068CB
:10299000A842D9D82068406900F4801021684861B5
:1029A000206807F0B9F800F40010B0F5001F44D11A
:1029B000012538E006F5306000EB4510D0F80090B6
:1029C00005EBC50104F51F7000EB810000790128BB
:1029D00028D109F00040B0F1004F23D109F4803034
:1029E00094F8FC1401F0010188421BD1012105EB90
:1029F000C50204F51F7000EB8200C170DBF81800FF
:102A000040F08000CBF81800DBF8140000F08000E4
:102A100040B940F60400805940F4007140F60400CB
:102A2000815103E06D1C6068A842C3D800BF2068D4
:102A3000406900F4001021684861206807F06CF8D4
:102A400000F08040B0F1804F08D12046FFF7E3FA54
:102A50002068406900F0804021684861206807F0E4
:102A60005BF800F0040004280FD12068D0F804902F
:102A700009F00400042802D12046FFF709FB206872
:102A8000406840EA09002168486000BF87E470B5EB
:102A900004460D462946D4F8080505F0A1FD70BD91
:102AA00070B504460D462946D4F8080505F09BFD8F
:102AB00070BD70B58AB0044614B901200AB070BD6B
:102AC000266894F8BD0428B9002084F8BC04204688
:102AD00000F0C4F8032084F8BD04F06B00F48070AB
:102AE00008B90021E160206806F042FC282204F1C8
:102AF00010016846FDF7A5FC94E80F0006F00AFAFD
:102B000020B1022084F8BD040120D7E7002120680D
:102B100007F037F8002531E0012105EBC50204F18B
:102B20003C0000EB8200417005EBC50104F13C0064
:102B300000F8215005EBC50100EB81004583002121
:102B400005EBC50204F13C0000EB8200017105EBCE
:102B5000C50204F13C0000EB8200816005EBC50278
:102B600004F13C0000EB8200C16005EBC50204F1FA
:102B70003C0000EB82000161681CC5B26068A8429D
:102B8000CAD800252AE0002105EBC50204F51F7014
:102B900000EB8200417005EBC50104F51F7000F8E1
:102BA0002150002105EBC50200EB8200017105EB0D
:102BB000C50204F51F7000EB8200816005EBC502C1
:102BC00004F51F7000EB8200C16005EBC50204F53F
:102BD0001F7000EB82000161681CC5B26068A842EA
:102BE000D1D8282204F110016846FDF72AFC94E8A8
:102BF0000F0006F0D1FA20B1022084F8BD040120B4
:102C00005CE7002084F83800012084F8BD04606A85
:102C1000012802D12046FFF7BDF9206806F0AAFA84
:102C200000204BE710B504460949206888420DD1C1
:102C30000848006820F00060064908604FF4C05161
:102C40000548FEF753FE6520FFF7FAF810BD0000B7
:102C500000000840D84402580000025810B5B8B02F
:102C60000446142132A8FDF740FCC02102A8FDF75C
:102C70003CFC2B49206888424FD14FF48021002032
:102C8000CDE9021008200C90F0210D9102210E9147
:102C900005210F91022110910021119113918004BF
:102CA000249002A801F0E2F808B1FDF7ACFE00F0B4
:102CB00021F900BF1B48006840F001001949086075
:102CC0000846006800F00100019000BF00BF4FF40B
:102CD000C0503290022033900020349035900A206A
:102CE000369032A91048FEF7BDFE00BF0D480838E7
:102CF000006840F000600B49083908600846006829
:102D000000F00060019000BF00BF00221146652066
:102D1000FFF7CCF86520FFF7B5F838B010BD00001C
:102D200000000840E04402580000025870B5044614
:102D30000125206908B9002506E02069022801D193
:102D4000012501E0FDF75FFE2946D4F8080505F0EE
:102D5000C7FCD4F8080505F079FC70BD10B5044631
:102D6000D4F8080505F0A0FC10BD10B50446D4F851
:102D7000080505F0A4FC10BD70B504460D4600BF63
:102D800094F8BC04012801D1022070BD012084F810
:102D9000BC0400BF84F838502946206806F025FF9F
:102DA00000BF002084F8BC0400BF00BFEDE710B5F1
:102DB000044604F2C441D4F8080505F0A8FC10BD8F
:102DC00070B50446256800BF94F8BC04012801D101
:102DD000022070BD012084F8BC0400BFE86B00F441
:102DE000807030B9A06A012803D1A86B40F480300C
:102DF000A863206806F0E0FD206806F0A9F900BF8E
:102E0000002084F8BC0400BF00BFE2E770B50446B0
:102E1000256800BF94F8BC04012801D1022070BDD0
:102E2000012084F8BC0400BF206806F0A1FA2068E5
:102E300006F0A0F91021206806F0F0FDE86B00F420
:102E4000807030B9A06A012803D1A86B20F48030CB
:102E5000A86300BF002084F8BC0400BF00BFDEE709
:102E600010B50446D4F8080505F0B9FC2068D0F880
:102E7000000E40F001002168C1F8000E206A28B160
:102E80000348006840F006000149086010BD0000DA
:102E900010ED00E070B5044615480068C0F38000EE
:102EA00048B91348006800F00700A04201D0012093
:102EB00070BD0020FCE70E48006820F007002043AA
:102EC0000B490860FEF7D8FE054607E0FEF7D4FE82
:102ED000401BB0F57A7F01D90120E9E704480838A2
:102EE0000068C0F340300028F0D00020E0E7000088
:102EF0000C4802580348006840F08070014908609F
:102F0000704700000C48025810B502F009F9054955
:102F10000968C1F30211044A515C01F01F01C84065
:102F200010BD000020440258ACBA000870B501463C
:102F3000844D2D6805F00303824D2D68C5F30510FF
:102F4000804D2D1D2D6805F001047E4D0C352D683A
:102F5000C5F3CC0515FB04F501EE105AB8EE411A85
:102F6000F0EE410A00286FD023B1012B4ED0022B86
:102F70006BD16BE0734D283D2D68C5F340153DB313
:102F8000704D283D2D68C5F3C1066F4D25FA06F238
:102F900001EE102AF8EE411A01EE100AB8EE411ABD
:102FA00081EE812A9FED691AC0EE811A654D0835C0
:102FB0002D68C5F3080501EE105AB8EE411A31EE3E
:102FC000811AF7EE001A31EE211A22EE010A1CE0F6
:102FD00001EE100AB8EE411ADFED5D1A81EE812A8A
:102FE0009FED5A1AC0EE811A564D08352D68C5F36B
:102FF000080501EE105AB8EE411A31EE811AF7EECB
:10300000001A31EE211A22EE010A5BE001EE100AED
:10301000B8EE411ADFED4F1A81EE812A9FED4B1A6F
:10302000C0EE811A474D08352D68C5F3080501EE3D
:10303000105AB8EE411A31EE811AF7EE001A31EE4D
:10304000211A22EE010A3DE077E01DE001EE100AB0
:10305000B8EE411A9FED402AC2EE011A9FED3B1ACD
:1030600080EE812A374D08352D68C5F3080501EE3D
:10307000105AB8EE411A32EE011AB7EE002A31EEBC
:10308000021A21EE810A1DE001EE100AB8EE411A83
:10309000DFED2F1A81EE812A9FED2C1AC0EE811AE6
:1030A000284D08352D68C5F3080501EE105AB8EE15
:1030B000411A31EE811AF7EE001A31EE211A22EE92
:1030C000010A00BF00BF1F4D08352D68C5F3462516
:1030D00001EE105AB8EE411AF7EE001A31EE211A3D
:1030E000C0EE011ABCEEE11A81ED001A154D08354B
:1030F0002D68C5F3064501EE105AB8EE411AF7EEF9
:10310000001A31EE211AC0EE011ABCEEE11A81ED6F
:10311000011A0C4D08352D68C5F3066501EE105AED
:10312000B8EE411AF7EE001A31EE211AC0EE011A7C
:10313000BCEEE11A81ED021A03E000250D604D603E
:103140008D6070BD284402580090D00300000046F6
:103150000024744C0024744A0024F44A70B50146DB
:10316000844D2D6805F00303824D2D68C5F30530AD
:10317000804D2D1D2D68C5F300147E4D14352D682E
:10318000C5F3CC0515FB04F501EE105AB8EE411A53
:10319000F0EE410A00286FD023B1012B4ED0022B54
:1031A0006BD16BE0734D283D2D68C5F340153DB3E1
:1031B000704D283D2D68C5F3C1066F4D25FA06F206
:1031C00001EE102AF8EE411A01EE100AB8EE411A8B
:1031D00081EE812A9FED691AC0EE811A654D103586
:1031E0002D68C5F3080501EE105AB8EE411A31EE0C
:1031F000811AF7EE001A31EE211A22EE010A1CE0C4
:1032000001EE100AB8EE411ADFED5D1A81EE812A57
:103210009FED5A1AC0EE811A564D10352D68C5F330
:10322000080501EE105AB8EE411A31EE811AF7EE98
:10323000001A31EE211A22EE010A5BE001EE100ABB
:10324000B8EE411ADFED4F1A81EE812A9FED4B1A3D
:10325000C0EE811A474D10352D68C5F3080501EE03
:10326000105AB8EE411A31EE811AF7EE001A31EE1B
:10327000211A22EE010A3DE077E01DE001EE100A7E
:10328000B8EE411A9FED402AC2EE011A9FED3B1A9B
:1032900080EE812A374D10352D68C5F3080501EE03
:1032A000105AB8EE411A32EE011AB7EE002A31EE8A
:1032B000021A21EE810A1DE001EE100AB8EE411A51
:1032C000DFED301A81EE812A9FED2C1AC0EE811AB3
:1032D000284D10352D68C5F3080501EE105AB8EEDB
:1032E000411A31EE811AF7EE001A31EE211A22EE60
:1032F000010A00BF00BF1F4D10352D68C5F34625DC
:1033000001EE105AB8EE411AF7EE001A31EE211A0A
:10331000C0EE011ABCEEE11A81ED001A154D103510
:103320002D68C5F3064501EE105AB8EE411AF7EEC6
:10333000001A31EE211AC0EE011ABCEEE11A81ED3D
:10334000011A0C4D10352D68C5F3066501EE105AB3
:10335000B8EE411AF7EE001A31EE211AC0EE011A4A
:10336000BCEEE11A81ED021A03E000250D604D600C
:103370008D6070BD284402580090D00300000046C4
:103380000024744C0024744A0024F44A70B50146A9
:10339000844D2D6805F00303824D2D68C5F305505B
:1033A000804D2D1D2D68C5F300247E4D1C352D68E4
:1033B000C5F3CC0515FB04F501EE105AB8EE411A21
:1033C000F0EE410A00286FD023B1012B4ED0022B22
:1033D0006BD16BE0734D283D2D68C5F340153DB3AF
:1033E000704D283D2D68C5F3C1066F4D25FA06F2D4
:1033F00001EE102AF8EE411A01EE100AB8EE411A59
:1034000081EE812A9FED691AC0EE811A654D18354B
:103410002D68C5F3080501EE105AB8EE411A31EED9
:10342000811AF7EE001A31EE211A22EE010A1CE091
:1034300001EE100AB8EE411ADFED5D1A81EE812A25
:103440009FED5A1AC0EE811A564D18352D68C5F3F6
:10345000080501EE105AB8EE411A31EE811AF7EE66
:10346000001A31EE211A22EE010A5BE001EE100A89
:10347000B8EE411ADFED4F1A81EE812A9FED4B1A0B
:10348000C0EE811A474D18352D68C5F3080501EEC9
:10349000105AB8EE411A31EE811AF7EE001A31EEE9
:1034A000211A22EE010A3DE077E01DE001EE100A4C
:1034B000B8EE411A9FED402AC2EE011A9FED3B1A69
:1034C00080EE812A374D18352D68C5F3080501EEC9
:1034D000105AB8EE411A32EE011AB7EE002A31EE58
:1034E000021A21EE810A1DE001EE100AB8EE411A1F
:1034F000DFED301A81EE812A9FED2C1AC0EE811A81
:10350000284D18352D68C5F3080501EE105AB8EEA0
:10351000411A31EE811AF7EE001A31EE211A22EE2D
:10352000010A00BF00BF1F4D18352D68C5F34625A1
:1035300001EE105AB8EE411AF7EE001A31EE211AD8
:10354000C0EE011ABCEEE11A81ED001A154D1835D6
:103550002D68C5F3064501EE105AB8EE411AF7EE94
:10356000001A31EE211AC0EE011ABCEEE11A81ED0B
:10357000011A0C4D18352D68C5F3066501EE105A79
:10358000B8EE411AF7EE001A31EE211AC0EE011A18
:10359000BCEEE11A81ED021A03E000250D604D60DA
:1035A0008D6070BD284402580090D0030000004692
:1035B0000024744C0024744A0024F44A2DE9F0439A
:1035C00089B006460F464FF4807186EA0100384301
:1035D00070D1F748006800F00709B9F1050F65D20E
:1035E000DFE809F0031221623000F148503800682A
:1035F00000F00070B0F1007F04D106A8FFF796FC40
:10360000079C00E0002453E0E9485038006800F0CF
:103610000060B0F1006F04D103A8FFF79FFD039C89
:1036200000E0002444E0E2485038006800F0005018
:10363000B0F1005F04D16846FFF7A8FE009C00E0EF
:10364000002435E0DA48001F006800F04055D848F3
:103650005038006800F00400042809D145B9D44866
:1036600050380068C0F3C101D24820FA01F41AE0D2
:10367000CF485038006800F48070B0F5807F04D1E6
:10368000B5F1805F01D1CC4C0DE0C94850380068DD
:1036900000F40030B0F5003F04D1B5F1005F01D176
:1036A000C64C00E0002403E0C54C01E0002400BF4C
:1036B000D4E3FFE74FF4007186EA010038437AD182
:1036C000BB48006800F4E079B9F1800F2CD006DC2B
:1036D000B9F1000F0AD0B9F1400F69D115E0B9F185
:1036E000C00F63D0B9F5807F62D12CE0B04850386C
:1036F000006800F00070B0F1007F04D106A8FFF769
:1037000015FC079C00E0002454E0A94850380068EC
:1037100000F00060B0F1006F04D103A8FFF71EFDB8
:10372000039C00E0002445E0A1485038006800F008
:103730000050B0F1005F04D16846FFF727FE009CFF
:1037400000E0002436E09A48001F006800F0405571
:1037500097485038006800F00400042809D145B9A2
:10376000934850380068C0F3C101924820FA01F430
:103770001BE08F485038006800F48070B0F5807FFF
:1037800004D1B5F1805F01D18B4C0EE088485038F0
:10379000006800F40030B0F5003F05D1B5F1005FDE
:1037A00002D1864C01E006E0002403E0844C01E0F5
:1037B000002400BF52E34FF4806186EA01003843E1
:1037C0007BD17B480830006800F46009B9F5800FB0
:1037D0002CD006DCB9F1000F0AD0B9F5001F69D171
:1037E00015E0B9F5C00F63D0B9F5000F62D12CE038
:1037F0006F485038006800F00070B0F1007F04D1CD
:1038000006A8FFF793FB079C00E0002454E06848FB
:103810005038006800F00060B0F1006F04D103A8D8
:10382000FFF79CFC039C00E0002445E06048503812
:10383000006800F00050B0F1005F04D16846FFF767
:10384000A5FD009C00E0002436E05948001F0068F8
:1038500000F0405556485038006800F00400042835
:1038600009D145B9524850380068C0F3C1015148E8
:1038700020FA01F41BE04E485038006800F48070D4
:10388000B0F5807F04D1B5F1805F01D14A4C0EE0E4
:1038900047485038006800F40030B0F5003F05D1CB
:1038A000B5F1005F02D1454C01E006E0002403E0E1
:1038B000434C01E0002400BFD0E24FF4006186EAEF
:1038C0000100384373D13A480830006800F0E069DD
:1038D000B9F1007F2CD006DCB9F1000F0AD0B9F1A4
:1038E000807F75D115E0B9F1407F6FD0B9F1806F5D
:1038F0006ED12CE02E485038006800F00070B0F116
:10390000007F04D106A8FFF711FB079C00E000240C
:1039100060E027485038006800F00060B0F1006FA8
:1039200004D103A8FFF71AFC039C00E0002451E037
:103930001F485038006800F00050B0F1005F04D11B
:103940006846FFF723FD009C00E0002442E0184891
:10395000001F006800F0405515485038006800F01E
:103960000400042809D145B9114850380068C0F353
:10397000C101104820FA01F427E00D4850380068D2
:1039800000F48070B0F5807F04D1B5F1805F01D183
:10399000094C1AE006485038006800F40030B0F5D1
:1039A000003F11D1B5F1005F0ED1044C0DE012E0E3
:1039B000504402580090D00300093D0000127A00E4
:1039C0000080BB0004E001E0002403E0F74C01E0CC
:1039D000002400BF42E24FF4805186EA01003843E0
:1039E0007AD1F348006800F4E048B8F5005F2CD0C5
:1039F00006DCB8F1000F0AD0B8F5805F69D115E098
:103A0000B8F5405F63D0B8F5804F62D12CE0E8484C
:103A10005038006800F00070B0F1007F04D106A8B3
:103A2000FFF784FA079C00E0002454E0E048503897
:103A3000006800F00060B0F1006F04D103A8FFF748
:103A40008DFB039C00E0002445E0D9485038006815
:103A500000F00050B0F1005F04D16846FFF796FC1B
:103A6000009C00E0002436E0D148001F006800F010
:103A70004055CF485038006800F00400042809D1B0
:103A800045B9CB4850380068C0F3C101C94820FA95
:103A900001F41BE0C6485038006800F48070B0F5AF
:103AA000807F04D1B5F1805F01D1C34C0EE0C048E6
:103AB0005038006800F40030B0F5003F05D1B5F192
:103AC000005F02D1BD4C01E006E0002403E0B74CEA
:103AD00001E0002400BFC1E14FF4005186EA01007B
:103AE000384367D1B248006800F4E028B8F5403F99
:103AF00033D009DCB8F1000F0DD0B8F5803F0ED0FF
:103B0000B8F5003F53D119E0B8F5802F37D0B8F59C
:103B1000A02F4CD13FE001F029FB044649E0A44826
:103B20005038006800F00060B0F1006F04D103A8C5
:103B3000FFF714FB049C00E000243AE09C48503856
:103B4000006800F00050B0F1005F04D16846FFF754
:103B50001DFC019C00E000242BE0954850380068D3
:103B600000F00400042808D1914850380068C0F3E0
:103B7000C101904820FA01F400E0002419E08C48CB
:103B80005038006800F48070B0F5807F01D18A4C15
:103B900000E000240DE086485038006800F4003052
:103BA000B0F5003F01D1854C00E0002401E0002485
:103BB00000BF53E14FF4002186EA0100384361D190
:103BC0007B480830006800F44038B8F1000F06D098
:103BD000B8F5803F12D0B8F5003F50D11DE07448D1
:103BE0005038006800F00060B0F1006F04D103A805
:103BF000FFF7B4FA039C00E0002442E06C48503820
:103C0000006800F00050B0F1005F04D16846FFF793
:103C1000BDFB029C00E0002433E06548001F006803
:103C200000F0405562485038006800F00400042855
:103C300009D145B95E4850380068C0F3C1015D48FC
:103C400020FA01F41AE05A485038006800F48070F5
:103C5000B0F5807F04D1B5F1805F01D1564C0DE005
:103C600053485038006800F40030B0F5003F04D1EC
:103C7000B5F1005F01D1514C00E0002401E00024C7
:103C800000BFEBE04FF4803186EA010038432CD1CD
:103C90004748001F006800F48038B8F1000F03D0D7
:103CA000B8F5803F1ED10EE041485038006800F062
:103CB0000070B0F1007F04D106A8FFF737F9079C28
:103CC00000E0002410E03A485038006800F000603E
:103CD000B0F1006F04D103A8FFF740FA059C00E0A3
:103CE000002401E0002400BFB8E04FF4804186EAE0
:103CF0000100384372D12E480830006800F0E048D7
:103D0000B8F1405F33D009DCB8F1000F0DD0B8F145
:103D1000805F0ED0B8F1005F5DD119E0B8F1804F3F
:103D200037D0B8F1A04F56D14AE0FFF7EDF804467E
:103D300053E01F485038006800F00060B0F1006F99
:103D400004D103A8FFF70AFA049C00E0002444E031
:103D500017485038006800F00050B0F1005F04D1FF
:103D60006846FFF713FB019C00E0002435E0104893
:103D70005038006800F00400042808D10C4850387E
:103D80000068C0F3C1010B4820FA01F400E00024F0
:103D900023E007485038006800F48070B0F5807F59
:103DA00001D1054C00E0002417E017E00080BB00C3
:103DB000504402580090D00300093D0000127A00E0
:103DC0002848006800F40030B0F5003F01D1264CCF
:103DD00000E0002401E0002400BF3FE04FF4004178
:103DE00086EA0100384338D11E485030006800F0A0
:103DF0004058B8F1000F06D0B8F1805F0ED0B8F18E
:103E0000005F27D118E01748006800F40030B0F5D3
:103E1000003F01D1144C00E000241DE0114800686F
:103E200000F00070B0F1007F04D106A8FFF77EF823
:103E3000079C00E000240FE00A48006800F00060E2
:103E4000B0F1006F04D103A8FFF788F9049C00E0EB
:103E5000002401E0002400BF00E00024204609B057
:103E6000BDE8F0830044025800127A002DE9F041C9
:103E700004460025A8464FF00062D4E90010114026
:103E80000020134659404040014331D1A06E48B153
:103E9000B0F5801F0DD0B0F5001F11D0B0F5401F58
:103EA00016D114E0F948006840F40030F749086082
:103EB00010E0022104F1080003F014F8054609E0BF
:103EC000022104F1280003F0BFF8054602E001E0FA
:103ED000012500BF00BF55B9EC482430006820F42C
:103EE0004010A16E0843E9492431086000E0A8466B
:103EF0004FF48073D4E9001019400020594040402D
:103F000001432ED1A06D05281BD2DFE800F0030A83
:103F100011181900DD48006840F40030DB490860E2
:103F200011E0002104F1080002F0DCFF05460AE080
:103F3000002104F1280003F087F8054603E002E0C1
:103F400001E0012500BF00BF55B9D048243000680A
:103F500020F00700A16D0843CC492431086000E03F
:103F6000A8464FF40073D4E90010194000205940CE
:103F70004040014334D1E06D802818D003DC40B1CB
:103F800040281DD10CE0C02818D0B0F5807F17D193
:103F900015E0BE48006840F40030BC49086011E0FC
:103FA000002104F1080002F09DFF05460AE000210F
:103FB00004F1280003F048F8054603E002E001E0C0
:103FC000012500BF00BF55B9B0482430006820F477
:103FD000E070E16D0843AD492431086000E0A84677
:103FE0004FF48063D4E9001019400020594040404C
:103FF000014339D1D4F8A800B0F5800F1AD004DC01
:1040000050B1B0F5001F1ED10DE0B0F5C00F18D0B3
:10401000B0F5000F17D115E09C48006840F400305F
:104020009A49086011E0002104F1080002F05AFFEB
:1040300005460AE0002104F1280003F005F80546D2
:1040400003E002E001E0012500BF00BF5DB98F4839
:104050002C30006820F46000D4F8A81008438B4985
:104060002C31086000E0A8464FF40062D4E900104B
:1040700011400020134659404040014339D1D4F843
:10408000AC00B0F1007F1AD004DC50B1B0F1807FF9
:104090001ED10DE0B0F1407F18D0B0F1806F17D184
:1040A00015E07A48006840F400307849086011E073
:1040B000002104F1080002F015FF05460AE0002186
:1040C00004F1280002F0C0FF054603E002E001E031
:1040D000012500BF00BF5DB96C482C30006820F09E
:1040E000E060D4F8AC10084368492C31086000E067
:1040F000A8464FF00073D4E9000118400021584051
:104100004940084328D1E06CA8B1102804D02028E9
:1041100009D0302810D10DE05C48006840F4003030
:104120005A4908600AE0022104F1080002F0DAFEB0
:10413000054603E002E001E0012500BF00BF55B9DC
:1041400052482030006820F03000E16C08434F49AD
:104150002031086000E0A8464FF48053D4E90010F5
:104160001940002059404040014337D1206EB0F53E
:10417000005F1AD004DC50B1B0F5805F1ED10DE0B5
:10418000B0F5405F18D0B0F5804F17D115E03F482B
:10419000006840F400303D49086011E0002104F15E
:1041A000080002F09FFE05460AE0002104F1280005
:1041B00002F04AFF054603E002E001E0012500BFEE
:1041C00000BF55B931482430006820F4E040216E2A
:1041D00008432E492431086000E0A8464FF40053FC
:1041E000D4E900101940002059404040014335D126
:1041F000606EB0F5403F1ED007DC68B1B0F5803F7F
:104200000BD0B0F5003F19D10EE0B0F5802F13D0E0
:10421000B0F5A02F12D110E012E0012104F1080046
:1042200002F060FE05460BE0012104F1280002F0D7
:104230000BFF054604E003E002E001E0012500BFBA
:1042400000BF55B911482430006820F4E020616EA9
:1042500008430E492431086000E0A8464FF480432B
:10426000D4E900011840002158404940084337D1A3
:10427000D4F8B000B0F1405F20D009DC78B1B0F1E3
:10428000805F0DD0B0F1005F1BD110E02C440258CC
:10429000B0F1804F13D0B0F1A04F12D110E012E076
:1042A000012104F1080002F01DFE05460BE001218A
:1042B00004F1280002F0C8FE054604E003E002E035
:1042C00001E0012500BF00BF4DB9FE48006820F0A5
:1042D000E040D4F8B0100843FA49086000E0A8466E
:1042E0004FF40042D4E90010114000201346594019
:1042F0004040014329D1206FB0B1B0F1805F03D0BD
:10430000B0F1005F11D108E0EE482C38006840F4AD
:104310000030EC492C39086009E0012104F1080063
:1043200002F0E0FD054602E001E0012500BF00BF0C
:1043300055B9E4480838006820F04050216F084320
:10434000E0490839086000E0A8464FF08072D4E9DF
:1043500000101140002013465940404001432AD12B
:10436000A06CB8B1012804D002280BD0032812D1C8
:104370000FE0D4482C38006840F40030D1492C3983
:1043800008600AE0022104F1080002F0ABFD0546D6
:1043900003E002E001E0012500BF00BF55B9C948B4
:1043A0000C38006820F00300A16C0843C5490C39A3
:1043B000086000E0A8464FF48002D4E900011040F4
:1043C000002113465840494008437DD1BE4800684B
:1043D00040F48070BC490860FDF74EFC064606E0DC
:1043E000FDF74AFC801B642801D9032505E0B64887
:1043F000006800F480700028F2D000BF85BBB1488F
:104400001830006800F44070B4F8B41001F4407142
:10441000884213D0AB481830006820F44077A94890
:104420001830006840F48030A6491831086008460A
:10443000006820F48030086008460760D4F8B400B3
:10444000B0F5807F15D1FDF717FC064609E0FDF7B2
:1044500013FC801B41F28831884202D9032507E012
:1044600038E0984818300068C0F340000028EED0CB
:1044700000BF55BB00BFB4F8B40000F44070B0F505
:10448000407F0ED18F484838006820F47C518F4A15
:10449000D4F8B400104041EA10108A494839086045
:1044A00007E088484838006820F47C50854948393E
:1044B0000860844818300068B4F8B410C1F30B01E8
:1044C00008438049183101E005E001E0086002E09E
:1044D000A84600E0A8460122D4E9000110400021CE
:1044E000134658404940084330D1E06F18281AD08D
:1044F00005DC48B1082808D0102817D10CE0202886
:1045000012D0282812D110E012E0012104F1080095
:1045100002F0E8FC05460BE0012104F1280002F05E
:1045200093FD054604E003E002E001E0012500BF41
:1045300000BF55B96348001F006820F03800E16FE4
:1045400008436049091F086000E0A8460222D4E938
:10455000000110400021134658404940084329D12A
:10456000A06F062816D2DFE800F003040B12131424
:1045700012E0012104F1080002F0B4FC05460BE052
:10458000012104F1280002F05FFD054604E003E08C
:1045900002E001E0012500BF00BF55B94948001FF6
:1045A000006820F00700A16F08434649091F086012
:1045B00000E0A8460423D4E9001019400020594027
:1045C0004040014329D1D4F89400062816D2DFE8F0
:1045D00000F003040B12131412E0012104F108008F
:1045E00002F080FC05460BE0012104F1280002F0F6
:1045F0002BFD054604E003E002E001E0012500BFD9
:1046000000BF4DB92F48006820F00700D4F894107F
:1046100008432C49086000E0A8462023D4E90001A3
:104620001840002158404940084337D1D4F8900041
:10463000B0F1405F1ED007DC68B1B0F1805F0BD0F5
:10464000B0F1005F19D10EE0B0F1804F13D0B0F19E
:10465000A04F12D110E012E0002104F1080002F096
:1046600041FC05460BE0022104F1280002F0ECFCBD
:10467000054604E003E002E001E0012500BF00BFC1
:104680005DB91048001F006820F0E040D4F8901099
:1046900008430C49091F086000E0A8464023D4E9FC
:1046A0000010194000205940404001433CD1D4F84B
:1046B0009C00B0F5406F25D00EDCA0B1B0F5806F46
:1046C00012D005E05844025800480258FFFCFF0F82
:1046D000B0F5006F19D10EE0B0F5805F13D0B0F5E2
:1046E000A05F12D110E012E0002104F1080002F0F6
:1046F000F9FB05460BE0022104F1280002F0A4FCBE
:10470000054604E003E002E001E0012500BF00BF30
:104710004DB9FE48006820F4E050D4F89C100843DE
:10472000FA49086000E0A8468023D4E90010194047
:10473000002059404040014335D1D4F8A000B0F5E5
:10474000C04F1ED007DC68B1B0F5005F0BD0B0F5EC
:10475000804F19D10EE0B0F5004F13D0B0F5204FC7
:1047600012D110E012E0002104F1080002F0BAFBBF
:1047700005460BE0022104F1280002F065FC054625
:1047800004E003E002E001E0012500BF00BF4DB9F5
:10479000DE48006820F46040D4F8A0100843DB49EC
:1047A000086000E0A8460823D4E900101940002062
:1047B00059404040014317D1D4F88400B0F5805FE0
:1047C00007D1022104F1280002F03EFC08B14FF0AD
:1047D0000108CE48001F006820F44050D4F884102F
:1047E0000843CA49091F08601023D4E90010194082
:1047F000002059404040014315D1D4F89800B0F54D
:10480000807F07D1022104F1280002F01DFC08B1CD
:104810004FF00108BD48006820F44070D4F89810AB
:104820000843BA4908604FF40022D4E9000110405F
:104830000021134658404940084327D1D4F8A4002A
:1048400030B1B0F5803F0AD0B0F5003F0FD10DE098
:10485000002104F1080002F045FB054609E00221B1
:1048600004F1280002F0F0FB054602E001E001251A
:1048700000BF00BF4DB9A548006820F44030D4F80F
:10488000A4100843A149086000E0A8464FF4802323
:10489000D4E90001184000215840494008432DD177
:1048A000D4F88800B0F5801F06D0B0F5001F0CD0FA
:1048B000B0F5401F11D10FE094482C38006840F447
:1048C000003092492C39086009E0012104F12800E8
:1048D00002F0BAFB054602E001E0012500BF00BF7F
:1048E0005DB98A48001F006820F44010D4F8881091
:1048F00008438649091F086000E0A8464FF480324B
:10490000D4E90001104000211346584049400843B3
:1049100025D1206D18B1B0F5803F10D108E07B485B
:104920002C38006840F4003078492C39086008E0E1
:10493000022104F1080002F0D5FA054601E0012544
:1049400000BF00BF55B971480C38006820F48030B2
:10495000216D08436D490C39086000E0A8464FF00E
:104960000052D4E900101140002013465940404045
:10497000014307D1022104F1280002F065FB08B1D0
:104980004FF001084FF40033D4E900011840002132
:1049900058404940084329D1D4F88000A0B1B0F56F
:1049A000807F06D0B0F5007F0CD0B0F5407F0CD1F1
:1049B00009E056482C38006840F4003053492C393F
:1049C000086004E003E002E001E0012500BF00BF51
:1049D0005DB94E48001F006820F44070D4F8801084
:1049E00008434A49091F086000E0A8464FF48012B6
:1049F000D4E90010114000201346594040400143C3
:104A000009D142480838006820F00040616F08432F
:104A10003E49083908604FF08052D4E90010114037
:104A2000002013465940404001430AD137484838D6
:104A3000006820F48040D4F8B8100843334948395E
:104A400008604FF40012D4E9001011400020134612
:104A500059404040014309D12C480838006820F0F3
:104A60008070E16E08432949083908604FF08042A0
:104A7000D4E9001011400020134659404040014342
:104A800011D100BF21484838006820F400401F4978
:104A90004839086008460068D4F8BC1008431B4930
:104AA0004839086000BF4FF00042D4E900101140BF
:104AB0000020134659404040014309D113480C38A7
:104AC000006820F04050616D084310490C390860BF
:104AD0004FF40002D4E90010114000201346594061
:104AE000404001430AD10948001F006820F44000FB
:104AF000D4F88C1008430549091F086001230021E0
:104B00006068184001224940504001E05844025872
:104B1000014306D104F1080002F0E4F9054605B1AD
:104B2000A8460222002160681040494050400143DD
:104B300007D1012104F1080002F0D4F9054605B1BE
:104B4000A8460423002061681940042240405140D7
:104B5000084307D1022104F1080002F0C3F9054619
:104B600005B1A84608230021606818400822494082
:104B70005040014306D104F1280002F065FA0546D1
:104B800005B1A846102200216068104049405040FD
:104B9000014307D1012104F1280002F055FA05462E
:104BA00005B1A846202200206168114040405140D4
:104BB000084307D1022104F1280002F045FA054616
:104BC00005B1A846B8F1000F02D10020BDE8F08180
:104BD0000120FBE72DE9F04104460D4614B9012000
:104BE000BDE8F081BD48006800F00F00A8420ED279
:104BF000BA48006820F00F002843B849086008460A
:104C0000006800F00F00A84201D00120E8E72078FA
:104C100000F0040004280ED1B1492069096801F0B0
:104C20007001884207D9AE48006820F07000216901
:104C30000843AB490860207800F00800082811D12B
:104C4000A749091D6069096801F07001884209D906
:104C5000A348001D006820F0700061690843A04966
:104C6000091D0860207800F01000102811D19C491F
:104C7000091DA069096801F4E061884209D99848D2
:104C8000001D006820F4E060A16908439449091DF3
:104C90000860207800F02000202811D190490831C8
:104CA000E069096801F07001884209D98C48083030
:104CB000006820F07000E169084389490831086004
:104CC000207800F0020002280ED18549E0680968CA
:104CD00001F00F01884207D98148006820F00F00D9
:104CE000E16808437E490860207800F00100002850
:104CF00050D07B48006820F47060A1680843784970
:104D000008606068022807D1754818380068C0F349
:104D10004040F8B9012063E76068032807D1704874
:104D200018380068C0F34060A0B9012058E76068F7
:104D3000012807D16A4818380068C0F3002048B934
:104D400001204DE7664818380068C0F3800008B9B4
:104D5000012045E762480838006820F007006168D4
:104D600008435F4908390860FCF786FF064608E0FB
:104D7000FCF782FF801B41F28831884201D9032071
:104D80002EE757480838006800F038006168B0EB3B
:104D9000C10FEDD1207800F0020002280ED1504959
:104DA000E068096801F00F01884207D24C480068AA
:104DB00020F00F00E168084349490860474800684F
:104DC00000F00F00A8420ED94448006820F00F0000
:104DD0002843424908600846006800F00F00A842D6
:104DE00001D00120FCE6207800F0040004280ED158
:104DF0003B492069096801F07001884207D23848B0
:104E0000006820F070002169084335490860207867
:104E100000F00800082811D13149091D60690968AE
:104E200001F07001884209D22D48001D006820F071
:104E30007000616908432A49091D0860207800F064
:104E40001000102811D12649091DA069096801F434
:104E5000E061884209D22248001D006820F4E06029
:104E6000A16908431E49091D0860207800F0200050
:104E7000202811D11A490831E069096801F0700150
:104E8000884209D216480830006820F07000E169B5
:104E9000084313490831086000F07AF9104909689D
:104EA000C1F303210F4A515C01F01F0120FA01F701
:104EB0000B48006800F00F001146085C00F01F006E
:104EC00027FA00F0084908600848076008480068A9
:104ED000FCF714FF8046404682E6000000200052A6
:104EE00018440258ACBA0008CC010024C8010024C0
:104EF000C001002410B58048006800F00F000728AA
:104F00000ED27D48006820F00F00C01D7A4908606D
:104F10000846006800F00F00072801D0012010BDEE
:104F2000FCF7AAFE04467548006840F0010073498A
:104F3000086006E0FCF7A0FE001B022801D9032050
:104F4000EDE76E48006800F004000028F2D06B48DE
:104F5000001D006840F080406849091D086000207D
:104F6000664910310860664866490860664908600D
:104F700066480068FCF7C2FE08B10120CFE7FCF7E5
:104F80007BFE044608E0FCF777FE001B41F2883107
:104F9000884201D90320C2E758481030006800F069
:104FA00038000028EFD1FCF767FE0446534800683C
:104FB000574908405149086006E0FCF75DFE001BB8
:104FC000642801D90320AAE74C48006800F40030A7
:104FD0000028F2D1FCF750FE04464848006820F053
:104FE00080704649086006E0FCF746FE001B022878
:104FF00001D9032093E74148006800F000700028C1
:10500000F2D1FCF739FE04463C48006820F080608D
:105010003A49086006E0FCF72FFE001B022801D980
:1050200003207CE73548006800F000600028F2D1DA
:10503000FCF722FE04463148006820F080502F49DA
:10504000086006E0FCF718FE001B022801D90320C7
:1050500065E72A48006800F000500028F2D127498F
:1050600018310860091D0860091D08602948234996
:10507000283108602848091D08602848091D086073
:105080000020091D08602548091D08600020091D31
:1050900008602248091D08600020091D08601748A3
:1050A000006820F480201549086000201349603111
:1050B0000860401E1149683108601048D03000680F
:1050C00040F480300D49D03108600B48006800F092
:1050D0000F0007280ED90848006820F00F00C01DF7
:1050E000054908600846006800F00F00072801D055
:1050F000012014E7002012E700200052004402586B
:105100000090D003C8010024CC010024C001002479
:1051100045EDF6FF000202020000FF0180020101DE
:1051200010B500F035F80D490968C1F303210C4AA8
:10513000515C01F01F0120FA01F40848006800F0FA
:105140000F001146085C00F01F0024FA00F005492A
:105150000860054804600846006810BD18440258FD
:10516000ACBA0008CC010024C801002400B5FFF748
:10517000D7FF05490968C1F30211044A515C01F0E7
:105180001F01C84000BD00001C440258ACBA000812
:10519000F0B5824E366806F0380636B1082E15D0C6
:1051A000102E15D0182E7DD114E07C4E103E36689E
:1051B000C6F3401646B1794E103E3668C6F3C107B5
:1051C000774E26FA07F000E07548E5E07548E3E021
:1051D0007548E1E0714E1836366806F003046F4EEC
:1051E00018363668C6F305116C4E1C36366806F064
:1051F00001056A4E24363668C6F3CC0616FB05F662
:1052000001EE106AB8EE410A002971D024B1012CD8
:1052100050D0022C6DD16DE0604E103E3668C6F362
:1052200040163EB35D4E103E3668C6F3C1075C4E75
:1052300026FA07F301EE103AF8EE411A01EE101AC1
:10524000B8EE411A81EE812A9FED581AC0EE011A7C
:10525000524E20363668C6F3080601EE106AB8EEE4
:10526000411A31EE811AF7EE001A31EE211A62EE80
:10527000010A1EE001EE101AB8EE411ADFED4C1AD9
:1052800081EE812A9FED491AC0EE011A434E203665
:105290003668C6F3080601EE106AB8EE411A31EE20
:1052A000811A00E076E0F7EE001A31EE211A62EE84
:1052B000010A5BE001EE101AB8EE411A9FED3D2A9B
:1052C000C2EE011A9FED391A80EE012A334E2036C4
:1052D0003668C6F3080601EE106AB8EE411A32EEDF
:1052E000011AB7EE002A31EE021A61EE810A3DE0A2
:1052F0004EE01DE001EE101AB8EE411ADFED2E1A55
:1053000081EE812A9FED291AC0EE011A234E203624
:105310003668C6F3080601EE106AB8EE411A31EE9F
:10532000811AF7EE001A31EE211A62EE010A1DE031
:1053300001EE101AB8EE411A9FED1E2AC2EE011AB4
:105340009FED1A1A80EE012A144E20363668C6F3F5
:10535000080601EE106AB8EE411A32EE011AB7EEF5
:10536000002A31EE021A61EE810A00BF00BF0B4E27
:1053700020363668C6F34626721C01EE102AB8EEB7
:10538000411AC0EE811ABCEEE11A11EE100A00E0DB
:10539000002001E0034800BF00BFF0BD10440258E8
:1053A0000090D00300093D0000127A000000004682
:1053B0000024744C0024744A0024F44A2DE9F04778
:1053C000044614B90120BDE8F087207800F0010000
:1053D000002870D0FA48006800F03808F848183003
:1053E000D0F80090B8F1100F06D0B8F1180F0FD117
:1053F00009F0030002280BD1F14810380068C0F30F
:10540000404000286AD06068002867D10120DAE7B0
:1054100000BF6068B0F5803F08D1E94810380068E7
:1054200040F48030E649103908602EE0606868B9C1
:10543000E3481038006820F48030E14910390860F2
:105440000846006820F4802008601EE06068B0F51F
:10545000A02F0DD1DA481038006840F48020D849D8
:10546000103908600846006840F4803008600CE09D
:10547000D3481038006820F48030D14910390860D2
:105480000846006820F48020086000BF606898B17A
:10549000FCF7F2FB054606E0FCF7EEFB401B642838
:1054A00001D903208FE7C64810380068C0F3404098
:1054B0000028F1D012E012E0FCF7DEFB054606E022
:1054C000FCF7DAFB401B642801D903207BE7BC48CA
:1054D00010380068C0F340400028F1D100BF2078A8
:1054E00000F00200022874D1B548006800F03808C6
:1054F000B3481830D0F80090B8F1000F05D0B8F1DB
:10550000180F56D109F00300D0BBAD481038006821
:10551000C0F3800018B1E06808B9012053E7A8483B
:105520001038006820F01900E1680843A4491039D8
:105530000860FCF7A1FB054606E0FCF79DFB401B5D
:10554000022801D903203EE79D4810380068C0F3C7
:1055500080000028F1D000BFFCF788FB41F2030176
:1055600088421AD8206940280BD195480C38006829
:1055700020F47C3040F4003091490C39086017E089
:1055800017E08F480C38006820F47C30216940EA2D
:1055900001308B490C3908600AE089480C380068F2
:1055A00020F0FE40217C40EA016085490C3908600A
:1055B00066E0E06888B382481038006820F019007F
:1055C000E16808437E4910390860FCF755FB054641
:1055D00007E056E0FCF750FB401B022801D90320EE
:1055E000F1E6774810380068C0F380000028F1D059
:1055F00000BFFCF73BFB41F2030188421AD8206947
:1056000040280BD16E480C38006820F47C3040F400
:1056100000306B490C39086017E017E068480C3817
:10562000006820F47C30216940EA013064490C397B
:1056300008600AE062480C38006820F0FE40217CD7
:1056400040EA01605E490C39086019E05C48103896
:10565000006820F001005A4910390860FCF70CFB83
:10566000054606E0FCF708FB401B022801D9032091
:10567000A9E6534810380068C0F380000028F1D133
:1056800000BF207800F0100010287CD14C48006842
:1056900000F038084A481830D0F80090B8F1080FE8
:1056A00006D0B8F1180F3DD109F00300012839D117
:1056B000434810380068C0F3002020B1E06980281A
:1056C00001D001207FE600BFFCF7D0FA41F20301D0
:1056D00088421AD8206A20280AD139480C38006834
:1056E00020F0F84040F0804035490C39086018E05F
:1056F00033480C38006820F0F84094F8201040EA55
:1057000081602F490C3908600BE02D48001F0068AC
:1057100020F07C5094F8201040EA01602849091FCD
:10572000086066E0E06978B325481038006840F00A
:105730008000234910390860FCF79EFA054606E010
:10574000FCF79AFA401B022801D903203BE61C48CB
:1057500010380068C0F300200028F1D000BFFCF72B
:1057600085FA41F2030188421CD8206A20280CD116
:1057700013480C38006820F0F84040F08040104991
:105780000C3908601AE035E01CE00D480C38006860
:1057900020F0F84094F8201040EA816008490C3964
:1057A00008600BE00648001F006820F07C5094F869
:1057B000201040EA01600249091F086019E000005A
:1057C00010440258FA48006820F08000F849086048
:1057D000FCF752FA054606E0FCF74EFA401B022899
:1057E00001D90320EFE5F2480068C0F3002000284B
:1057F000F2D100BF207800F00800082836D1606997
:10580000D0B1EB487430006840F00100E8497431D1
:105810000860FCF731FA054606E0FCF72DFA401B5C
:10582000022801D90320CEE5E14874300068C0F3B6
:1058300040000028F1D019E0DD487430006820F005
:105840000100DB4974310860FCF716FA054606E0F2
:10585000FCF712FA401B022801D90320B3E5D44813
:1058600074300068C0F340000028F1D1207800F0C7
:105870002000202830D1A069B8B1CD48006840F49C
:105880008050CB490860FCF7F7F9054606E0FCF7C5
:10589000F3F9401B022801D9032094E5C4480068AD
:1058A000C0F340300028F2D016E0C148006820F470
:1058B0008050BF490860FCF7DFF9054606E0FCF7B9
:1058C000DBF9401B022801D903207CE5B8480068B9
:1058D000C0F340300028F2D1207800F00400042802
:1058E0007DD1B448006840F48070B2490860FCF78C
:1058F000C3F9054606E0FCF7BFF9401B642801D94F
:10590000032060E5AB48006800F480700028F2D006
:1059100000BFA068012808D1A5487030006840F099
:105920000100A349703108602DE0A06868B9A04863
:105930007030006820F001009D4970310860084611
:10594000006820F0040008601DE0A06805280DD163
:1059500097487030006840F0040095497031086045
:105960000846006840F0010008600CE09048703084
:10597000006820F001008E49703108600846006818
:1059800020F00400086000BFA068A0B1FCF774F923
:10599000054608E0FCF770F9401B41F28831884267
:1059A00001D903200FE5824870300068C0F3400041
:1059B0000028EFD013E0FCF75FF9054608E0FCF79C
:1059C0005BF9401B41F28831884201D90320FAE497
:1059D000774870300068C0F340000028EFD1606A5B
:1059E00000287DD072481030006800F03800182878
:1059F00077D0606A022875D16D48006820F0807009
:105A00006B490860FCF738F9054606E0FCF734F905
:105A1000401B022801D90320D5E465480068C0F383
:105A200040600028F2D100BFD4E90A1041EA00101A
:105A30005F492831096840F2F332914308435C49D9
:105A400028310860208E401EC0F30800616B491E9B
:105A50004FF47E4202EA41210843218F491ED201C0
:105A600002EA014108433C21095D491E120202EA93
:105A7000016108434E493031086000BF081F0068CB
:105A800020F00100091F08604948343000684FF6D3
:105A9000F8718843A16C40EAC1004549343108607F
:105AA00043482C30006820F00C00216C084340492A
:105AB0002C3108600846006820F00200616C084341
:105AC0003B492C3108600846006840F4803008608B
:105AD0000846006840F4003008600846006802E0AC
:105AE00093E038E01FE040F480200860084600683A
:105AF00040F0010008602E48006840F080702C499A
:105B00000860FCF7B9F8054606E0FCF7B5F8401B5D
:105B1000022801D9032056E425480068C0F34060FC
:105B20000028F2D071E02248006820F080702049FF
:105B30000860FCF7A1F8054606E0FCF79DF8401B5D
:105B4000022801D903203EE419480068C0F34060F0
:105B50000028F2D159E01648283007681448303040
:105B60000668606A012821D007F00301A06A81421B
:105B70001CD1C7F30511E06A884217D1C6F30801AA
:105B8000206B401E814211D1606B401EC6F346213E
:105B900088420BD1A06B401EC6F30641884205D156
:105BA000E06B401EC6F30661884205D001200AE47E
:105BB000004402580048025815480068C0F3CC075A
:105BC000A06CB84221D012480838006820F00100CB
:105BD0000F4908390860FCF74FF8054600BFFCF78D
:105BE0004BF8401BFBD00A4800684FF6F871884319
:105BF000A16C40EAC1000649086005480838006801
:105C000040F0010002490839086000204AE4000021
:105C100034440258014691F88100704770B504463B
:105C20000CB9012070BD606A00B900BF0021A162FB
:105C30006349206888420CD062492068884208D0B5
:105C400061492068884204D0E0680F2801D901200A
:105C5000E8E7204601F015FB0546594920688842CF
:105C600009D058492068884205D0574920688842A1
:105C700001D0082D0DD852492068884207D05149DB
:105C80002068884203D050492068884203D1102DF3
:105C900001D90120C6E794F8810028B9002084F8D2
:105CA0008000204600F092F8022084F881002068ED
:105CB000006820F00100216808602068806800F416
:105CC000F816A069B0F1806F11D16068B0F5800F4F
:105CD00001D1A06B28B1606848B9A06BB0F1805FBA
:105CE00005D12068006840F4805021680860606831
:105CF00000F48000B0F5800F0BD1E068072808D3CE
:105D00002068006820F48070216D084321680860D5
:105D100005E02068006820F4807021680860A16AAE
:105D2000E06908433043E16B0843E16808432168B8
:105D30008860616A606B0843A16B0843A1690843EE
:105D40002169084361690843216A0843616808437F
:105D5000E16C0843A1680843A16C0843A16D0843A6
:105D60002168C860606878B92068806820F4C050F5
:105D700040F40060216888602068806820F4C0607A
:105D800040F48060216888602068006D20F0010088
:105D900021680865606800F48000B0F5800F07D1C5
:105DA0002068C06820F00040616D08432168C86029
:105DB0000020C4F88400012084F88100002031E72D
:105DC0000030014000380040003C004010B5B8B041
:105DD0000446142132A8FAF788FBC02102A8FAF77A
:105DE00084FB1E492068884236D181140020CDE909
:105DF00002101A9002A8FEF739F808B1FAF703FE6C
:105E000000BF1748006840F4004015490860084684
:105E1000006800F40040019000BF00BF00BF1048C0
:105E20000838006840F004000D4908390860084649
:105E3000006800F00400019000BF00BF4FF4E05084
:105E40003290022033900020349035900620369016
:105E500032A90448FBF706FE38B010BD003C0040F4
:105E6000E8440258000802582DE9F84304468846E1
:105E700017461D464FF0000900BF94F88000012826
:105E800002D10220BDE8F883012084F8800000BF21
:105E9000FBF7F2FE064694F88100012808D04FF087
:105EA000020900BF002084F8800000BF4846E9E7EF
:105EB000B8F1000F00D047B94FF0010900BF002032
:105EC00084F8800000BF4846DCE703205C3484F897
:105ED00025000020A062C4F80080A780E780A060B1
:105EE000A081E081A06160615C3CA068B0F5C02F3A
:105EF00006D12068006840F400602168086007E06F
:105F00002068C06820F4C02040F400302168C860D8
:105F1000206840686FF30F003843216848602068AC
:105F2000006840F00100216808606068B0F5800FEB
:105F300005D12068006840F4007021680860E068BE
:105F40000F2833D92DE02068406900F002000228B4
:105F50000CD1E06D006821680862E06D001DE0650D
:105F6000B4F86200401EA4F862001AE0FBF784FE59
:105F7000801BA84201D3681C00B995B9204601F0E6
:105F800015F900BF002084F8800000BFD4F8840019
:105F900040F48070C4F88400012084F8810003205C
:105FA00070E7B4F862000028CDD1A4E0E0680728CB
:105FB00046D940E02068406900F0020002281FD165
:105FC000B4F8620001280ED9E06B60B1E06D0068A2
:105FD00021680862E06D001DE065B4F86200801E73
:105FE000A4F8620027E0E06D008821680884E06D75
:105FF000801CE065B4F86200401EA4F862001AE05C
:10600000FBF73AFE801BA84201D3681C00B995B982
:10601000204601F0CBF800BF002084F8800000BFCC
:10602000D4F8840040F48070C4F88400012084F81F
:106030008100032026E7B4F862000028BAD15AE0B4
:1060400055E02068406900F00200022834D1B4F81D
:10605000620003280FD9E06B40280CD9E06D00687E
:1060600021680862E06D001DE065B4F86200001F61
:10607000A4F862003BE0B4F8620001280ED9E06B9E
:1060800060B1E06D008821680884E06D801CE065E7
:10609000B4F86200801EA4F8620028E0E06D007889
:1060A000216881F82000E06D401CE065B4F86200D2
:1060B000401EA4F862001AE0FBF7DEFD801BA84238
:1060C00001D3681C00B995B9204601F06FF800BFF4
:1060D000002084F8800000BFD4F8840040F4807071
:1060E000C4F88400012084F881000320CAE6B4F8D3
:1060F00062000028A5D12B460022082120460096E8
:1061000001F0CCF828B1D4F8840040F02000C4F8A5
:106110008400204601F04AF800BF002084F8800087
:1061200000BF012084F88100D4F8840008B1012068
:10613000A8E64846A6E6042808D14FF0E021096900
:1061400041F004014FF0E022116107E04FF0E0213F
:10615000096921F004014FF0E0221161704770B528
:1061600004462546681EB0F1807F01D301200FE070
:10617000681E4FF0E02148610F214FF0FF3004F01E
:10618000D7FD00204FF0E021886107200861002042
:1061900070BD000030B502460B4600BF92F83C00CF
:1061A000012801D1022030BD012082F83C0000BF4F
:1061B000022082F83D001068416810688468214D13
:1061C0001068A84203D0204D1068A84203D121F4E2
:1061D00070015868014321F070011868014310688C
:1061E0004160184D1068A8421BD01068B0F1804F74
:1061F00017D0164D1068A84213D0154D1068A8424C
:106200000FD0144D1068A8420BD00F4D1068A84253
:1062100007D0114D1068A84203D0104D1068A84255
:1062200005D124F08004986804431068846001203C
:1062300082F83D0000BF002082F83C0000BF00BF94
:10624000B1E70000000001400004014000040040EC
:1062500000080040000C00400018004000400140D1
:1062600010B504460CB9012010BD94F83D0028B9C2
:10627000002084F83C00204600F02AF8022084F830
:106280003D00211D206801F0A9FA012084F8480092
:1062900000BF84F83E0001213F20015540200155F8
:1062A00041200155422001554320015500BF00BF48
:1062B000012084F84400452001554620015547201F
:1062C000015500BF012084F83D000020CCE700000C
:1062D00008B5094A016891420DD100BF0749096814
:1062E00041F00401054A11601146096801F00401FA
:1062F000009100BF00BF08BD00080040E8440258FC
:10630000014691F83D00012801D00120704702208C
:1063100081F83D000868C06840F001000B68D86053
:106320001C4B086898421BD00868B0F1804F17D00A
:10633000194B0868984213D0184B086898420FD040
:10634000174B086898420BD0164B0868984207D044
:10635000154B0868984203D0144B0868984210D136
:1063600008688068124B00EA0302062A0FD0B2F5D3
:10637000803F0CD00868006840F001000B6818608E
:1063800005E00868006840F001000B681860002014
:10639000BCE700000000014000040040000800408D
:1063A000000C004000040140001800400040014083
:1063B000070001002DE9F04104460D46002700BF0B
:1063C00094F83C00012802D10220BDE8F0810120B0
:1063D00084F83C0000BF022084F83D0020688668F5
:1063E0004048064026F47F4620688660286870286A
:1063F00026D00CDC00F00F01002966D1001107281F
:1064000063D2DFE800F0555657584B374100B0F1E2
:10641000101F52D009DCB0F5805F10D0B0F5005FDE
:106420001BD0B0F5801F50D146E0A0F58010203879
:10643000002843D0102842D0202846D140E046E032
:10644000D5E902136A68206801F02EFA2068866890
:1064500046F077062068866039E0D5E902136A685D
:10646000206801F021FA2068806840F480402168AB
:1064700088602CE0EA686968206801F02DFA5021F4
:10648000206801F01DFA22E0EA686968206801F0DE
:1064900036FA6021206801F013FA18E0EA686968AA
:1064A000206801F019FA4021206801F009FA0EE095
:1064B00000BF00BF00BF00BF00BF00BF00BF00BFE4
:1064C0002968206801F0FCF901E0012700BF00BF46
:1064D000012084F83D0000BF002084F83C0000BF8C
:1064E000384672E788FFCEFF00BFFEE730B50B46A7
:1064F000002100BF16E00A24B4EB107F05D9302438
:1065000004EB107403F8114005E0412404EB10740F
:106510000A3C03F81140000100254C00641C1D5585
:106520004C1CE1B29142E6DB30BD000008B500240E
:1065300018480090184801F07EFC012080F3108874
:1065400000BF00204FF0E021086148618861FEF73C
:10655000D1FC00BF08E04FF0FF31104840F8241094
:106560000F4840F82410641C082CF4D3002080F35A
:10657000108800BF009845680099086880F3088873
:1065800000BF002080F3148800BFA84701E0FBF79C
:10659000DFFCFCE70098F01FE885002480E100E0C4
:1065A00080E200E07047704770477047704710B551
:1065B000FFF7F8FFFFF7F7FFFFF7F6FFFFF7F6FF2C
:1065C000FAF7C2F910BD00008168024A1140491C67
:1065D00081607047C0FFFF7F0146886800F440403B
:1065E00070470146886800F01F00704701468868C0
:1065F000C0F3C00070470146886800F00100704792
:106600000146886800F00100704701468868C0F3C1
:106610000070704701468868C0F3800070470146EB
:106620008868C0F3800070470146C86800F4406085
:1066300008B9012070470020FCE700008168024A89
:106640001140091D81607047C0FFFF7F70B500F1E8
:106650001404C1F3406504EB85031C68C1F30456C0
:106660000725B540AC43C1F3045502FA05F52C43A8
:106670001C6070BD826822F0E0720A43826070473D
:106680001FB500200090019002900390FBF790FB53
:1066900001208DF8000000208DF8010024200190D9
:1066A00012208DF8080000208DF8090001208DF8D7
:1066B0000A0003208DF80B0000208DF80C008DF8E7
:1066C0000D008DF80E008DF80F006846FBF742FBB9
:1066D0000420FBF783FB1FBD00B58BB000200890A2
:1066E00009900A901C2101A8F9F7FFFE31483249B0
:1066F00008604FF48020486008212F488160012104
:10670000C16004210161002101754175042181618D
:10671000012101770162002141628162C16201634E
:10672000416380F83810FAF7C9FD08B1FAF76BF940
:106730000020089008A92048FAF768FA08B1FAF78B
:1067400062F91E480190062002900120039040F259
:10675000FF70049004200590002006908DF81D0025
:1067600001A91548FAF704FB08B1FAF74CF91448E7
:1067700001900C20029001A90F48FAF7F9FA08B12C
:10678000FAF741F90F4801901220029001A90A4836
:10679000FAF7EEFA08B1FAF736F90B48019018202B
:1067A000029001A90448FAF7E3FA08B1FAF72BF9C5
:1067B0000BB000BD002002405C0200240004002A4F
:1067C0000008302E000021430000524700B587B07A
:1067D000142102A8F9F789FE00BF4548006840F07F
:1067E0000400434908600846006800F00400019076
:1067F00000BF00BF00BF0846006840F010000860FE
:106800000846006800F01000019000BF00BF00BF04
:106810000846006840F0010008600846006800F083
:106820000100019000BF00BF00BF0846006840F0B3
:10683000080008600846006800F00800019000BFEA
:1068400000BF00BF0846006840F0800008600846AE
:10685000006800F08000019000BF00BF012242F2FA
:10686000F4312448FBF7FCF900224FF63F7122482F
:10687000FBF7F6F9002248F208012048FBF7F0F98F
:1068800000224FF63F711E48FBF7EAF942F2F4305E
:1068900002900120039000200490059002A9154861
:1068A000FBF7E0F84FF63F700290012003900020C4
:1068B0000490059002A91048FBF7D4F848F20800AC
:1068C00002900120039000200490059002A90B483B
:1068D000FBF7C8F84FF63F700290012003900020AC
:1068E0000490059002A90648FBF7BCF807B000BD6C
:1068F000E0440258000802580010025800000258F4
:10690000000C025810B51648164908604FF4800074
:1069100048600021134881600721C16000210161A6
:1069200041614FF0806181614FF0C041C161002140
:10693000016241628162C1624FF080414163002186
:106940008163C163016441648164C164016541651F
:106950008165FFF763F908B1FAF755F810BD00003B
:10696000003C0040C002002400B587B00020039026
:1069700004900590069000900190029014481549EB
:10698000086040F69F7048600021124881606321D2
:10699000C1600021016180218161FFF761FC08B1C4
:1069A000FAF731F84FF48050039003A90948FFF734
:1069B00001FD08B1FAF727F800200090029069461F
:1069C0000448FFF7E7FB08B1FAF71DF807B000BD70
:1069D000000800404803002410B500220D490E486D
:1069E00001F072FC08B1FAF70EF80C490A4801F000
:1069F0002CFF08B1FAF707F80949074801F0DDF85C
:106A000008B1FAF700F8044801F0E8FF08B1F9F717
:106A1000FAFF10BD6C000024E8850024E00100248A
:106A2000AC01002400BFFEE770B502460D46FF2111
:106A3000FF2314460DE014F8010B5840094E306056
:106A400009483668805D4840C3B20848054E36683C
:106A5000815D281EA5F10106B5B2ECD143EA012003
:106A600080B270BD5C000024A4B80008A4B900087E
:106A700070B50246FF20FF2413460DE013F8015BBA
:106A80006540084E3560084D3668AD5D4540ECB256
:106A9000064D044E3668A85D0D1EA1F10106B1B287
:106AA000ECD170BD54000024A4B80008A4B90008BB
:106AB00070B50246FF24FF2013460DE013F8015B7A
:106AC0004540084E3560084D3668AD5D6540E8B21A
:106AD000064D044E3668AC5D0D1EA1F10106B1B243
:106AE000ECD170BD58000024A4B80008A4B9000877
:106AF00000BFFEE710B50248FBF742FC10BD0000E6
:106B00007C92002470B505460C46AA202870201FF0
:106B100081B22846FFF7CCFF291901F8040C201F89
:106B200081B22846FFF7A4FF291901F8030C70BDB4
:106B30002DE9F04704460D4626683746D6F84080D2
:106B400007F5306000EB4510D0F8089010488045FC
:106B50000BD909F40040B0F5004F06D14FF40041C5
:106B600007F5306000EB451081602046FCF71FF907
:106B70000748804508D9E068012805D104F2C442DD
:106B80000121206802F0FCFB0020BDE8F087000036
:106B90000A30544F2DE9F04705460C46D5F80090D1
:106BA0004E46D9F840A006F5306000EB4410D0F80E
:106BB0000880E868012855D108F0080008280FD19E
:106BC000434882450BD908F40040B0F5004F7BD113
:106BD0004FF4004106F5306000EB4410816073E033
:106BE00008F02000202806D1202106F5306000EBB7
:106BF0004410816068E008F02800002864D134481F
:106C000082450CD908F40040B0F5004F07D14FF48D
:106C1000004106F5306000EB4410816054E004EB65
:106C2000C40105F51F7000EB810706F5306000EB2D
:106C30004410396A0069C0F31200081A786164B917
:106C4000386930B905F2C4420121286802F098FB86
:106C500003E07969F8680844F860E1B22846FBF778
:106C6000F1F931E01B4882451BD108F40040B0F532
:106C7000004F07D14FF4004106F5306000EB44109F
:106C8000816021E008F02000202805D1202106F5B0
:106C9000306000EB44108160E1B22846FBF7D2F986
:106CA00012E06CB904EBC40105F51F7000EB810024
:106CB000006928B905F2C4420021286802F060FB8F
:106CC000E1B22846FBF7BEF90020BDE8F0870000DE
:106CD0000A30544F0A31544F2DE9F84F07460E46FB
:106CE000D7F80090C84606EBC60107F13C0000EB60
:106CF0008104D4E90410884202D90120BDE8F88F4C
:106D0000D4E90401451AA068A84200D2A568E81C8D
:106D10004FEA900A17E0D4E90401451AA068A84296
:106D200000D2A568E81C4FEA900A387BABB2F2B2F9
:106D300000904846E16803F019F8E0682844E060F4
:106D400060692844606108F5106000EB46108069B6
:106D500080B2504506D3D4E90410884202D220699B
:106D60000028D8D1D4E9040188420ED806F00F01DA
:106D7000012000FA01FB40F6340050F8080020EA38
:106D80000B0040F6340141F808000020B6E77047D8
:106D900010B5012210212E48FAF762FF01222021AE
:106DA0002B48FAF75DFF012240212948FAF758FFE6
:106DB000012204212648FAF753FF002025490870D4
:106DC000254908702549087025490870254908702B
:106DD000254908702549087025490870254908701B
:106DE000254908702549087025490870254908700B
:106DF00025490870254908702549087025490870FB
:106E000025490870254908702549087025490870EA
:106E100025490870254908702549087025490870DA
:106E200025490870254908702549087025490870CA
:106E300025490870254908702549087025490870BA
:106E400025490870254908702549087010BD0000C3
:106E500000080258230000242400002425000024F8
:106E600026000024270000242800002429000024F4
:106E70002A0000242B0000242C0000242D000024D4
:106E80002E0000242F0000243000002431000024B4
:106E90003200002433000024340000243500002494
:106EA0003600002437000024380000243900002474
:106EB0003A0000243B0000243C0000243D00002454
:106EC0001A0000241B0000241C0000241D000024C4
:106ED0001E0000241F0000242000002421000024A4
:106EE000220000242DE9F04104460E4600275548B3
:106EF000006800F00300032802D10120BDE8F08102
:106F000050482838006820F080604E4928390860D1
:106F1000FAF7B2FE054606E0FAF7AEFE401B02287D
:106F200001D90320EAE7474828380068C0F3C06069
:106F30000028F1D100BF4348006820F47C3021686C
:106F400040EA01303F490860A088401EC0F30800B5
:106F5000A168491E4FF47E4202EA41210843A189FB
:106F6000491ED20102EA01410843217C491E120256
:106F700002EA0161084333491031086000BF31481B
:106F8000001D006820F0C000616908432D49091DFB
:106F900008600846006820F02000A16908432949DC
:106FA000091D08600846006820F0100008602548A8
:106FB000143000684FF6F8718843E16940EAC10077
:106FC0002049143108601F48001D006840F010007F
:106FD0001C49091D08602EB90846006840F40020CD
:106FE000086012E0012E08D11648001D006840F428
:106FF00080101449091D086007E01248001D006850
:1070000040F400100F49091D08600E482838006838
:1070100040F080600B4928390860FAF72DFE0546DC
:1070200006E0FAF729FE401B022801D9032065E794
:10703000044828380068C0F3C0600028F1D0384602
:107040005CE70000284402582DE9F04104460E4652
:1070500000275548006800F00300032802D10120F2
:10706000BDE8F08150482838006820F080504E4933
:1070700028390860FAF700FE054606E0FAF7FCFD3D
:10708000401B022801D90320EAE747482838006856
:10709000C0F340700028F1D100BF4348006820F0E1
:1070A0007C70218840EA01503F490860A088401E5A
:1070B000C0F30800A168491E4FF47E4202EA412154
:1070C0000843A189491ED20102EA01410843217CFB
:1070D000491E120202EA016108433349183108606F
:1070E00000BF3148001D006820F44060616908431A
:1070F0002D49091D08600846006820F40070A16948
:1071000008432949091D08600846006820F480707A
:10711000086025481C3000684FF6F8718843E16923
:1071200040EAC10020491C3108601F48001D00686A
:1071300040F480701C49091D08602EB9084600689B
:1071400040F48000086012E0012E08D11648001DAE
:10715000006840F400001449091D086007E0124867
:10716000001D006840F080700F49091D08600E483E
:107170002838006840F080500B4928390860FAF739
:107180007BFD054606E0FAF777FD401B022801D992
:10719000032065E7044828380068C0F340700028E1
:1071A000F1D038465CE70000284402580268516973
:1071B0000268926942F0080203689A610268926963
:1071C00042F0100203689A610268126822F001021C
:1071D00003681A600268126940F26F339A430368C9
:1071E0001A610268926822F4404203689A6090F83B
:1071F0008120042A0ED001F020025AB1D0F8842058
:1072000042F08002C0F884200268926942F02002B5
:1072100003689A6190F88120032A0ED001F04002A1
:107220005AB1D0F8842042F00402C0F884200268E9
:10723000926942F0400203689A6101F400725AB107
:10724000D0F8842042F00102C0F8842002689269DC
:1072500042F4007203689A6101F480725AB1D0F866
:10726000842042F00802C0F884200268926942F447
:10727000807203689A610022A0F86220A0F86A2058
:10728000704710B501460124C86B04EB5013C86861
:10729000421CD01DC20802FB03F010BD2DE9F041D5
:1072A00006460D4617461C46DDF818800BE0FAF737
:1072B000E3FCA0EB0800A04201D3601C00B914B9A4
:1072C0000320BDE8F081306840692840A84201D120
:1072D000012000E00020B842E9D00020F1E770472B
:1072E00010B52448007828B9012210212248FAF765
:1072F000B7FC08E01F48007804F016F800221021BF
:107300001D48FAF7ADFC1D48007828B9012220215C
:107310001948FAF7A5FC08E01848007804F0A4F82A
:10732000002220211448FAF79BFC1548007828B960
:10733000012240211048FAF793FC08E01048007839
:1073400004F032F9002240210B48FAF789FC0D487D
:10735000007828B9012204210748FAF781FC08E0E7
:107360000848007804F0C0F9002204210248FAF726
:1073700077FC10BD2C000024000802582D000024CA
:107380002E0000242F00002410B5FAF77BFC10BD5E
:1073900000B59DB04C210AA8F9F7A7F8202102A852
:1073A000F9F7A3F80220FBF775FD00BF002001905C
:1073B0002B48006820F00100294908600846006851
:1073C00000F0010001902748006840F44040254942
:1073D00008600846006800F44040019000BF00BF0C
:1073E00000BF2048006800F40050B0F5005FF8D1FD
:1073F00021200A904FF480300B9001201090022041
:107400001390022114911591C82116910221179110
:10741000042118910221199108211A9100211B9130
:107420001C910AA8FDF7CAFF08B1F9F7ECFA3F2052
:107430000290032003900020049008200590402033
:10744000069007900001089040200990022102A8B0
:10745000FDF7C0FB08B1F9F7D6FA1DB000BD00007A
:107460002C040058184802583448006840F4700052
:10747000324908603248006800F00F00072806D241
:107480002F48006820F00F00C01D2D4908602D48CE
:10749000006840F001002B490860002029491031A4
:1074A00008602848006828490840264908602448A0
:1074B000006800F00F00072806D92148006820F076
:1074C0000F00C01D1E49086000201E4918310860C9
:1074D000091D0860091D08601C481A492831086008
:1074E0001B48091D08601B48091D08600020091D74
:1074F00008601848091D08600020091D086015482B
:10750000091D08600020091D08600E48006820F46D
:1075100080200C49086000200A49603108600E484C
:1075200000686FF30F00B0F1005F02D201200B4939
:10753000086043F2D2000A490860704788ED00E015
:1075400000200052004402587FEDF6EA00020202D9
:107550000000FF01800201010010005C0881005161
:107560000040005210B5FFF713FC00F0DDF902F007
:107570001FFCFFF71CF800F067F8002005490870B1
:1075800005490870054908700549087005490870E3
:1075900010BD00004A0000243F00002440000024E9
:1075A00041000024420000240020204908702049A6
:1075B00008702049087020490870012434E01F48F1
:1075C0000078012829D100201C4908701C48007847
:1075D000642804DA1A480078401C1949087084B1FC
:1075E00018480078012806D1FFF77AFE00201549D7
:1075F000087013490870F9F709FA03F06BFA0024D0
:107600000BE00F480078052806DDF9F7FFF903F0D5
:1076100099F908B903F0C0F801240448007808B1CA
:10762000F8F7C8FF02F0E2FBC9E700004D000024B4
:107630004E000024846500244C0000240400002433
:107640004B0000243E00002410B5002201214F48C9
:10765000FAF706FB002202214C48FAF701FB002250
:1076600004214A48FAF7FCFA002208214748FAF7B1
:10767000F7FA002210214548FAF7F2FA00222021F9
:107680004248FAF7EDFA00224FF400613F48FAF75A
:10769000E7FA00224FF480513C48FAF7E1FA002261
:1076A0004FF480713948FAF7DBFA00224FF4007189
:1076B0003648FAF7D5FA012251033448FAF7D0FADE
:1076C000012291033148FAF7CBFA0122D1032F4866
:1076D000FAF7C6FA00224FF480612C48FAF7C0FA94
:1076E000002201212A48FAF7BBFA00220221284889
:1076F000FAF7B6FA002204212548FAF7B1FA002277
:1077000008212348FAF7ACFA002210212048FAF7A2
:10771000A7FA002220211E48FAF7A2FA00224FF40D
:1077200000611B48FAF79CFA00224FF48051184878
:10773000FAF796FA00224FF480711548FAF790FA9A
:1077400000224FF400711248FAF78AFA012251031D
:107750000F48FAF785FA012291030D48FAF780FAEB
:107760000122D1030A48FAF77BFA00224FF4806124
:107770000748FAF775FA0A20064908800120488070
:1077800001030548F8F78FFE10BD000000100258F5
:10779000000C02586E650024BA6500240C4800688D
:1077A00000F0010098B10A48006820F00100084983
:1077B000086008480088401C064908800846008880
:1077C000642804DD00200880012003490870704708
:1077D00010080040680000240400002410B502686E
:1077E000294B98420ED0B0F1804F0BD0274B9842D6
:1077F00008D0274B984205D0264B984202D0264B02
:10780000984203D122F070024B681A431E4B9842F3
:1078100017D0B0F1804F14D01C4B984211D01C4BA4
:1078200098420ED01B4B98420BD01B4B984208D06D
:107830001A4B984205D01A4B984202D0194B9842E5
:1078400003D122F44072CB681A4322F080034C69C2
:1078500043EA040202608B68C3620B6883620A4BCE
:1078600098420BD00C4B984208D00C4B984205D054
:107870000B4B984202D00B4B984201D10B6903632A
:107880000123436110BD00000000014000040040DE
:1078900000080040000C004000040140004001408E
:1078A000004401400048014030B50C46816821F495
:1078B0007F4142EA032525432943816030BD000012
:1078C0000A468168034B194042F00703194381605F
:1078D000704700008FFFCFFF30B50B461446026A99
:1078E000056A25F001050562816921F0F00141EA90
:1078F000041122F00A021A438161026230BD30B5E0
:107900000B461446056A25F0100505628169026A76
:1079100021F4704141EA043122F0A00242EA03124C
:107920008161026230BD000010B5002208211E20D6
:10793000FAF7BCFA1E20FAF7A5FA06480068C068F4
:1079400040F0010003490968C8600248FEF7D8FC0E
:1079500010BD0000480300242DE9F04104460D4607
:10796000D4F8B862D4F8C072D4F8B80278B305EB92
:10797000850104F1140000EB8100806808B305EB79
:10798000850104F1140000EB810005EBC50281685C
:1079900007F13C0000EB82008068B1FBF0F200FBD5
:1079A000121070B9002105EB850204F1140000EB00
:1079B0008200816000231A462946204600F019FF04
:1079C00002E00020C6F814020020BDE8F081FFE7C5
:1079D0000220FAE770B504460E46D4F8B852314694
:1079E000204600F0A2FDC5F80C02D4F8B80248B158
:1079F000D5F80402D4F8BC12CA6805F503719047A3
:107A0000002070BD0220FCE770B504460E4600253C
:107A10008121204600F084FC0021E1620121204602
:107A200000F07EFC0021C4F86C118221204600F099
:107A300077FC00212164D4F8B80250B1D4F8BC120C
:107A400048688047D4F8B80201F0E0F90020C4F893
:107A5000B802284670BD70B50546D5F8B842D5F8CD
:107A6000BC0278B194F80002FF280BD094F80122F0
:107A700094F80002D5F8BC128B6821469847FF2085
:107A800084F80002002070BD01460A2008800148E9
:107A900070470000D40100240146202008800148DE
:107AA000704700003C020024014620200880014865
:107AB000704700001C020024014620200880014875
:107AC000704700003C0200242DE9F04104460F46B7
:107AD0000026207C88B94FF40073022281212046C1
:107AE00000F084FD0121E1624B020222204600F0F9
:107AF0007DFD0121C4F86C110FE040230222812199
:107B0000204600F073FD0121E1624023022220465D
:107B100000F06CFD0121C4F86C11082303228221BE
:107B2000204600F063FD012121644FF4077001F04D
:107B30006FF9C4F8B802D4F8B80208B901261CE0FD
:107B4000D4F8B852D4F8BC12086880470020C5F8B1
:107B50001402C5F81802207C40B94FF400730121CB
:107B60002046D5F8042200F059FD06E0402301210B
:107B70002046D5F8042200F051FD3046BDE8F081E2
:107B800070B50446D4F8B852D4F8B80298B1207C45
:107B900040B94FF4007301212046D5F8042200F0CB
:107BA0003DFD06E0402301212046D5F8042200F0E7
:107BB00035FD002070BD0220FCE70246022011B115
:107BC000C2F8BC12002070470246D2F8B832C3F89F
:107BD00004120020704710B50346D3F8B842C4F829
:107BE0000812C4F81022002010BD2DE9FC41054602
:107BF0000C46D5F8B862002001900090002720784C
:107C000000F0600040B320285FD1E088E0B1207828
:107C100000F0800060B1E2886078D5F8BC128B6813
:107C200031469847E2883146284600F0E6F812E0EF
:107C3000607886F80002A07986F80102E288314671
:107C4000284600F0B9F806E06078D5F8BC120022AA
:107C50008B68214698473EE0607820B10A2812D010
:107C60000B282AD11FE095F89C02032805D1022297
:107C70006946284600F0C1F804E02146284600F095
:107C80008FF802271FE095F89C02032805D10122F6
:107C900001A9284600F0B1F804E02146284600F08A
:107CA0007FF802270FE095F89C02032804D02146B4
:107CB000284600F075F8022705E02146284600F026
:107CC0006FF8022700BF00BF05E02146284600F0FC
:107CD00067F8022700BF00BF3846BDE8FC8170B5D9
:107CE0000546D5F8B842D5F8B802A8B1D4F81402C0
:107CF00080B90120C4F81402D4F810122963B4F832
:107D0000100283B281212846D4F8082200F071FDC8
:107D1000002070BD0120FCE70220FAE770B50446A0
:107D20000D46D4F8B4022946426820469047002008
:107D300070BD70B504460D4694F89C02012804D02D
:107D4000022803D003280CD101E000BF00BF6888DF
:107D5000012805D10020C4F8A402204600F05EF8F6
:107D600004E02946204600F01BF800BF00BF70BDAC
:107D700070B506460C4615462B4622460021304675
:107D800000F04CFC002070BD70B506460C46154650
:107D90002B4622460021304600F02BFD002070BD0E
:107DA00070B504460D468021204600F0E7FC002116
:107DB000204600F0E3FC70BD70B504460E46154643
:107DC0000320C4F894024FF4AE700551001D055114
:107DD0002B4632460021204600F020FC002070BDDA
:107DE00010B504460520C4F8940200231A4619462B
:107DF000204600F013FC002010BD70B504460E466E
:107E000015460220C4F89402E56125622B463246ED
:107E10000021204600F0EDFC002070BD10B50446A6
:107E20000420C4F8940200231A461946204600F0A4
:107E3000E0FC002010BD10B50446012084F89C022F
:107E40002179D4F8B402426820469047204600F0D9
:107E5000B7FC204600F04AFB002010BD70B5054677
:107E60000C462DB92246064906A000F0EEF904E0C2
:107E70002246034903A000F0E8F9014870BD000064
:107E8000AC88002457494E55534220436F6E6669B3
:107E90006700000002461220088001487047000079
:107EA0009000002470B505460C462DB922460649BF
:107EB00006A000F0CAF904E02246034903A000F03E
:107EC000C4F9014870BD0000AC88002457494E55E4
:107ED000534220496E74657266616365000000005C
:107EE0000246042008800148704700005C0100241D
:107EF00070B505460C462246024903A000F0A5F9DC
:107F0000004870BDAC880024414358454C00000037
:107F100070B505460C462DB92246064906A000F06C
:107F200094F904E02246034903A000F08EF90148C9
:107F300070BD0000AC880024444D5F4C697465201E
:107F4000344B000070B505460C461A202080F8F727
:107F500043FE014870BD00006001002470B5044676
:107F60000D46E888012804D029462046FFF718FF6F
:107F70001EE094F89C02012804D0022803D00328B4
:107F800010D109E000BF0020A060012204F1080127
:107F90002046FFF732FF0AE00122211D2046FFF7AD
:107FA0002CFF04E029462046FFF7FAFE00BF00BF81
:107FB00070BDF8B504460E4600200090002700254D
:107FC00070880012082877D2DFE800F0E2040C2065
:107FD000E2E2C0D0207CD4F8B0120A68694690472B
:107FE0000746DCE0207C40B9D4F8B402816A6846D8
:107FF000884707460220787007E0D4F8B402C16AC7
:1080000068468847074602207870C8E0B0780328A1
:1080100046D005DC58B101281CD0022873D12CE0D1
:10802000042851D0052862D0EE28F7D173E0D4F8A7
:10803000B002406838B1207CD4F8B0124A68694672
:108040009047074605E031462046FFF7A9FE681C29
:10805000C5B279E0D4F8B002806838B1207CD4F899
:10806000B0128A6869469047074605E031462046C7
:10807000FFF796FE681CC5B266E0D4F8B002C0688F
:1080800038B1207CD4F8B012CA68694690470746D8
:1080900005E031462046FFF783FE681CC5B253E079
:1080A000D4F8B002006940B1207CD4F8B0120A695B
:1080B00069469047074606E06AE031462046FFF7EA
:1080C0006FFE681CC5B23FE0D4F8B002406938B119
:1080D000207CD4F8B0124A6969469047074605E00B
:1080E00031462046FFF75CFE681CC5B22CE0D4F890
:1080F000B002806940B1207CD4F8B0128A69694628
:108100009047074606E018E031462046FFF748FE54
:10811000681CC5B218E0D4F8B402806B30B1D4F852
:10812000B402816B68468847074605E03146204621
:10813000FFF736FE681CC5B206E031462046FFF761
:108140002FFE681CC5B200BF00BF28E0207C30B9FC
:10815000D4F8B402416B68468847074605E03146CB
:108160002046FFF71DFE681CC5B218E0207C40B910
:10817000D4F8B402016B6846884707460720787038
:1081800005E031462046FFF70BFE681CC5B206E04D
:1081900031462046FFF704FE681CC5B200BF00BF91
:1081A00005B1F8BDBDF8000088B1F08878B1F0885D
:1081B000BDF80010884202DDBDF8000000E0F08844
:1081C0000090BDF8002039462046FFF716FEF088E3
:1081D00010B92046FFF722FE00BFE2E7014600206B
:1081E00002E0421CD0B2491C0A78002AF9D170473B
:1081F00070B504460D4694F89C02012804D002286C
:1082000003D003281AD101E000BF00BFE88802288C
:1082100004D029462046FFF7C3FD14E00120E060AA
:10822000D4F8A40218B1E06840F00200E060022235
:1082300004F10C012046FFF7E0FD04E0294620464A
:10824000FFF7AEFD00BF00BF70BD2DE9F041044651
:108250000D4617460026FCB12046FFF7BFFF02215E
:1082600001EB400038803A783046711CCEB22A5477
:1082700003223046711CCEB22A540AE014F8012BB6
:108280003046711CCEB22A5400223046711CCEB248
:108290002A5420780028F1D1BDE8F0810146002061
:1082A00031B1012906D0022906D0032908D105E001
:1082B000002007E0022005E0012003E0022001E0A9
:1082C000022000BF00BF704770B504460D46164639
:1082D0000CB9022070BDD4F8B40210B10020C4F86B
:1082E000B4020DB1C4F8B052012084F89C0226708B
:1082F000204600F023F90020ECE72DE9F041044688
:108300000D46002600272946D4F8C002F9F71DFFC4
:1083100006463046FFF7C2FF07463846BDE8F08103
:108320002DE9F04104460D46002600272946D4F8E1
:10833000C002F9F7D5FE06463046FFF7AFFF074605
:108340003846BDE8F0812DE9F04104460E46174657
:10835000002E64D104F11405D4F89402022848D107
:10836000D5E90301884210D9D5E90301401AE86034
:10837000A88982B239462046FFF706FD00231A4637
:108380001946204600F04AF93EE02969A868B0FB8A
:10839000F1F201FB1200B8B92969A868884213D329
:1083A000A868D4F8981288420ED2002211462046BE
:1083B000FFF7EAFC0020C4F8980200231A46194689
:1083C000204600F02BF91FE0D4F8B402C06840B199
:1083D00094F89C02032804D1D4F8B402C168204662
:1083E00088478021204600F0C9F92046FFF7F8FCB5
:1083F0000AE0D4F89402042802D0D4F8940218B900
:108400008021204600F0BAF994F8A002012818D182
:10841000204600F022FA002084F8A00211E0D4F8EF
:10842000B402406950B194F89C02032806D1D4F8F4
:10843000B402314642692046904702E00220BDE87E
:10844000F0810020FBE72DE9F04104460E46174677
:10845000BEBB04F5AA75D4F89402032825D1D5E94A
:108460000301884210D9D5E90301401AE860D5E933
:108470000301884201D2E86800E0286982B23946E7
:108480002046FFF775FC2FE0D4F8B402006940B134
:1084900094F89C02032804D1D4F8B4020169204660
:1084A00088472046FFF7BAFC1EE0D4F8940205285E
:1084B0001AD10020C4F894020021204600F05EF991
:1084C00012E0FFE7D4F8B402806950B194F89C023E
:1084D000032806D1D4F8B402314682692046904779
:1084E00002E00220BDE8F0810020FBE770B5044601
:1084F00000250026D4F8C002F9F7B4FD0546284649
:10850000FFF7CCFE0646304670BD0146002070479E
:1085100010B50446012084F89C022179D4F8B402F5
:10852000426820469047002010BD70B504460D46B5
:108530002946D4F8C002F9F746FE70BD10B50446CE
:10854000207800282AD11648C0F80845C4F8C0028F
:10855000144813490860092048600221104801614D
:108560000021C160022181610021C161016241627B
:108570008162C1620163FAF79CFA08B1F8F743FA25
:1085800080210748F9F71BFD402200210448F9F734
:108590001BFD802201210248F9F716FD002010BDC5
:1085A0007C9200240000084010B50246D2F8C03288
:1085B00001F08000802809D101F07F0000EBC004A9
:1085C00003F13C0000EB8400807810BD01F07F00D7
:1085D00000EBC00403F51F7000EB84008078F4E723
:1085E0000246002070470246002070472DE9F04700
:1085F00004460F4615461E464FF00008C1462B465E
:1086000032463946D4F8C002F9F7E8FD80464046C4
:10861000FFF744FE81464846BDE8F0872DE9F04764
:1086200004460D4616461F464FF00008C1463B461D
:1086300032462946D4F8C002F9F716FE8046404675
:10864000FFF72CFE81464846BDE8F08710B504468A
:108650004023002211462046FFF7C8FF01214FF4B6
:10866000AC70015140214FF4B270015140230022FF
:1086700080212046FFF7BAFF0121A16140216162FC
:10868000012084F89C020020C4F894026060C4F8C1
:10869000A402D4F8B80228B12179D4F8B40242680F
:1086A00020469047002010BD014691F89C02042806
:1086B00003D191F89D0281F89C020020704710B50B
:1086C000044694F89C02032808D1D4F8B402C06987
:1086D00020B1D4F8B402C16920468847002010BDFB
:1086E00002461174002070472DE9F04104460D4602
:1086F000002600272946D4F8C002FAF73DFB0646BB
:108700003046FFF7CBFD07463846BDE8F08170B52F
:1087100004460D46294604F52A7000F082F801202F
:10872000C4F8940240F2AE20005BC4F8980294F8BA
:10873000A80200F01F0020B1012808D0022812D1A1
:108740000BE004F52A71204600F04FF913E004F520
:108750002A71204600F0BFFA0DE004F52A71204688
:1087600000F09DF907E094F8A80200F0800120468F
:1087700000F004F800BF00BF002070BD2DE9F041FB
:1087800004460D46002600272946D4F8C002F9F712
:108790008EFD06463046FFF781FD07463846BDE8A8
:1087A000F08170B5044600250026D4F8C002FAF71F
:1087B00007FB05462846FFF771FD0646304670BDAB
:1087C00070B5044600250026D4F8C002FAF71EFB57
:1087D00005462846FFF762FD0646304670BD014655
:1087E00091F89C0281F89D02042081F89C020020EF
:1087F00070472DE9F04704460D4616461F464FF0D8
:108800000008C1463B4632462946D4F8C002F9F773
:1088100093FD80464046FFF741FD81464846BDE84E
:10882000F0870A7802704A7842708B78CA7803EB36
:10883000022242800B794A7903EB022282808B79F3
:10884000CA7903EB0222C28070470246002011B1B0
:10885000C2F8B41200E002207047014600207047C1
:1088600070B504460D46A88810BBE88800BB688830
:1088700080281DD2A87800F07F0694F89C02032877
:1088800004D129462046FFF78BFA15E084F89E6252
:1088900031462046FFF728FF2046FFF7BFFA1EB1FA
:1088A000022084F89C0207E0012084F89C0203E087
:1088B00029462046FFF774FA70BD70B504460D4690
:1088C0000226D4F8B40238B1D4F8B40229460268BA
:1088D0002046904700B90026304670BD70B504466A
:1088E0000D46A8783649087008460078012804DD4E
:1088F00029462046FFF754FA60E094F89C020228CB
:1089000002D003284FD11CE02D480078A8B12C4894
:1089100000786060032084F89C0229480178204692
:10892000FFF7CBFF022804D129462046FFF738FA8B
:1089300070BD2046FFF772FA02E02046FFF76EFA9C
:108940003BE01F48007870B9022084F89C021C4864
:10895000007860601A4801782046FFF7DFF920466A
:10896000FFF75CFA1EE0164909786068884216D065
:1089700021792046FFF7D2F911480078606010484D
:1089800001782046FFF799FF022804D129462046A6
:10899000FFF706FACCE72046FFF740FA02E0204650
:1089A000FFF73CFA09E029462046FFF7F9F90448A9
:1089B00001782046FFF7B2F900BF00BF00BFB7E75C
:1089C000D001002470B505460C466088012804D10A
:1089D000C5F8A4022846FFF721FA70BD10B5044679
:1089E0002046FFF7DEFE002010BD70B505460C46A0
:1089F00000266078A02805D12146284600F0B3F96A
:108A0000304670BD207800F0600060B1202802D0B0
:108A100040283CD100E000BFD5F8B402214682686E
:108A20002846904738E060780A2829D2DFE800F02D
:108A30001923281E280A0528140F21462846FFF767
:108A4000B8FA22E021462846FFF70AFF1DE021463A
:108A50002846FFF743FF18E021462846FFF77EFA35
:108A600013E021462846FFF7C3FB0EE021462846C7
:108A7000FFF7A8FF09E021462846FFF75AF904E06E
:108A800021462846FFF78CF900BF00BF04E02146CD
:108A90002846FFF785F900BF00BF3046B1E72DE952
:108AA000F04105460E464FF000083479307800F06A
:108AB000600060B1202802D0402871D100E000BFE2
:108AC000D5F8B402314682682846904700E13078F4
:108AD00000F06000202809D1D5F8B4023146826840
:108AE0002846904780464046BDE8F08170780028CF
:108AF0005ED001282FD0032876D195F89C02022859
:108B000002D0032820D110E054B1802C08D0214697
:108B10002846FFF733FE80212846FFF72FFE03E0AB
:108B200031462846FFF73CF913E0708840B93CB164
:108B3000802C05D0F08818B921462846FFF71EFE84
:108B40002846FFF76BF904E031462846FFF728F97D
:108B500000BF00BFB5E095F89C02022802D00328B0
:108B60001FD110E054B1802C08D021462846FFF7D1
:108B700005FE80212846FFF701FE03E03146284626
:108B8000FFF70EF912E0708848B904F07F0018B1C1
:108B900021462846FFF7B1FB2846FFF73FF905E0DD
:108BA00091E031462846FFF7FBF800BF00BF88E0A0
:108BB00095F89C02022802D0032876D126E034B131
:108BC000802C04D031462846FFF7EAF872E004F022
:108BD0008000802809D104F07F0000EB800105F1BE
:108BE000140000EB810008E066E004F07F0000EB79
:108BF000800105F5AA7000EB81000746002038606F
:108C0000022239462846FFF7F8F853E004F08000C6
:108C100080280ED104F00F0000EB800105F1140054
:108C200000EB8100406898B931462846FFF7B8F854
:108C300040E004F00F0000EB800105F5AA7000EBA6
:108C40008100406820B931462846FFF7A9F831E095
:108C500004F08000802808D104F07F0000EB800140
:108C600005F1140000EB810007E004F07F0000EB49
:108C7000800105F5AA7000EB810007460CB1802C3D
:108C800002D10020386009E021462846FFF78CFC1D
:108C900010B10120386001E000203860022239461E
:108CA0002846FFF7AAF805E0FFE731462846FFF718
:108CB00077F800BF00BF04E031462846FFF770F8A0
:108CC00000BF00BF04E031462846FFF769F800BF47
:108CD00000BF404608E770B505460C4600262078E0
:108CE000C12805D12146284600F03DF8002070BD7E
:108CF000207800F0600030B1202802D040282AD12E
:108D000000E000BF00BF95F89C02012804D00228B3
:108D100003D0032818D101E000BF00BF207901284B
:108D20000DDCD5F8B40221468268284690470646F5
:108D3000E08840B93EB92846FFF770F803E02146C5
:108D40002846FFF72DF804E021462846FFF728F8CB
:108D500000BF00BF04E021462846FFF721F800BF0E
:108D600000BF0020C3E7F8B506460C46A0880428DB
:108D700002D005280ED106E0D6F8B002C1696846D7
:108D8000884705460BE0D6F8B002016A6846884776
:108D9000054604E021463046FFF702F8F8BD00BF63
:108DA000BDF8000088B1E08878B1E088BDF8001017
:108DB000884202DDBDF8000000E0E0880090BDF8C8
:108DC000002029463046FFF718F800BFE6E700000C
:108DD000014628200880014870470000A4000024B4
:108DE00001468E200880014870470000CC00002416
:108DF00010B50446224603490348FFF726FA014806
:108E000010BD0000AC880024A4BA00087047000020
:108E100001460148704700008897002470B5044659
:108E20000B4622461978587801282CD140F61C00B0
:108E300080581D7805F00F060125B540ADB22843D6
:108E400040F61C05A85002F5106000EB41100068C8
:108E500000F40040F0BB1889C0F30A001D7940EA15
:108E6000854040EA815040F0805040F4004002F5D7
:108E7000106505EB41152D68284302F5106505EBDB
:108E8000411528602DE040F61C0080581D7805F043
:108E90000F060125B540144E06EA0545284340F665
:108EA0001C05A85002F5306000EB4110006800F48A
:108EB000004078B91889C0F30A001D7940EA85405E
:108EC00040F0805040F4004002F5306505EB41155C
:108ED0002D6800E005E0284302F5306505EB4115FB
:108EE0002860002070BD00000000FFFF01460A4618
:108EF0004FF410608058C30ADB024FF410608350B7
:108F000040F60400805840F4807340F6040083501B
:108F1000002070470FB470B504460A98012817D195
:108F2000A06B20F48030A063E0681E490840E06038
:108F3000E06820F44010E0601198012803D1E06857
:108F400040F48010E060204600F030F8054612E062
:108F5000E06840F04000E060204600F027F8054659
:108F60000E9820B9A06B40F48030A06303E0A06BA2
:108F700020F48030A063079801280ED1E06D80B204
:108F8000E065E06D08490843E065A06840F0060030
:108F9000A060A06840F02000A060284670BC5DF88A
:108FA00014FB0000BFFFBDFF0000EE0308B5014643
:108FB0000020009000BF0098401C0090104A0098CC
:108FC000904201D9032008BD086900F00040002844
:108FD000F1D000200090086940F00100086100BF56
:108FE0000098401C0090064A0098904201D9032046
:108FF000E9E7086900F001000028F1D100BFE2E7CD
:10900000400D030070B504460B4622461978587887
:10901000012848D102F5106000EB4110006800F013
:109020000040B0F1004F17D102F5106000EB411085
:10903000006840F0006502F5106000EB411005602B
:1090400002F5106000EB4110006840F0804502F529
:10905000106000EB4110056040F63C0080581D7820
:1090600005F00F060125B540ADB2A84340F63C051A
:10907000A85040F61C0080581D7805F00F06012509
:10908000B540ADB2A84340F61C05A85002F51060EB
:1090900000EB411000682B4D284002F5106505EBF0
:1090A000411528604BE002F5306000EB411000688C
:1090B00000F00040B0F1004F17D102F5306000EB36
:1090C0004110006840F0006502F5306000EB41108F
:1090D000056002F5306000EB4110006840F080450B
:1090E00002F5306000EB4110056040F63C0080580E
:1090F0001D7805F00F060125B540134E06EA05451B
:10910000A84340F63C05A85040F61C008558187846
:1091100000F00F060120B0400B4E06EA00408543E8
:1091200040F61C00855002F5306000EB41100068ED
:10913000064D284002F5306505EB411528600020FA
:1091400070BD0000007833EC0000FFFF0078F3EF03
:1091500001460A46D2F8000E20F00300C2F8000EC5
:1091600040F60400805820F0020340F604008350CB
:109170000020704701460A46D2F8000E20F0030096
:10918000C2F8000E40F60400805840F0020340F69A
:1091900004008350002070470FB4F0B50646002746
:1091A0003546002405E0002106F5827040F82410C1
:1091B000641C0F2CF7D31098A0B940F60400405956
:1091C00040F0020140F604004151B06B20F4001061
:1091D000B063306840F040003060306840F080009C
:1091E000306003E0B06B40F40010B0630020C5F8BD
:1091F000000ED5F80008C5F800080B9801280BD11F
:10920000099820B90021304600F004FD08E0012152
:10921000304600F0FFFC03E00321304600F0FAFC8A
:109220001021304600F0FAFB00B10127304600F073
:10923000CBFB00B1012700214FF401604151001D1B
:10924000415140F61C00415100242EE005F510600C
:1092500000EB4410006800F00040B0F1004F10D166
:109260003CB94FF0006105F5106000EB441001605F
:109270000DE04FF0904105F5106000EB44100160E7
:1092800005E0002105F5106000EB441001600021AD
:1092900005F5106000EB441001614FF67F3105F5D4
:1092A000106000EB44108160641C0698A042CDD889
:1092B00000242EE005F5306000EB4410006800F05B
:1092C0000040B0F1004F10D13CB94FF0006105F5FE
:1092D000306000EB441001600DE04FF0904105F567
:1092E000306000EB4410016005E0002105F53060BE
:1092F00000EB44100160002105F5306000EB4410E4
:1093000001614FF67F3105F5306000EB441081605C
:10931000641C0698A042CDD84FF40160405920F457
:1093200080714FF4016041510020B0616FF08040C6
:109330007061089818B9B06940F01000B061B06968
:1093400009490843B0610C9818B1B06940F00800B1
:10935000B0611098012803D1B06904490843B06195
:109360003846F0BC5DF814FB00383C800400004037
:109370000146886820F001008860002070470000E6
:1093800070B503460C4619461D6C1848854209D92C
:109390004FF43060405800F00040B0F1004F01D170
:1093A000002070BD0026C1F8106BD1F8100B40F4FE
:1093B0000026C1F8106BD1F8100B40F01806C1F868
:1093C000106BD1F8100B40F0C046C1F8106B012CA7
:1093D00009D1C1F8142B4FF43060405840F080267A
:1093E0004FF4306046500020DBE700000A30544F55
:1093F00030B504460B4622461978587801281ED10C
:1094000002F5106000EB4110006820F4001502F531
:10941000106000EB411005601879032802D018791C
:1094200002282AD102F5106000EB4110006840F0DC
:10943000805502F5106000EB411005601DE002F55B
:10944000306000EB4110006820F4001502F5306038
:1094500000EB411005601879032802D01879022822
:109460000BD102F5306000EB4110006840F08055F0
:1094700002F5306000EB41100560002030BD30B5D2
:1094800004460B46224619785878012821D102F566
:10949000106000EB4110006800F0004060B959B165
:1094A00002F5106000EB4110006820F0804502F5E5
:1094B000106000EB4110056002F5106000EB4110F8
:1094C000006840F4001502F5106000EB41100560E3
:1094D00020E002F5306000EB4110006800F0004031
:1094E00060B959B102F5306000EB4110006820F01E
:1094F000804502F5306000EB4110056002F53060F8
:1095000000EB4110006840F4001502F5306000EBFC
:1095100041100560002030BD2DE9F84381460E461C
:1095200017464D463478707801287DD1306920BBCC
:1095300005F5106000EB44100069E349084005F5AB
:10954000106101EB4411086105F5106000EB441057
:10955000006940F4002105F5106000EB4410016142
:1095600005F5106000EB44100069C10CC90405F555
:10957000106000EB441001616BE005F5106000EB3A
:1095800044100069C10CC90405F5106000EB4410DB
:10959000016105F5106000EB44100069CA490840FC
:1095A00005F5106101EB4411086194B9B1683069A7
:1095B000884201D9B068306105F5106000EB4410B5
:1095C000006940F4002105F5106000EB44100161D2
:1095D00014E0B16830690844401EB0FBF1F0BA49AC
:1095E000C94301EAC04005F5106101EB4411096966
:1095F000084305F5106101EB4411086105F51060A1
:1096000000EB441000693169C1F31201084305F50C
:10961000106101EB441108613079012819D105F579
:10962000106000EB441000E093E0006920F0C041BE
:1096300005F5106000EB4410016105F5106000EBCA
:109640004410006940F0005105F5106000EB441033
:109650000161012F36D1F06928B105F5106000EBEA
:109660004410F1694161307901281ED140F60800AB
:10967000405900F4807060B905F5106000EB4410AB
:10968000006840F0005105F5106000EB44100160E7
:109690000BE005F5106000EB4410006840F08051CD
:1096A00005F5106000EB4410016005F5106000EB5B
:1096B0004410006840F0044105F5106000EB4410D0
:1096C0000160FEE005F5106000EB4410006840F01A
:1096D000044105F5106000EB441001603079012869
:1096E0000FD030690028ECD040F634004059317872
:1096F00001F00F0201219140084340F63401485126
:10970000DFE040F60800405900F4807060B905F5CC
:10971000106000EB4410006840F0005105F5106047
:1097200000EB441001600BE005F5106000EB441005
:10973000006840F0805105F5106000EB44100160B6
:109740000097308A83B232784846F16800F00EFB09
:10975000B7E005F5306000EB44100069C10CC904A6
:1097600005F5306000EB4410016105F5306000EB59
:10977000441000695449084005F5306101EB44117B
:10978000086104BB306908B1B0683061B06830620C
:1097900005F5306000EB44100069316AC1F3120135
:1097A000084305F5306101EB4411086105F53060AF
:1097B00000EB4410006940F4002105F5306000EB37
:1097C0004410016145E03069D0B905F5306000EB27
:1097D00044100069B168C1F31201084305F5306116
:1097E00001EB4411086105F5306000EB441000699D
:1097F00040F4002105F5306000EB4410016128E0E1
:10980000B16830690844401EB0FBF1F01FFA80F8DF
:10981000B06800FB08F0306205F5306000EB4410E2
:1098200000692949C94301EAC841084305F5306187
:1098300001EB4411086105F5306000EB441000694C
:10984000316AC1F31201084305F5306101EB44119F
:109850000861012F07D1F06828B105F5306000EBF1
:109860004410F1684161307901281ED140F60800AA
:10987000405900F4807060B905F5306000EB441089
:10988000006840F0005105F5306000EB44100160C5
:109890000BE005F5306000EB4410006840F08051AB
:1098A00005F5306000EB4410016005F5306000EB19
:1098B0004410006840F0044105F5306000EB4410AE
:1098C00001600020BDE8F883FFFF07E078B503469C
:1098D0000024009400201A464C78012C35D10C78D5
:1098E00002F5106505EB4414246804F00044B4F15B
:1098F000004F60D10C7805EB4414246844F00066F6
:109900000C7805EB441426600C7805EB44142468AD
:1099100044F080460C7805EB4414266000BF009CA0
:10992000641C009442F21075009CAC4201D90120E5
:109930000AE00C7802F5106505EB4414246804F085
:109940000044B4F1004FEAD035E00C7802F5306500
:1099500005EB4414246804F00044B4F1004F2AD10C
:109960000C7805EB4414246844F000660C7805EB91
:10997000441426600C7805EB4414246844F08046B7
:109980000C7805EB4414266000BF009C641C009416
:1099900042F21075009CAC4201D901200AE00C781B
:1099A00002F5306505EB4414246804F00044B4F17A
:1099B000004FEAD000BF78BD0146886840F0010042
:1099C000886000207047000008B501460020009024
:1099D00000BF0098401C00900F4A0098904201D9A7
:1099E000032008BD086900F000400028F1D00020E5
:1099F00000901020086100BF0098401C0090064AAB
:109A00000098904201D90320EBE7086900F01000AC
:109A10001028F1D00020E4E7400D030008B502460D
:109A20000020009000BF0098401C0090104B009850
:109A3000984201D9032008BD106900F000400028B9
:109A4000F1D000200090202040EA8110106100BF7A
:109A50000098401C0090064B0098984201D90320C2
:109A6000E9E7106900F020002028F1D00020E2E7AB
:109A7000400D030010B501460B4640F60804E458BB
:109A800004F006020AB9002006E0022A01D0062AE4
:109A900001D1022000E00F2010BD0146486900F00E
:109AA0000100704701460B4640F61800C258001DE1
:109AB000C058024090B2704701460B4640F618006D
:109AC000C258001DC0580240100C704770B50246C5
:109AD00013464FF40166F45840F63406F55801F089
:109AE0000F0625FA06F606F0010644EAC61403F549
:109AF000106606EB4116B66806EA040070BD10B5A4
:109B00000246134603F5306404EB4114A06840F6A6
:109B10001404E458204010BD014648698A69104089
:109B200070472DE9F04104460D46274628464FEA86
:109B3000920C02F0030300210AE04FF4805858F819
:109B40000780C0F80080401C401C401C401C491C81
:109B50006145F2D39BB100214FF4805858F807605B
:109B600000BF4FEAC10826FA08F880F80080491CB7
:109B7000401CA3F101081FFA88F3002BF1D1BDE8C6
:109B8000F08170B504460E460025E06820F0C04024
:109B9000E060012E10D1E06840F00050E06000BFAE
:109BA0000120F7F78FFE6D1C2046FFF776FF012896
:109BB00015D0322DF4D312E07EB9E06840F0804039
:109BC000E06000BF0120F7F77DFE6D1C2046FFF727
:109BD00064FF20B1322DF5D301E0012070BD322D9C
:109BE00001D10120FAE70020F8E710B502460B4644
:109BF0001146D1F8000820F4FE60C1F80008D1F841
:109C000000084FF4FE6404EA03142043C1F800087E
:109C1000002010BD02461346D3F800080843C3F8DD
:109C2000000800207047000030B503461446022C9F
:109C300049D12D48814204D32C48814201D20F22C0
:109C400045E02A48814204D32948814201D20E22AC
:109C50003DE02748814204D32648814201D20D22AB
:109C600035E02448814204D32348814201D20C22AA
:109C70002DE02148814204D32048814201D20B22A9
:109C800025E01E48814204D31D48814201D20A22A8
:109C90001DE01B48814204D31A48814201D20922A7
:109CA00015E01848814204D31748814201D20822A6
:109CB0000DE01548814204D31448814201D20722A5
:109CC00005E0062203E00CB9092200E00922D86869
:109CD00020F47050D860D8684FF4705505EA82259A
:109CE0002843D860002030BDC0ACD800C0E1E400FB
:109CF0000024F40080730601A0491A01002D3101EF
:109D000040A44C0100366E0120ABA6010048E801DA
:109D1000F0B507463D4600240CE04FF67F3105F5CF
:109D2000106000EB4410816005F5306000EB4410DA
:109D30008160641C0F2CF0D300214FF4016041516D
:109D4000001D415140F61C0041513846FFF73CFED2
:109D500006460EB13046F0BD10213846FFF75EFED4
:109D600006460EB13046F6E73046F4E72DE9F043FB
:109D700004460D461E46DDF81CC0A0462946BCF12F
:109D8000000F12D1F01C870800230CE0D1F80090DE
:109D900008F5805000EB0230C0F80090491C491CC7
:109DA000491C491C5B1CBB42F0D30020BDE8F0837A
:109DB00000200749087007490860074908700749EB
:109DC000086007490870074908700749087070471C
:109DD0000C000024080000241400002410000024BB
:109DE0001500002416000024170000242DE9F84F68
:109DF000FE480078012803D0FD48007801287DD175
:109E0000FA480078012803D10020FA49087005E0DB
:109E1000F7480078012801D1F64908700020F3497D
:109E20000870F3490870F4484078F4490870F24823
:109E300080784870F0480079EF49C97840EA0120FD
:109E4000EE494880EE480068001FEB49085CEB498A
:109E50000872EB480068C01EE749085CE749487291
:109E60000846007A497A40EA0120E4494881E448FA
:109E70000068001F81B2E048FCF7D6FD8046DF484D
:109E80004189414577D1FCF790FBDB480078AA284F
:109E900072D1DA48007801286FD1D848407801287B
:109EA0006CD1D548407918B1D34840790C2860DB93
:109EB000D14840793C285CDCCF48807918B1CE4845
:109EC00080790C2855DBCC4880793C2851DCCA4885
:109ED000C07918B1C848C0790C284ADBC648C07997
:109EE0003C2846DCC448007A18B1C348007A0C28E4
:109EF0003FDBC148007A3C283BDC00E0BBE3BE48C6
:109F0000407A18B1BC48407A052832DBBA48407A1A
:109F10003C282EDCB848807A18B1B748807A0528EA
:109F200027DBB548807A3C2823DCB348C07A18B1D7
:109F3000B148C07A0C281CDBAF48C07A3C2818DC3A
:109F4000AD48007B18B1AC48007B0C2811DBAA4857
:109F5000007B3C280DDCA848407B18B1A648407B1C
:109F60000C2806DBA448407B3C2802DCA54800788E
:109F700028B901273AE0CCE3E6E0EAE061E09E4858
:109F80004079A14908709C488079A04908709A4896
:109F9000C0799F4908709848007A9E49087099488E
:109FA000007810B3984800789B490870974800786B
:109FB0009A49087096480078994908709548007841
:109FC0009849087094480078974908709348007839
:109FD0009649087092480078954908709148007831
:109FE000944908700120944908700027AA209349D9
:109FF0000870824800784870804840788870002057
:10A00000C8700120087117B1FF20487102E00020DC
:10A010008A49487106218948FCF74AFD87498871B9
:10A0200006218648FCF724FD8449C8710D2008727A
:10A030000A2048726F48007818B10A217F48F6F765
:10A0400067FC6E48407802287ED1AA207B490870C0
:10A0500001204870022088700020C8700920087113
:10A060006D48007810B90020487103E0744800780A
:10A07000724948716948007818B900206F498871A1
:10A0800003E0704800786D4988716548007818B918
:10A0900000206A49C87103E06B4800786749C871BD
:10A0A0006048007818B900206449087203E06748E6
:10A0B0000078624908726648007818B900205F4944
:10A0C000487203E0634800785C494872624800784F
:10A0D00018B900205949887203E060480078574950
:10A0E00088725F48007818B900205449C87203E0AC
:10A0F0005C4800785149C8725B48007818B9002064
:10A100004E49087303E0594800784C490873584891
:10A11000007818B900204949487303E05548007891
:10A12000464948730E214548FCF7C2FC43498873F1
:10A130000E214248FCF79CFC4049C8730D2008746E
:10A140000A204874122100E0A1E03C48F6F7E0FB49
:10A1500002E32A480078022846D12848407801289E
:10A160001ED10027244880792349497940EA0120FB
:10A1700041490880084600881E2802DD1E2008800C
:10A1800001271D48007A1C49C97940EA01203A4953
:10A190004880084640881E2802DD1E20488001278E
:10A1A000AA2026490870154800784870134840785E
:10A1B00088700020C8700120087117B1FF20487115
:10A1C00002E000201D49487106211C48FCF770FC84
:10A1D0001A49887106211948FCF74AFC1749C871C9
:10A1E0000D2008720A2049E052E00000150000240A
:10A1F000180000241900002494030024786500242A
:10A20000080000244D0000243F00002440000024EA
:10A2100041000024420000242C0000242D000024D2
:10A220002E0000242F0000243500002436000024D6
:10A2300037000024380000243E000024506500242C
:10A2400023000024240000242500002426000024EC
:10A2500030000024270000243100002428000024BE
:10A260003200002429000024330000242A000024A6
:10A27000340000242B0000246E6500244872FE4840
:10A280000078002803D00A21FC48F6F741FB63E27E
:10A29000FB48007803287AD1002040231A46014663
:10A2A000009000F04BFE002405E0F649601D085CBC
:10A2B0000855601C84B2F2484088A042F5DCF048A2
:10A2C00040880A2190FBF1F01FFA80FA082600244A
:10A2D0001EE0B01C6043401CEA49095CB01C6043AE
:10A2E000E84A105C41EA002900250DE0B01C04FB9F
:10A2F0000050801CE34911F800B02A4659464846F0
:10A30000F6F736FB681C85B2B542EFDB601C84B201
:10A310005445DEDB00240FE0002509E0DA4800EBBD
:10A320008410405DD94901EB84114855681C85B201
:10A33000402DF3DB601C84B2402CEDDBAA20CF491A
:10A340000870CF4800784870CD4840788870002069
:10A35000C87001200871002048710621C748FCF729
:10A36000A7FBC64988710621C448FCF781FBC34995
:10A37000C8710D2008720A204872BF480078002872
:10A3800085D00A21BD48F6F7C3FAE5E1FFE7BC48EE
:10A390000078042831D1BA484078012802D1BC495C
:10A3A000087002E00020BA490870AA20B34908707A
:10A3B000B34800784870B248407888700020C87070
:10A3C00001200871002048710621AC48FCF770FBA1
:10A3D000AA4988710621A948FCF74AFBA749C87118
:10A3E0000D2008720A204872A34800780028CCD0BB
:10A3F0000A21A248F6F78CFAAEE1A1480078FD28C0
:10A400007ED19F484078012853D1A24908700103AA
:10A410009E48F6F748F8F6F7A1FA9F4800789F495A
:10A4200008709F4800789F4908709F4800789F49AE
:10A4300008709F4800789F490870984800789E49A6
:10A440000870984800789D490870984800789C49A1
:10A450000870984800789B49087001209A49087054
:10A460009A490870AA208549087085480078487084
:10A470008348407888700020C870012008714871B6
:10A4800006217E48FCF714FB7C49887106217B4835
:10A49000FCF7EEFA7949C8710D2008720A2048725B
:10A4A000754800780028A7D00A217448F6F730FADA
:10A4B00052E17348407800289ED101207549087008
:10A4C000F6F742FA0020744908707449087074491C
:10A4D00008707449087074490870744908707449A8
:10A4E0000870744908706D480078734908706D48A9
:10A4F0000078724908706D4800787149087000E072
:10A5000030E06C4800786F49087001206E4908708F
:10A5100000206E490870AA205849087058480078F1
:10A5200048705748407888700020C8700120087132
:10A53000487106215148FCF7BBFA50498871062141
:10A540004E48FCF795FA4D49C8710D2008720A2053
:10A550004872494800780028AAD00A214748F6F7EF
:10A56000D7F9F9E046480078FF2841D158480078EB
:10A57000B0B157484288011D4048F5F71DFF5448C7
:10A5800081783E48FCF7BEFA3B48007820B150483D
:10A5900041883A48F6F7BCF900204D490870DBE0E5
:10A5A000AA20364908703648007848703448407808
:10A5B00088700020C87001200871002048710621B1
:10A5C0002E48FCF775FA2D49887106212B48FCF7B7
:10A5D0004FFA2A49C8710D2008720A20487226488D
:10A5E0000078002803D00A212448F6F791F9B3E057
:10A5F00023480078F02828D121484078012824D128
:10A60000AA201E490870F0204870012088700020A0
:10A61000C87001200871FF20487106211748FCF717
:10A6200047FA1649887106211448FCF721FA1349A4
:10A63000C8710D2008720A2048720F480078C8B10E
:10A640000A210E48F6F764F986E00D480078F028F4
:10A6500010D10B484078FF287ED1AA200749087006
:10A66000F0204870FF2088700020C8700120087119
:10A6700000202FE070E078E01900002450650024ED
:10A680007865002494030024BA750024BA65002478
:10A690004C0000244E0000243F0000242C00002425
:10A6A000400000242D000024410000242E0000243E
:10A6B000420000242F00002435000024360000242E
:10A6C00037000024380000243E0000244D00002400
:10A6D00084650024487106212548FCF7E9F92449DE
:10A6E000887106212248FCF7C3F92149C8710D2061
:10A6F00008720A2048721F48007818B10A211C48C5
:10A70000F6F706F94FF4487000F030FBFBF70EFF48
:10A7100022E0AA2016490870FE20487001208870A7
:10A720000020C87001200871487106211048FCF70C
:10A73000BFF90F49887106210D48FCF799F90C49BA
:10A74000C8710D2008720A2048720A48007818B1B2
:10A750000A210748F6F7DCF8002007490860084698
:10A7600001680648F5F79FFE00BFBDE8F88F0000BE
:10A7700050650024190000240800002494030024DC
:10A7800000BFFEE702468A4202DD501AC0B270479F
:10A79000881AC0B2FBE7000070B55D480078002859
:10A7A00001DD012000E000205A490978002901DD7F
:10A7B000012100E00021084457490978002901DD02
:10A7C000012100E00021084454490978002901DDF5
:10A7D000012100E000214618002E7DDD7004050CEB
:10A7E000AA204F490871FF214D4841710121817113
:10A7F000290AC171057204244548007870B104210A
:10A80000601C82B214464648001D815445480178B8
:10A81000601C82B214464248001D81543D480078B5
:10A8200070B10521601C82B214463D48001D815460
:10A830003D480178601C82B214463948001D81549D
:10A840003548007870B10621601C82B21446344845
:10A85000001D815435480178601C82B2144630488E
:10A86000001D81542D48007870B10721601C82B210
:10A8700014462B48001D81542D480178601C82B27B
:10A8800014462748001D8154601C84B22146244888
:10A89000001DFCF70DF9C1B22148001D01552146EC
:10A8A000FCF7E6F8C2B21E48001D611C4254A01C11
:10A8B00084B20D211A48001D01550A21601C82B284
:10A8C00014461748001D8154002011490870114991
:10A8D00008701149087000E018E010490870154927
:10A8E000087015490870154908701549087001204D
:10A8F0000B490870084645804088093081B20848F5
:10A90000001DF6F705F800200549087070BD00002D
:10A910001A0000241B0000241C0000241D00002439
:10A920008465002423000024240000242500002442
:10A93000260000242C0000242D0000242E000024DA
:10A940002F00002410B55748007805281EDD554813
:10A95000017855480078FFF715FF00EE100AF8EE71
:10A96000400A5048007800EE100AB8EE400AB5EEF2
:10A97000001A20EE010AF4EEC00AF1EE10FA05DD2D
:10A980004A480078401C4949087002E000204749C5
:10A9900008704748007805281EDD4548017845487D
:10A9A0000078FFF7EFFE00EE100AF8EE400A40488C
:10A9B000007800EE100AB8EE400AB5EE001A20EE5C
:10A9C000010AF4EEC00AF1EE10FA05DD3A4800780B
:10A9D000401C3949087002E00020374908703748A8
:10A9E000007805281EDD3548017835480078FFF7E6
:10A9F000C9FE00EE100AF8EE400A3048007800EE7A
:10AA0000100AB8EE400AB5EE001A20EE010AF4EE84
:10AA1000C00AF1EE10FA05DD2A480078401C2949E9
:10AA2000087002E0002027490870274800780528B0
:10AA30001EDD2548017825480078FFF7A3FE00EECB
:10AA4000100AF8EE400A2048007800EE100AB8EE2E
:10AA5000400AB5EE001A20EE010AF4EEC00AF1EE4B
:10AA600010FA05DD1A480078401C1949087002E008
:10AA70000020174908700D48007802280BDC0E48AA
:10AA80000078022807DC0F480078022803DC104811
:10AA90000078022803DDF5F7B5FE002010BD012087
:10AAA000FCE700002C000024230000241A000024EE
:10AAB0002D000024240000241B0000242E0000246C
:10AAC000250000241C0000242F0000242600002460
:10AAD0001D00002410B58648007800283EDD84481B
:10AAE000017884480078FFF74DFE012836DD804864
:10AAF000017880480078FFF745FE00EE100AF8EE76
:10AB0000400A7B48007800EE100AB8EE400AB5EE25
:10AB1000001A20EE010AF4EEC00AF1EE10FA19D282
:10AB20007348007873490978884209DD72480078D3
:10AB3000401C714908700846007800F0F5FB0DE0F4
:10AB40006D480078401E6C4908700846007800F097
:10AB5000EBFB03E06648007800F0E6FB674800780E
:10AB600000283EDD6548017865480078FFF70AFE59
:10AB7000012836DD6148017861480078FFF702FE60
:10AB800000EE100AF8EE400A5C48007800EE100A69
:10AB9000B8EE400AB5EE001A20EE010AF4EEC00A43
:10ABA000F1EE10FA19D255480078554909788842D3
:10ABB00009DD54480078401C524908700846007866
:10ABC00000F052FC0DE04F480078401E4D490870DF
:10ABD0000846007800F048FC03E04848007800F0A0
:10ABE00043FC4948007800283EDD47480178474843
:10ABF0000078FFF7C7FD012836DD43480178434858
:10AC00000078FFF7BFFD00EE100AF8EE400A3E485C
:10AC1000007800EE100AB8EE400AB5EE001A20EEF9
:10AC2000010AF4EEC00AF1EE10FA19D236480078A3
:10AC300036490978884209DD35480078401C344996
:10AC400008700846007800F0AFFC0DE0304800784E
:10AC5000401E2F4908700846007800F0A5FC03E06C
:10AC60002948007800F0A0FC2A48007800283EDD42
:10AC70002848017828480078FFF784FD012836DD50
:10AC80002448017824480078FFF77CFD00EE100A84
:10AC9000F8EE400A1F48007800EE100AB8EE400AAD
:10ACA000B5EE001A20EE010AF4EEC00AF1EE10FA39
:10ACB00019D21848007818490978884209DD1748E0
:10ACC0000078401C154908700846007800F00CFD1B
:10ACD0000DE012480078401E1049087008460078C0
:10ACE00000F002FD03E00B48007800F0FDFC10BD11
:10ACF0002C00002423000024350000242D00002413
:10AD000024000024360000242E0000242500002406
:10AD1000370000242F0000242600002438000024DF
:10AD200002480068C0F30220704700000CED00E00C
:10AD300010B5002804DB0A07130E054A135406E079
:10AD40000A07140E034A00F00F031B1FD45410BD52
:10AD500000E400E018ED00E010B504460420FBF725
:10AD6000EAF90148046010BD0000002430B5044633
:10AD7000002504E04FF47A7000F004F86D1CA54241
:10AD8000F8D330BD70B5034600224FF0E026756958
:10AD90000D4E366803FB06F44FF0E026B16910E073
:10ADA0004FF0E026B06988420BD0884202D20E1ADA
:10ADB000324402E02E1A0E4432440146A24200D32D
:10ADC00000E0EDE700BF70BD00000024FBF758FC79
:10ADD00000BF5848006800F4003000B139E000BFFF
:10ADE00000BF00BFBFF34F8F00BF00BF00BF00BF59
:10ADF00000BF00BFBFF36F8F00BF00BF00BF0020C8
:10AE00004D49086000BF00BF00BFBFF34F8F00BFB8
:10AE100000BF00BF00BF00BF00BFBFF36F8F00BF08
:10AE200000BF00BF4348006840F40030414908605B
:10AE300000BF00BF00BFBFF34F8F00BF00BF00BF08
:10AE400000BF00BF00BFBFF36F8F00BF00BF00BFD8
:10AE500000BF00BF374B1B6803F4803303B148E0E9
:10AE60000023344C7034236000BF00BF00BFBFF329
:10AE70004F8F00BF00BF00BF231F1868C0F34E31C3
:10AE800000BFC0F3C90200BF43F6E07303EA4113F9
:10AE90004FF0404404EA82742343274C103423606B
:10AEA00000BF00BF131EA2F10102EDD10B1EA1F1E4
:10AEB0000101E6D100BF00BF00BFBFF34F8F00BF4D
:10AEC00000BF00BF1B4B1B6843F48033194C236049
:10AED00000BF00BF00BFBFF34F8F00BF00BF00BF68
:10AEE00000BF00BF00BFBFF36F8F00BF00BF00BF38
:10AEF00000BFF6F7D3FE10484C30006840F0040065
:10AF00000D494C310860FCF743FAFBF75FFCFBF797
:10AF1000E3FBFBF761FDFBF7F5FCFBF725FDFCF719
:10AF200021FB4FF4C870FFF717FF01E0FCF73CFB73
:10AF3000FCE7000014ED00E050EF00E0F0B504463F
:10AF40000D46059E204612E029460AE0402801DA17
:10AF5000402900DB08E0084F07EB80177E544F1CA8
:10AF6000B9B2EF188F42F1DC00BF471CB8B2A71886
:10AF70008742E9DCF0BD0000BA75002470B50546D3
:10AF800000242AE0002201211C48F6F769FE002275
:10AF900002211A48F6F764FE002204211748F6F74A
:10AFA0005FFE002208211548F6F75AFE0022102104
:10AFB0001248F6F755FE002220211048F6F750FE01
:10AFC000012251020D48F6F74BFE00224FF40071AA
:10AFD0000A48F6F745FE601C84B2102CD2DB012231
:10AFE000D1020648F6F73CFE00224FF40061034808
:10AFF000F6F736FE2846FFF7C5FE70BD000C025876
:10B000002DE9F04106460D461746002478E04448F5
:10B0100000EB8510C4F10F01405C28B101221146FC
:10B020004048F6F71DFE04E0002201213D48F6F7F6
:10B0300017FE3B4800EB8510C4F11F01405C28B1AE
:10B04000012202213748F6F70BFE04E0002202211C
:10B050003448F6F705FE324800EB8510C4F12F01A5
:10B06000405C28B1012204212E48F6F7F9FD04E0E6
:10B07000002204212B48F6F7F3FD294800EB851048
:10B08000C4F13F01405C28B1012208212548F6F7B0
:10B09000E7FD04E0002208212248F6F7E1FD204800
:10B0A00000EB8510C4F14F01405C28B10122102152
:10B0B0001C48F6F7D5FD04E0002210211948F6F7E8
:10B0C000CFFD174800EB8510C4F15F01405C28B14B
:10B0D000012220211348F6F7C3FD04E000222021BD
:10B0E0001048F6F7BDFD012251020E48F6F7B8FDF3
:10B0F00000224FF400710B48F6F7B2FD601C84B2D9
:10B10000102C84DB0122D1020648F6F7A9FD0022AB
:10B110004FF400610348F6F7A3FDBDE8F08100009D
:10B12000BA650024000C025870B505460E462C4640
:10B1300019E0402C00DB19E0002221462046FFF7F1
:10B140005FFF0420FFF71EFE0021204600F052F8AA
:10B150003320FFF717FE002000F00AF80020FFF769
:10B160000DFF601C84B2A819A042E2DC00BF70BDD4
:10B1700070B5054600242AE0002201211C48F6F79C
:10B180006FFD002202211A48F6F76AFD0022042111
:10B190001748F6F765FD002208211548F6F760FD0F
:10B1A000002210211248F6F75BFD002220211048F2
:10B1B000F6F756FD012251020D48F6F751FD002227
:10B1C0004FF400710A48F6F74BFD601C84B2102C56
:10B1D000D2DB0122D1020648F6F742FD00224FF4ED
:10B1E00000610348F6F73CFD2846FFF7CBFD70BD34
:10B1F000001002582DE9F041044688462046E11728
:10B2000004EB1171C1F30F17E11704EB1171091170
:10B21000A4EB01118EB2002574E0062F64D2DFE8A2
:10B2200007F0031323334353C5F10F00B04205D198
:10B23000012211463B48F6F713FD04E000220121EC
:10B240003848F6F70DFD4FE0C5F10F00B04205D1CB
:10B25000012202213348F6F703FD04E00022022117
:10B260003048F6F7FDFC3FE0C5F10F00B04205D1D4
:10B27000012204212B48F6F7F3FC04E0002204210C
:10B280002848F6F7EDFC2FE0C5F10F00B04205D1DC
:10B29000012208212348F6F7E3FC04E000220821FC
:10B2A0002048F6F7DDFC1FE0C5F10F00B04205D1E4
:10B2B000012210211B48F6F7D3FC04E000221021E4
:10B2C0001848F6F7CDFC0FE0C5F10F00B04205D1EC
:10B2D000012220211348F6F7C3FC04E000222021BC
:10B2E0001048F6F7BDFC00BF00BF012251020D4817
:10B2F000F6F7B6FC00224FF400710A48F6F7B0FCEE
:10B30000681C85B2102D88DB0122D1020548F6F7B2
:10B31000A7FC00224FF400610248F6F7A1FCBDE84B
:10B32000F08100000010025830B52DED088B83B07D
:10B3300005461120029000BF00BF002434E04548BC
:10B3400000EB8400D0ED000A00EE105AB8EE400A7F
:10B35000F4EEC00AF1EE10FA24DB3E49601C01EB6A
:10B360008000D0ED000A00EE105AB8EE400AF4EE6C
:10B37000C00AF1EE10FA15D8084600EB840090EDF3
:10B3800000AA354800EB8400D0ED00AA601C01EB58
:10B390008000D0ED008A3049601C01EB800090ED08
:10B3A000009A03E0601CC4B20D2CC8D300BF39EE74
:10B3B0006A0A78EECA0AC0EE209AB0EE49BA09EEDF
:10B3C000E8BA00EE105AB8EE400AB0EE4B8A09EE29
:10B3D000808A9FED220AB4EEC08AF1EE10FA02DBF9
:10B3E000FF2001900FE0B7EE000AB4EEC08AF1EE44
:10B3F00010FA02D80120019005E0BCEEC80A10EE58
:10B40000100AC0B2019000224FF400711448F6F700
:10B4100027FC6423012202A91248FAF725FD00BF88
:10B420001048FAF7F7FB0228FAD06423012201A999
:10B430000C48FAF719FD00BF0A48FAF7EBFB02289F
:10B44000FAD0012251020648F6F70AFC03B0BDEC1F
:10B45000088B30BD6CB8000834B8000800007F438A
:10B4600000080258C002002430B52DED088B83B0CF
:10B4700005461120029000BF00BF002434E045487B
:10B4800000EB8400D0ED000A00EE105AB8EE400A3E
:10B49000F4EEC00AF1EE10FA24DB3E49601C01EB29
:10B4A0008000D0ED000A00EE105AB8EE400AF4EE2B
:10B4B000C00AF1EE10FA15D8084600EB840090EDB2
:10B4C00000AA354800EB8400D0ED00AA601C01EB17
:10B4D0008000D0ED008A3049601C01EB800090EDC7
:10B4E000009A03E0601CC4B20D2CC8D300BF39EE33
:10B4F0006A0A78EECA0AC0EE209AB0EE49BA09EE9E
:10B50000E8BA00EE105AB8EE400AB0EE4B8A09EEE7
:10B51000808A9FED220AB4EEC08AF1EE10FA02DBB7
:10B52000FF20019008E0B7EE000AB4EEC08AF1EE09
:10B5300010FA01D801200190BCEEC80A10EE100AE2
:10B54000C0B2019000224FF480711548F6F788FBD5
:10B550006423012202A91348FAF786FC00BF1148B0
:10B56000FAF758FB0228FAD06423012201A90D48FA
:10B57000FAF77AFC00BF0B48FAF74CFB0228FAD026
:10B58000012211020648F6F76BFB03B0BDEC088BF5
:10B5900030BD00006CB8000834B8000800007F43DC
:10B5A00000080258C002002430B52DED088B83B08E
:10B5B00005461120029000BF00BF002434E045483A
:10B5C00000EB8400D0ED000A00EE105AB8EE400AFD
:10B5D000F4EEC00AF1EE10FA24DB3E49601C01EBE8
:10B5E0008000D0ED000A00EE105AB8EE400AF4EEEA
:10B5F000C00AF1EE10FA15D8084600EB840090ED71
:10B6000000AA354800EB8400D0ED00AA601C01EBD5
:10B610008000D0ED008A3049601C01EB800090ED85
:10B62000009A03E0601CC4B20D2CC8D300BF39EEF1
:10B630006A0A78EECA0AC0EE209AB0EE49BA09EE5C
:10B64000E8BA00EE105AB8EE400AB0EE4B8A09EEA6
:10B65000808A9FED220AB4EEC08AF1EE10FA02DB76
:10B66000FF2001900FE0B7EE000AB4EEC08AF1EEC1
:10B6700010FA02D80120019005E0BCEEC80A10EED5
:10B68000100AC0B20190002280211548F6F7E8FAAE
:10B690006423012202A91348FAF7E6FB00BF114810
:10B6A000FAF7B8FA0228FAD06423012201A90D485A
:10B6B000FAF7DAFB00BF0B48FAF7ACFA0228FAD027
:10B6C000012280210648F6F7CBFA03B0BDEC088BC7
:10B6D00030BD00006CB8000834B8000800007F439B
:10B6E00000080258C002002430B52DED088B83B04D
:10B6F00005461120029000BF00BF002434E04548F9
:10B7000000EB8400D0ED000A00EE105AB8EE400ABB
:10B71000F4EEC00AF1EE10FA24DB3E49601C01EBA6
:10B720008000D0ED000A00EE105AB8EE400AF4EEA8
:10B73000C00AF1EE10FA15D8084600EB840090ED2F
:10B7400000AA354800EB8400D0ED00AA601C01EB94
:10B750008000D0ED008A3049601C01EB800090ED44
:10B76000009A03E0601CC4B20D2CC8D300BF39EEB0
:10B770006A0A78EECA0AC0EE209AB0EE49BA09EE1B
:10B78000E8BA00EE105AB8EE400AB0EE4B8A09EE65
:10B79000808A9FED220AB4EEC08AF1EE10FA02DB35
:10B7A000FF2001900FE0B7EE000AB4EEC08AF1EE80
:10B7B00010FA02D80120019005E0BCEEC80A10EE94
:10B7C000100AC0B2019000224FF400511448F6F75D
:10B7D00047FA6423012202A91248FAF745FB00BF89
:10B7E0001048FAF717FA0228FAD06423012201A9B7
:10B7F0000C48FAF739FB00BF0A48FAF70BFA02289F
:10B80000FAD0012251030648F6F72AFA03B0BDEC3C
:10B81000088B30BD6CB8000834B8000800007F43C6
:10B8200000080258C00200244FF04070E1EE100AF8
:10B83000704700000000A04000002041000070415F
:10B840000000A0410000C8410000F04100000C428F
:10B85000000020420000344200005C4200008C42A4
:10B860000000C8420000344300007F4300007442DF
:10B870000000544200003C420000284200001C42EC
:10B8800000000C42000004420000F0410000E041D2
:10B890000000C8410000B041000088410000304174
:10B8A0000000004100C1814001C0804101C08041D1
:10B8B00000C1814001C0804100C1814000C1814080
:10B8C00001C0804101C0804100C1814000C1814070
:10B8D00001C0804100C1814001C0804101C0804160
:10B8E00000C1814001C0804100C1814000C1814050
:10B8F00001C0804100C1814001C0804101C0804140
:10B9000000C1814000C1814001C0804101C080412F
:10B9100000C1814001C0804100C1814000C181401F
:10B9200001C0804101C0804100C1814000C181400F
:10B9300001C0804100C1814001C0804101C08041FF
:10B9400000C1814000C1814001C0804101C08041EF
:10B9500000C1814001C0804100C1814000C18140DF
:10B9600001C0804100C1814001C0804101C08041CF
:10B9700000C1814001C0804100C1814000C18140BF
:10B9800001C0804101C0804100C1814000C18140AF
:10B9900001C0804100C1814001C0804101C080419F
:10B9A00000C1814000C0C101C30302C2C60607C76F
:10B9B00005C5C404CC0C0DCD0FCFCE0E0ACACB0BDF
:10B9C000C90908C8D81819D91BDBDA1A1EDEDF1F0F
:10B9D000DD1D1CDC14D4D515D71716D6D21213D3FF
:10B9E00011D1D010F03031F133F3F23236F6F737AF
:10B9F000F53534F43CFCFD3DFF3F3EFEFA3A3BFB9F
:10BA000039F9F83828E8E929EB2B2AEAEE2E2FEF4E
:10BA10002DEDEC2CE42425E527E7E62622E2E323BE
:10BA2000E12120E0A06061A163A3A26266A6A767EE
:10BA3000A56564A46CACAD6DAF6F6EAEAA6A6BAB5E
:10BA400069A9A86878B8B979BB7B7ABABE7E7FBF8E
:10BA50007DBDBC7CB47475B577B7B67672B2B3737E
:10BA6000B17170B05090915193535292965657972E
:10BA7000559594549C5C5D9D5F9F9E5E5A9A9B5B1E
:10BA800099595898884849894B8B8A4A4E8E8F4FCE
:10BA90008D4D4C8C4484854587474686824243833E
:10BAA000418180404D534654313030A000000000A9
:10BAB000010203040102030406070809DCBA0008B6
:10BAC000000000245C020000D402000818BC00083A
:10BAD0005C020024ACA1000030030008016C139547
:10BAE0007E1B08E1041AF10413117F1B0845041A98
:10BAF0005D0C1AA5041BD18D1C190413120132020E
:10BB00001640BC0413092602010203014228130156
:10BB100004190B71071057494E5553423A8E281A93
:10BB200005282A84093112281244126512761269F6
:10BB30001A63081249126E1A7408127212663A6178
:10BB40001212471A55163244324E127B12311233FA
:10BB500012451A420612361A30081A2D041A4316D4
:10BB60001A450A1A34143A43141A41083A380A1288
:10BB7000451A462C1A441212341A37121A34361245
:10BB8000361232527D071A040309041A031CAA0153
:10BB900001A6100825BD0D0AAA010292091B2AC29E
:10BBA000122A021C2A611C2A030A175C7D0D0A81D5
:10BBB000081B087D041A39041AA504415A10EA1119
:10BBC0003C90D0030431130A0632022A401813C9EC
:10BBD0007A1B0809044BEB7B301A570C1359791B5D
:10BBE00008D504C11AA9181A99041AB9041A8904A3
:10BBF0001BF18D381302202008010104C032090412
:10BC00003302FF1B0705A91A02072A81070914201E
:08BC10002A40072A8107000009
:040000050800029954
:00000001FF
